{
	"contracts/TestContract.sol": {
		"TestContract": {
			"abi": [
				{
					"anonymous": false,
					"inputs": [
						{
							"indexed": false,
							"internalType": "bool",
							"name": "success",
							"type": "bool"
						},
						{
							"indexed": false,
							"internalType": "bytes",
							"name": "result",
							"type": "bytes"
						}
					],
					"name": "CallbackTestResult",
					"type": "event"
				},
				{
					"anonymous": false,
					"inputs": [
						{
							"indexed": true,
							"internalType": "address",
							"name": "from",
							"type": "address"
						},
						{
							"indexed": false,
							"internalType": "uint256",
							"name": "value",
							"type": "uint256"
						},
						{
							"indexed": false,
							"internalType": "bytes",
							"name": "data",
							"type": "bytes"
						}
					],
					"name": "Received",
					"type": "event"
				},
				{
					"stateMutability": "payable",
					"type": "fallback"
				},
				{
					"inputs": [
						{
							"internalType": "address",
							"name": "_addr",
							"type": "address"
						}
					],
					"name": "isContract",
					"outputs": [
						{
							"internalType": "bool",
							"name": "",
							"type": "bool"
						}
					],
					"stateMutability": "view",
					"type": "function"
				},
				{
					"inputs": [],
					"name": "maliciousCallback",
					"outputs": [
						{
							"internalType": "string",
							"name": "",
							"type": "string"
						}
					],
					"stateMutability": "pure",
					"type": "function"
				},
				{
					"inputs": [
						{
							"internalType": "address",
							"name": "_sampleContract",
							"type": "address"
						},
						{
							"internalType": "address",
							"name": "_to",
							"type": "address"
						},
						{
							"internalType": "uint256",
							"name": "_value",
							"type": "uint256"
						},
						{
							"internalType": "bytes",
							"name": "_data",
							"type": "bytes"
						},
						{
							"internalType": "string",
							"name": "_custom_fallback",
							"type": "string"
						}
					],
					"name": "testTransfer",
					"outputs": [],
					"stateMutability": "nonpayable",
					"type": "function"
				},
				{
					"stateMutability": "payable",
					"type": "receive"
				}
			],
			"devdoc": {
				"kind": "dev",
				"methods": {},
				"version": 1
			},
			"evm": {
				"assembly": "    /* \"contracts/TestContract.sol\":57:1598  contract TestContract {... */\n  mstore(0x40, 0x80)\n  callvalue\n  dup1\n  iszero\n  tag_1\n  jumpi\n  0x00\n  dup1\n  revert\ntag_1:\n  pop\n  dataSize(sub_0)\n  dup1\n  dataOffset(sub_0)\n  0x00\n  codecopy\n  0x00\n  return\nstop\n\nsub_0: assembly {\n        /* \"contracts/TestContract.sol\":57:1598  contract TestContract {... */\n      mstore(0x40, 0x80)\n      jumpi(tag_1, lt(calldatasize, 0x04))\n      shr(0xe0, calldataload(0x00))\n      dup1\n      0x16279055\n      eq\n      tag_3\n      jumpi\n      dup1\n      0xe24d02fb\n      eq\n      tag_4\n      jumpi\n      dup1\n      0xf2f387ed\n      eq\n      tag_5\n      jumpi\n      jump(tag_2)\n    tag_1:\n      jumpi(tag_2, calldatasize)\n        /* \"contracts/TestContract.sol\":318:328  msg.sender */\n      caller\n        /* \"contracts/TestContract.sol\":309:344  Received(msg.sender, msg.value, \"\") */\n      0xffffffffffffffffffffffffffffffffffffffff\n      and\n      0x89e8e1406eb88cbdf591b5eeb74b6d10cbda6e6ff4190b83ed226e54a1e6c4fb\n        /* \"contracts/TestContract.sol\":330:339  msg.value */\n      callvalue\n        /* \"contracts/TestContract.sol\":309:344  Received(msg.sender, msg.value, \"\") */\n      mload(0x40)\n      tag_8\n      swap2\n      swap1\n      tag_9\n      jump\t// in\n    tag_8:\n      mload(0x40)\n      dup1\n      swap2\n      sub\n      swap1\n      log2\n        /* \"contracts/TestContract.sol\":57:1598  contract TestContract {... */\n      stop\n    tag_2:\n        /* \"contracts/TestContract.sol\":460:470  msg.sender */\n      caller\n        /* \"contracts/TestContract.sol\":451:492  Received(msg.sender, msg.value, msg.data) */\n      0xffffffffffffffffffffffffffffffffffffffff\n      and\n      0x89e8e1406eb88cbdf591b5eeb74b6d10cbda6e6ff4190b83ed226e54a1e6c4fb\n        /* \"contracts/TestContract.sol\":472:481  msg.value */\n      callvalue\n        /* \"contracts/TestContract.sol\":483:491  msg.data */\n      0x00\n      calldatasize\n        /* \"contracts/TestContract.sol\":451:492  Received(msg.sender, msg.value, msg.data) */\n      mload(0x40)\n      tag_12\n      swap4\n      swap3\n      swap2\n      swap1\n      tag_13\n      jump\t// in\n    tag_12:\n      mload(0x40)\n      dup1\n      swap2\n      sub\n      swap1\n      log2\n        /* \"contracts/TestContract.sol\":57:1598  contract TestContract {... */\n      stop\n        /* \"contracts/TestContract.sol\":1243:1424  function isContract(address _addr) public view returns (bool) {... */\n    tag_3:\n      callvalue\n      dup1\n      iszero\n      tag_14\n      jumpi\n      0x00\n      dup1\n      revert\n    tag_14:\n      pop\n      tag_15\n      0x04\n      dup1\n      calldatasize\n      sub\n      dup2\n      add\n      swap1\n      tag_16\n      swap2\n      swap1\n      tag_17\n      jump\t// in\n    tag_16:\n      tag_18\n      jump\t// in\n    tag_15:\n      mload(0x40)\n      tag_19\n      swap2\n      swap1\n      tag_20\n      jump\t// in\n    tag_19:\n      mload(0x40)\n      dup1\n      swap2\n      sub\n      swap1\n      return\n        /* \"contracts/TestContract.sol\":1486:1596  function maliciousCallback() public pure returns (string memory) {... */\n    tag_4:\n      callvalue\n      dup1\n      iszero\n      tag_21\n      jumpi\n      0x00\n      dup1\n      revert\n    tag_21:\n      pop\n      tag_22\n      tag_23\n      jump\t// in\n    tag_22:\n      mload(0x40)\n      tag_24\n      swap2\n      swap1\n      tag_25\n      jump\t// in\n    tag_24:\n      mload(0x40)\n      dup1\n      swap2\n      sub\n      swap1\n      return\n        /* \"contracts/TestContract.sol\":557:1177  function testTransfer(... */\n    tag_5:\n      callvalue\n      dup1\n      iszero\n      tag_26\n      jumpi\n      0x00\n      dup1\n      revert\n    tag_26:\n      pop\n      tag_27\n      0x04\n      dup1\n      calldatasize\n      sub\n      dup2\n      add\n      swap1\n      tag_28\n      swap2\n      swap1\n      tag_29\n      jump\t// in\n    tag_28:\n      tag_30\n      jump\t// in\n    tag_27:\n      stop\n        /* \"contracts/TestContract.sol\":1243:1424  function isContract(address _addr) public view returns (bool) {... */\n    tag_18:\n        /* \"contracts/TestContract.sol\":1299:1303  bool */\n      0x00\n        /* \"contracts/TestContract.sol\":1315:1324  uint size */\n      dup1\n        /* \"contracts/TestContract.sol\":1377:1382  _addr */\n      dup3\n        /* \"contracts/TestContract.sol\":1365:1383  extcodesize(_addr) */\n      extcodesize\n        /* \"contracts/TestContract.sol\":1357:1383  size := extcodesize(_addr) */\n      swap1\n      pop\n        /* \"contracts/TestContract.sol\":1416:1417  0 */\n      0x00\n        /* \"contracts/TestContract.sol\":1409:1413  size */\n      dup2\n        /* \"contracts/TestContract.sol\":1409:1417  size > 0 */\n      gt\n        /* \"contracts/TestContract.sol\":1402:1417  return size > 0 */\n      swap2\n      pop\n      pop\n        /* \"contracts/TestContract.sol\":1243:1424  function isContract(address _addr) public view returns (bool) {... */\n      swap2\n      swap1\n      pop\n      jump\t// out\n        /* \"contracts/TestContract.sol\":1486:1596  function maliciousCallback() public pure returns (string memory) {... */\n    tag_23:\n        /* \"contracts/TestContract.sol\":1536:1549  string memory */\n      0x60\n        /* \"contracts/TestContract.sol\":1561:1589  return \"maliciousCallback()\" */\n      mload(0x40)\n      dup1\n      0x40\n      add\n      0x40\n      mstore\n      dup1\n      0x13\n      dup2\n      mstore\n      0x20\n      add\n      0x6d616c6963696f757343616c6c6261636b282900000000000000000000000000\n      dup2\n      mstore\n      pop\n      swap1\n      pop\n        /* \"contracts/TestContract.sol\":1486:1596  function maliciousCallback() public pure returns (string memory) {... */\n      swap1\n      jump\t// out\n        /* \"contracts/TestContract.sol\":557:1177  function testTransfer(... */\n    tag_30:\n        /* \"contracts/TestContract.sol\":802:814  bool success */\n      0x00\n        /* \"contracts/TestContract.sol\":816:835  bytes memory result */\n      dup1\n        /* \"contracts/TestContract.sol\":839:854  _sampleContract */\n      dup7\n        /* \"contracts/TestContract.sol\":839:859  _sampleContract.call */\n      0xffffffffffffffffffffffffffffffffffffffff\n      and\n        /* \"contracts/TestContract.sol\":972:975  _to */\n      dup7\n        /* \"contracts/TestContract.sol\":993:999  _value */\n      dup7\n        /* \"contracts/TestContract.sol\":1017:1022  _data */\n      dup7\n        /* \"contracts/TestContract.sol\":1040:1056  _custom_fallback */\n      dup7\n        /* \"contracts/TestContract.sol\":873:1070  abi.encodeWithSignature(... */\n      add(0x24, mload(0x40))\n      tag_34\n      swap5\n      swap4\n      swap3\n      swap2\n      swap1\n      tag_35\n      jump\t// in\n    tag_34:\n      mload(0x40)\n      0x20\n      dup2\n      dup4\n      sub\n      sub\n      dup2\n      mstore\n      swap1\n      0x40\n      mstore\n      and(not(0xffffffffffffffffffffffffffffffffffffffffffffffffffffffff), 0xf6368f8a00000000000000000000000000000000000000000000000000000000)\n      0x20\n      dup3\n      add\n      dup1\n      mload\n      0xffffffffffffffffffffffffffffffffffffffffffffffffffffffff\n      dup4\n      dup2\n      dup4\n      and\n      or\n      dup4\n      mstore\n      pop\n      pop\n      pop\n      pop\n        /* \"contracts/TestContract.sol\":839:1080  _sampleContract.call(... */\n      mload(0x40)\n      tag_36\n      swap2\n      swap1\n      tag_37\n      jump\t// in\n    tag_36:\n      0x00\n      mload(0x40)\n      dup1\n      dup4\n      sub\n      dup2\n      0x00\n      dup7\n      gas\n      call\n      swap2\n      pop\n      pop\n      returndatasize\n      dup1\n      0x00\n      dup2\n      eq\n      tag_40\n      jumpi\n      mload(0x40)\n      swap2\n      pop\n      and(add(returndatasize, 0x3f), not(0x1f))\n      dup3\n      add\n      0x40\n      mstore\n      returndatasize\n      dup3\n      mstore\n      returndatasize\n      0x00\n      0x20\n      dup5\n      add\n      returndatacopy\n      jump(tag_39)\n    tag_40:\n      0x60\n      swap2\n      pop\n    tag_39:\n      pop\n        /* \"contracts/TestContract.sol\":801:1080  (bool success, bytes memory result) = _sampleContract.call(... */\n      swap2\n      pop\n      swap2\n      pop\n        /* \"contracts/TestContract.sol\":1135:1170  CallbackTestResult(success, result) */\n      0xbc85f0aabee3bfa693b0698c430c040cb3f3ded7153467c8bed6b19a692a2fb7\n        /* \"contracts/TestContract.sol\":1154:1161  success */\n      dup3\n        /* \"contracts/TestContract.sol\":1163:1169  result */\n      dup3\n        /* \"contracts/TestContract.sol\":1135:1170  CallbackTestResult(success, result) */\n      mload(0x40)\n      tag_41\n      swap3\n      swap2\n      swap1\n      tag_42\n      jump\t// in\n    tag_41:\n      mload(0x40)\n      dup1\n      swap2\n      sub\n      swap1\n      log1\n        /* \"contracts/TestContract.sol\":735:1177  {... */\n      pop\n      pop\n        /* \"contracts/TestContract.sol\":557:1177  function testTransfer(... */\n      pop\n      pop\n      pop\n      pop\n      pop\n      jump\t// out\n        /* \"#utility.yul\":7:84   */\n    tag_43:\n        /* \"#utility.yul\":44:51   */\n      0x00\n        /* \"#utility.yul\":73:78   */\n      dup2\n        /* \"#utility.yul\":62:78   */\n      swap1\n      pop\n        /* \"#utility.yul\":7:84   */\n      swap2\n      swap1\n      pop\n      jump\t// out\n        /* \"#utility.yul\":90:208   */\n    tag_44:\n        /* \"#utility.yul\":177:201   */\n      tag_85\n        /* \"#utility.yul\":195:200   */\n      dup2\n        /* \"#utility.yul\":177:201   */\n      tag_43\n      jump\t// in\n    tag_85:\n        /* \"#utility.yul\":172:175   */\n      dup3\n        /* \"#utility.yul\":165:202   */\n      mstore\n        /* \"#utility.yul\":90:208   */\n      pop\n      pop\n      jump\t// out\n        /* \"#utility.yul\":214:382   */\n    tag_45:\n        /* \"#utility.yul\":297:308   */\n      0x00\n        /* \"#utility.yul\":331:337   */\n      dup3\n        /* \"#utility.yul\":326:329   */\n      dup3\n        /* \"#utility.yul\":319:338   */\n      mstore\n        /* \"#utility.yul\":371:375   */\n      0x20\n        /* \"#utility.yul\":366:369   */\n      dup3\n        /* \"#utility.yul\":362:376   */\n      add\n        /* \"#utility.yul\":347:376   */\n      swap1\n      pop\n        /* \"#utility.yul\":214:382   */\n      swap3\n      swap2\n      pop\n      pop\n      jump\t// out\n        /* \"#utility.yul\":388:502   */\n    tag_46:\n      pop\n      jump\t// out\n        /* \"#utility.yul\":508:870   */\n    tag_47:\n        /* \"#utility.yul\":649:652   */\n      0x00\n        /* \"#utility.yul\":670:735   */\n      tag_89\n        /* \"#utility.yul\":733:734   */\n      0x00\n        /* \"#utility.yul\":728:731   */\n      dup4\n        /* \"#utility.yul\":670:735   */\n      tag_45\n      jump\t// in\n    tag_89:\n        /* \"#utility.yul\":663:735   */\n      swap2\n      pop\n        /* \"#utility.yul\":744:837   */\n      tag_90\n        /* \"#utility.yul\":833:836   */\n      dup3\n        /* \"#utility.yul\":744:837   */\n      tag_46\n      jump\t// in\n    tag_90:\n        /* \"#utility.yul\":862:863   */\n      0x00\n        /* \"#utility.yul\":857:860   */\n      dup3\n        /* \"#utility.yul\":853:864   */\n      add\n        /* \"#utility.yul\":846:864   */\n      swap1\n      pop\n        /* \"#utility.yul\":508:870   */\n      swap2\n      swap1\n      pop\n      jump\t// out\n        /* \"#utility.yul\":876:1403   */\n    tag_9:\n        /* \"#utility.yul\":1069:1073   */\n      0x00\n        /* \"#utility.yul\":1107:1109   */\n      0x40\n        /* \"#utility.yul\":1096:1105   */\n      dup3\n        /* \"#utility.yul\":1092:1110   */\n      add\n        /* \"#utility.yul\":1084:1110   */\n      swap1\n      pop\n        /* \"#utility.yul\":1120:1191   */\n      tag_92\n        /* \"#utility.yul\":1188:1189   */\n      0x00\n        /* \"#utility.yul\":1177:1186   */\n      dup4\n        /* \"#utility.yul\":1173:1190   */\n      add\n        /* \"#utility.yul\":1164:1170   */\n      dup5\n        /* \"#utility.yul\":1120:1191   */\n      tag_44\n      jump\t// in\n    tag_92:\n        /* \"#utility.yul\":1238:1247   */\n      dup2\n        /* \"#utility.yul\":1232:1236   */\n      dup2\n        /* \"#utility.yul\":1228:1248   */\n      sub\n        /* \"#utility.yul\":1223:1225   */\n      0x20\n        /* \"#utility.yul\":1212:1221   */\n      dup4\n        /* \"#utility.yul\":1208:1226   */\n      add\n        /* \"#utility.yul\":1201:1249   */\n      mstore\n        /* \"#utility.yul\":1266:1396   */\n      tag_93\n        /* \"#utility.yul\":1391:1395   */\n      dup2\n        /* \"#utility.yul\":1266:1396   */\n      tag_47\n      jump\t// in\n    tag_93:\n        /* \"#utility.yul\":1258:1396   */\n      swap1\n      pop\n        /* \"#utility.yul\":876:1403   */\n      swap3\n      swap2\n      pop\n      pop\n      jump\t// out\n        /* \"#utility.yul\":1409:1557   */\n    tag_48:\n        /* \"#utility.yul\":1507:1513   */\n      dup3\n        /* \"#utility.yul\":1502:1505   */\n      dup2\n        /* \"#utility.yul\":1497:1500   */\n      dup4\n        /* \"#utility.yul\":1484:1514   */\n      calldatacopy\n        /* \"#utility.yul\":1548:1549   */\n      0x00\n        /* \"#utility.yul\":1539:1545   */\n      dup4\n        /* \"#utility.yul\":1534:1537   */\n      dup4\n        /* \"#utility.yul\":1530:1546   */\n      add\n        /* \"#utility.yul\":1523:1550   */\n      mstore\n        /* \"#utility.yul\":1409:1557   */\n      pop\n      pop\n      pop\n      jump\t// out\n        /* \"#utility.yul\":1563:1665   */\n    tag_49:\n        /* \"#utility.yul\":1604:1610   */\n      0x00\n        /* \"#utility.yul\":1655:1657   */\n      0x1f\n        /* \"#utility.yul\":1651:1658   */\n      not\n        /* \"#utility.yul\":1646:1648   */\n      0x1f\n        /* \"#utility.yul\":1639:1644   */\n      dup4\n        /* \"#utility.yul\":1635:1649   */\n      add\n        /* \"#utility.yul\":1631:1659   */\n      and\n        /* \"#utility.yul\":1621:1659   */\n      swap1\n      pop\n        /* \"#utility.yul\":1563:1665   */\n      swap2\n      swap1\n      pop\n      jump\t// out\n        /* \"#utility.yul\":1693:2007   */\n    tag_50:\n        /* \"#utility.yul\":1789:1792   */\n      0x00\n        /* \"#utility.yul\":1810:1880   */\n      tag_97\n        /* \"#utility.yul\":1873:1879   */\n      dup4\n        /* \"#utility.yul\":1868:1871   */\n      dup6\n        /* \"#utility.yul\":1810:1880   */\n      tag_45\n      jump\t// in\n    tag_97:\n        /* \"#utility.yul\":1803:1880   */\n      swap4\n      pop\n        /* \"#utility.yul\":1890:1946   */\n      tag_98\n        /* \"#utility.yul\":1939:1945   */\n      dup4\n        /* \"#utility.yul\":1934:1937   */\n      dup6\n        /* \"#utility.yul\":1927:1932   */\n      dup5\n        /* \"#utility.yul\":1890:1946   */\n      tag_48\n      jump\t// in\n    tag_98:\n        /* \"#utility.yul\":1971:2000   */\n      tag_99\n        /* \"#utility.yul\":1993:1999   */\n      dup4\n        /* \"#utility.yul\":1971:2000   */\n      tag_49\n      jump\t// in\n    tag_99:\n        /* \"#utility.yul\":1966:1969   */\n      dup5\n        /* \"#utility.yul\":1962:2001   */\n      add\n        /* \"#utility.yul\":1955:2001   */\n      swap1\n      pop\n        /* \"#utility.yul\":1693:2007   */\n      swap4\n      swap3\n      pop\n      pop\n      pop\n      jump\t// out\n        /* \"#utility.yul\":2013:2452   */\n    tag_13:\n        /* \"#utility.yul\":2162:2166   */\n      0x00\n        /* \"#utility.yul\":2200:2202   */\n      0x40\n        /* \"#utility.yul\":2189:2198   */\n      dup3\n        /* \"#utility.yul\":2185:2203   */\n      add\n        /* \"#utility.yul\":2177:2203   */\n      swap1\n      pop\n        /* \"#utility.yul\":2213:2284   */\n      tag_101\n        /* \"#utility.yul\":2281:2282   */\n      0x00\n        /* \"#utility.yul\":2270:2279   */\n      dup4\n        /* \"#utility.yul\":2266:2283   */\n      add\n        /* \"#utility.yul\":2257:2263   */\n      dup7\n        /* \"#utility.yul\":2213:2284   */\n      tag_44\n      jump\t// in\n    tag_101:\n        /* \"#utility.yul\":2331:2340   */\n      dup2\n        /* \"#utility.yul\":2325:2329   */\n      dup2\n        /* \"#utility.yul\":2321:2341   */\n      sub\n        /* \"#utility.yul\":2316:2318   */\n      0x20\n        /* \"#utility.yul\":2305:2314   */\n      dup4\n        /* \"#utility.yul\":2301:2319   */\n      add\n        /* \"#utility.yul\":2294:2342   */\n      mstore\n        /* \"#utility.yul\":2359:2445   */\n      tag_102\n        /* \"#utility.yul\":2440:2444   */\n      dup2\n        /* \"#utility.yul\":2431:2437   */\n      dup5\n        /* \"#utility.yul\":2423:2429   */\n      dup7\n        /* \"#utility.yul\":2359:2445   */\n      tag_50\n      jump\t// in\n    tag_102:\n        /* \"#utility.yul\":2351:2445   */\n      swap1\n      pop\n        /* \"#utility.yul\":2013:2452   */\n      swap5\n      swap4\n      pop\n      pop\n      pop\n      pop\n      jump\t// out\n        /* \"#utility.yul\":2458:2533   */\n    tag_51:\n        /* \"#utility.yul\":2491:2497   */\n      0x00\n        /* \"#utility.yul\":2524:2526   */\n      0x40\n        /* \"#utility.yul\":2518:2527   */\n      mload\n        /* \"#utility.yul\":2508:2527   */\n      swap1\n      pop\n        /* \"#utility.yul\":2458:2533   */\n      swap1\n      jump\t// out\n        /* \"#utility.yul\":2539:2656   */\n    tag_52:\n        /* \"#utility.yul\":2648:2649   */\n      0x00\n        /* \"#utility.yul\":2645:2646   */\n      dup1\n        /* \"#utility.yul\":2638:2650   */\n      revert\n        /* \"#utility.yul\":2662:2779   */\n    tag_53:\n        /* \"#utility.yul\":2771:2772   */\n      0x00\n        /* \"#utility.yul\":2768:2769   */\n      dup1\n        /* \"#utility.yul\":2761:2773   */\n      revert\n        /* \"#utility.yul\":2785:2911   */\n    tag_54:\n        /* \"#utility.yul\":2822:2829   */\n      0x00\n        /* \"#utility.yul\":2862:2904   */\n      0xffffffffffffffffffffffffffffffffffffffff\n        /* \"#utility.yul\":2855:2860   */\n      dup3\n        /* \"#utility.yul\":2851:2905   */\n      and\n        /* \"#utility.yul\":2840:2905   */\n      swap1\n      pop\n        /* \"#utility.yul\":2785:2911   */\n      swap2\n      swap1\n      pop\n      jump\t// out\n        /* \"#utility.yul\":2917:3013   */\n    tag_55:\n        /* \"#utility.yul\":2954:2961   */\n      0x00\n        /* \"#utility.yul\":2983:3007   */\n      tag_108\n        /* \"#utility.yul\":3001:3006   */\n      dup3\n        /* \"#utility.yul\":2983:3007   */\n      tag_54\n      jump\t// in\n    tag_108:\n        /* \"#utility.yul\":2972:3007   */\n      swap1\n      pop\n        /* \"#utility.yul\":2917:3013   */\n      swap2\n      swap1\n      pop\n      jump\t// out\n        /* \"#utility.yul\":3019:3141   */\n    tag_56:\n        /* \"#utility.yul\":3092:3116   */\n      tag_110\n        /* \"#utility.yul\":3110:3115   */\n      dup2\n        /* \"#utility.yul\":3092:3116   */\n      tag_55\n      jump\t// in\n    tag_110:\n        /* \"#utility.yul\":3085:3090   */\n      dup2\n        /* \"#utility.yul\":3082:3117   */\n      eq\n        /* \"#utility.yul\":3072:3135   */\n      tag_111\n      jumpi\n        /* \"#utility.yul\":3131:3132   */\n      0x00\n        /* \"#utility.yul\":3128:3129   */\n      dup1\n        /* \"#utility.yul\":3121:3133   */\n      revert\n        /* \"#utility.yul\":3072:3135   */\n    tag_111:\n        /* \"#utility.yul\":3019:3141   */\n      pop\n      jump\t// out\n        /* \"#utility.yul\":3147:3286   */\n    tag_57:\n        /* \"#utility.yul\":3193:3198   */\n      0x00\n        /* \"#utility.yul\":3231:3237   */\n      dup2\n        /* \"#utility.yul\":3218:3238   */\n      calldataload\n        /* \"#utility.yul\":3209:3238   */\n      swap1\n      pop\n        /* \"#utility.yul\":3247:3280   */\n      tag_113\n        /* \"#utility.yul\":3274:3279   */\n      dup2\n        /* \"#utility.yul\":3247:3280   */\n      tag_56\n      jump\t// in\n    tag_113:\n        /* \"#utility.yul\":3147:3286   */\n      swap3\n      swap2\n      pop\n      pop\n      jump\t// out\n        /* \"#utility.yul\":3292:3621   */\n    tag_17:\n        /* \"#utility.yul\":3351:3357   */\n      0x00\n        /* \"#utility.yul\":3400:3402   */\n      0x20\n        /* \"#utility.yul\":3388:3397   */\n      dup3\n        /* \"#utility.yul\":3379:3386   */\n      dup5\n        /* \"#utility.yul\":3375:3398   */\n      sub\n        /* \"#utility.yul\":3371:3403   */\n      slt\n        /* \"#utility.yul\":3368:3487   */\n      iszero\n      tag_115\n      jumpi\n        /* \"#utility.yul\":3406:3485   */\n      tag_116\n      tag_52\n      jump\t// in\n    tag_116:\n        /* \"#utility.yul\":3368:3487   */\n    tag_115:\n        /* \"#utility.yul\":3526:3527   */\n      0x00\n        /* \"#utility.yul\":3551:3604   */\n      tag_117\n        /* \"#utility.yul\":3596:3603   */\n      dup5\n        /* \"#utility.yul\":3587:3593   */\n      dup3\n        /* \"#utility.yul\":3576:3585   */\n      dup6\n        /* \"#utility.yul\":3572:3594   */\n      add\n        /* \"#utility.yul\":3551:3604   */\n      tag_57\n      jump\t// in\n    tag_117:\n        /* \"#utility.yul\":3541:3604   */\n      swap2\n      pop\n        /* \"#utility.yul\":3497:3614   */\n      pop\n        /* \"#utility.yul\":3292:3621   */\n      swap3\n      swap2\n      pop\n      pop\n      jump\t// out\n        /* \"#utility.yul\":3627:3717   */\n    tag_58:\n        /* \"#utility.yul\":3661:3668   */\n      0x00\n        /* \"#utility.yul\":3704:3709   */\n      dup2\n        /* \"#utility.yul\":3697:3710   */\n      iszero\n        /* \"#utility.yul\":3690:3711   */\n      iszero\n        /* \"#utility.yul\":3679:3711   */\n      swap1\n      pop\n        /* \"#utility.yul\":3627:3717   */\n      swap2\n      swap1\n      pop\n      jump\t// out\n        /* \"#utility.yul\":3723:3832   */\n    tag_59:\n        /* \"#utility.yul\":3804:3825   */\n      tag_120\n        /* \"#utility.yul\":3819:3824   */\n      dup2\n        /* \"#utility.yul\":3804:3825   */\n      tag_58\n      jump\t// in\n    tag_120:\n        /* \"#utility.yul\":3799:3802   */\n      dup3\n        /* \"#utility.yul\":3792:3826   */\n      mstore\n        /* \"#utility.yul\":3723:3832   */\n      pop\n      pop\n      jump\t// out\n        /* \"#utility.yul\":3838:4048   */\n    tag_20:\n        /* \"#utility.yul\":3925:3929   */\n      0x00\n        /* \"#utility.yul\":3963:3965   */\n      0x20\n        /* \"#utility.yul\":3952:3961   */\n      dup3\n        /* \"#utility.yul\":3948:3966   */\n      add\n        /* \"#utility.yul\":3940:3966   */\n      swap1\n      pop\n        /* \"#utility.yul\":3976:4041   */\n      tag_122\n        /* \"#utility.yul\":4038:4039   */\n      0x00\n        /* \"#utility.yul\":4027:4036   */\n      dup4\n        /* \"#utility.yul\":4023:4040   */\n      add\n        /* \"#utility.yul\":4014:4020   */\n      dup5\n        /* \"#utility.yul\":3976:4041   */\n      tag_59\n      jump\t// in\n    tag_122:\n        /* \"#utility.yul\":3838:4048   */\n      swap3\n      swap2\n      pop\n      pop\n      jump\t// out\n        /* \"#utility.yul\":4054:4153   */\n    tag_60:\n        /* \"#utility.yul\":4106:4112   */\n      0x00\n        /* \"#utility.yul\":4140:4145   */\n      dup2\n        /* \"#utility.yul\":4134:4146   */\n      mload\n        /* \"#utility.yul\":4124:4146   */\n      swap1\n      pop\n        /* \"#utility.yul\":4054:4153   */\n      swap2\n      swap1\n      pop\n      jump\t// out\n        /* \"#utility.yul\":4159:4328   */\n    tag_61:\n        /* \"#utility.yul\":4243:4254   */\n      0x00\n        /* \"#utility.yul\":4277:4283   */\n      dup3\n        /* \"#utility.yul\":4272:4275   */\n      dup3\n        /* \"#utility.yul\":4265:4284   */\n      mstore\n        /* \"#utility.yul\":4317:4321   */\n      0x20\n        /* \"#utility.yul\":4312:4315   */\n      dup3\n        /* \"#utility.yul\":4308:4322   */\n      add\n        /* \"#utility.yul\":4293:4322   */\n      swap1\n      pop\n        /* \"#utility.yul\":4159:4328   */\n      swap3\n      swap2\n      pop\n      pop\n      jump\t// out\n        /* \"#utility.yul\":4334:4473   */\n    tag_62:\n        /* \"#utility.yul\":4423:4429   */\n      dup3\n        /* \"#utility.yul\":4418:4421   */\n      dup2\n        /* \"#utility.yul\":4413:4416   */\n      dup4\n        /* \"#utility.yul\":4407:4430   */\n      mcopy\n        /* \"#utility.yul\":4464:4465   */\n      0x00\n        /* \"#utility.yul\":4455:4461   */\n      dup4\n        /* \"#utility.yul\":4450:4453   */\n      dup4\n        /* \"#utility.yul\":4446:4462   */\n      add\n        /* \"#utility.yul\":4439:4466   */\n      mstore\n        /* \"#utility.yul\":4334:4473   */\n      pop\n      pop\n      pop\n      jump\t// out\n        /* \"#utility.yul\":4479:4856   */\n    tag_63:\n        /* \"#utility.yul\":4567:4570   */\n      0x00\n        /* \"#utility.yul\":4595:4634   */\n      tag_127\n        /* \"#utility.yul\":4628:4633   */\n      dup3\n        /* \"#utility.yul\":4595:4634   */\n      tag_60\n      jump\t// in\n    tag_127:\n        /* \"#utility.yul\":4650:4721   */\n      tag_128\n        /* \"#utility.yul\":4714:4720   */\n      dup2\n        /* \"#utility.yul\":4709:4712   */\n      dup6\n        /* \"#utility.yul\":4650:4721   */\n      tag_61\n      jump\t// in\n    tag_128:\n        /* \"#utility.yul\":4643:4721   */\n      swap4\n      pop\n        /* \"#utility.yul\":4730:4795   */\n      tag_129\n        /* \"#utility.yul\":4788:4794   */\n      dup2\n        /* \"#utility.yul\":4783:4786   */\n      dup6\n        /* \"#utility.yul\":4776:4780   */\n      0x20\n        /* \"#utility.yul\":4769:4774   */\n      dup7\n        /* \"#utility.yul\":4765:4781   */\n      add\n        /* \"#utility.yul\":4730:4795   */\n      tag_62\n      jump\t// in\n    tag_129:\n        /* \"#utility.yul\":4820:4849   */\n      tag_130\n        /* \"#utility.yul\":4842:4848   */\n      dup2\n        /* \"#utility.yul\":4820:4849   */\n      tag_49\n      jump\t// in\n    tag_130:\n        /* \"#utility.yul\":4815:4818   */\n      dup5\n        /* \"#utility.yul\":4811:4850   */\n      add\n        /* \"#utility.yul\":4804:4850   */\n      swap2\n      pop\n        /* \"#utility.yul\":4571:4856   */\n      pop\n        /* \"#utility.yul\":4479:4856   */\n      swap3\n      swap2\n      pop\n      pop\n      jump\t// out\n        /* \"#utility.yul\":4862:5175   */\n    tag_25:\n        /* \"#utility.yul\":4975:4979   */\n      0x00\n        /* \"#utility.yul\":5013:5015   */\n      0x20\n        /* \"#utility.yul\":5002:5011   */\n      dup3\n        /* \"#utility.yul\":4998:5016   */\n      add\n        /* \"#utility.yul\":4990:5016   */\n      swap1\n      pop\n        /* \"#utility.yul\":5062:5071   */\n      dup2\n        /* \"#utility.yul\":5056:5060   */\n      dup2\n        /* \"#utility.yul\":5052:5072   */\n      sub\n        /* \"#utility.yul\":5048:5049   */\n      0x00\n        /* \"#utility.yul\":5037:5046   */\n      dup4\n        /* \"#utility.yul\":5033:5050   */\n      add\n        /* \"#utility.yul\":5026:5073   */\n      mstore\n        /* \"#utility.yul\":5090:5168   */\n      tag_132\n        /* \"#utility.yul\":5163:5167   */\n      dup2\n        /* \"#utility.yul\":5154:5160   */\n      dup5\n        /* \"#utility.yul\":5090:5168   */\n      tag_63\n      jump\t// in\n    tag_132:\n        /* \"#utility.yul\":5082:5168   */\n      swap1\n      pop\n        /* \"#utility.yul\":4862:5175   */\n      swap3\n      swap2\n      pop\n      pop\n      jump\t// out\n        /* \"#utility.yul\":5181:5303   */\n    tag_64:\n        /* \"#utility.yul\":5254:5278   */\n      tag_134\n        /* \"#utility.yul\":5272:5277   */\n      dup2\n        /* \"#utility.yul\":5254:5278   */\n      tag_43\n      jump\t// in\n    tag_134:\n        /* \"#utility.yul\":5247:5252   */\n      dup2\n        /* \"#utility.yul\":5244:5279   */\n      eq\n        /* \"#utility.yul\":5234:5297   */\n      tag_135\n      jumpi\n        /* \"#utility.yul\":5293:5294   */\n      0x00\n        /* \"#utility.yul\":5290:5291   */\n      dup1\n        /* \"#utility.yul\":5283:5295   */\n      revert\n        /* \"#utility.yul\":5234:5297   */\n    tag_135:\n        /* \"#utility.yul\":5181:5303   */\n      pop\n      jump\t// out\n        /* \"#utility.yul\":5309:5448   */\n    tag_65:\n        /* \"#utility.yul\":5355:5360   */\n      0x00\n        /* \"#utility.yul\":5393:5399   */\n      dup2\n        /* \"#utility.yul\":5380:5400   */\n      calldataload\n        /* \"#utility.yul\":5371:5400   */\n      swap1\n      pop\n        /* \"#utility.yul\":5409:5442   */\n      tag_137\n        /* \"#utility.yul\":5436:5441   */\n      dup2\n        /* \"#utility.yul\":5409:5442   */\n      tag_64\n      jump\t// in\n    tag_137:\n        /* \"#utility.yul\":5309:5448   */\n      swap3\n      swap2\n      pop\n      pop\n      jump\t// out\n        /* \"#utility.yul\":5454:5571   */\n    tag_66:\n        /* \"#utility.yul\":5563:5564   */\n      0x00\n        /* \"#utility.yul\":5560:5561   */\n      dup1\n        /* \"#utility.yul\":5553:5565   */\n      revert\n        /* \"#utility.yul\":5577:5694   */\n    tag_67:\n        /* \"#utility.yul\":5686:5687   */\n      0x00\n        /* \"#utility.yul\":5683:5684   */\n      dup1\n        /* \"#utility.yul\":5676:5688   */\n      revert\n        /* \"#utility.yul\":5700:5880   */\n    tag_68:\n        /* \"#utility.yul\":5748:5825   */\n      0x4e487b7100000000000000000000000000000000000000000000000000000000\n        /* \"#utility.yul\":5745:5746   */\n      0x00\n        /* \"#utility.yul\":5738:5826   */\n      mstore\n        /* \"#utility.yul\":5845:5849   */\n      0x41\n        /* \"#utility.yul\":5842:5843   */\n      0x04\n        /* \"#utility.yul\":5835:5850   */\n      mstore\n        /* \"#utility.yul\":5869:5873   */\n      0x24\n        /* \"#utility.yul\":5866:5867   */\n      0x00\n        /* \"#utility.yul\":5859:5874   */\n      revert\n        /* \"#utility.yul\":5886:6167   */\n    tag_69:\n        /* \"#utility.yul\":5969:5996   */\n      tag_142\n        /* \"#utility.yul\":5991:5995   */\n      dup3\n        /* \"#utility.yul\":5969:5996   */\n      tag_49\n      jump\t// in\n    tag_142:\n        /* \"#utility.yul\":5961:5967   */\n      dup2\n        /* \"#utility.yul\":5957:5997   */\n      add\n        /* \"#utility.yul\":6099:6105   */\n      dup2\n        /* \"#utility.yul\":6087:6097   */\n      dup2\n        /* \"#utility.yul\":6084:6106   */\n      lt\n        /* \"#utility.yul\":6063:6081   */\n      0xffffffffffffffff\n        /* \"#utility.yul\":6051:6061   */\n      dup3\n        /* \"#utility.yul\":6048:6082   */\n      gt\n        /* \"#utility.yul\":6045:6107   */\n      or\n        /* \"#utility.yul\":6042:6130   */\n      iszero\n      tag_143\n      jumpi\n        /* \"#utility.yul\":6110:6128   */\n      tag_144\n      tag_68\n      jump\t// in\n    tag_144:\n        /* \"#utility.yul\":6042:6130   */\n    tag_143:\n        /* \"#utility.yul\":6150:6160   */\n      dup1\n        /* \"#utility.yul\":6146:6148   */\n      0x40\n        /* \"#utility.yul\":6139:6161   */\n      mstore\n        /* \"#utility.yul\":5929:6167   */\n      pop\n        /* \"#utility.yul\":5886:6167   */\n      pop\n      pop\n      jump\t// out\n        /* \"#utility.yul\":6173:6302   */\n    tag_70:\n        /* \"#utility.yul\":6207:6213   */\n      0x00\n        /* \"#utility.yul\":6234:6254   */\n      tag_146\n      tag_51\n      jump\t// in\n    tag_146:\n        /* \"#utility.yul\":6224:6254   */\n      swap1\n      pop\n        /* \"#utility.yul\":6263:6296   */\n      tag_147\n        /* \"#utility.yul\":6291:6295   */\n      dup3\n        /* \"#utility.yul\":6283:6289   */\n      dup3\n        /* \"#utility.yul\":6263:6296   */\n      tag_69\n      jump\t// in\n    tag_147:\n        /* \"#utility.yul\":6173:6302   */\n      swap2\n      swap1\n      pop\n      jump\t// out\n        /* \"#utility.yul\":6308:6615   */\n    tag_71:\n        /* \"#utility.yul\":6369:6373   */\n      0x00\n        /* \"#utility.yul\":6459:6477   */\n      0xffffffffffffffff\n        /* \"#utility.yul\":6451:6457   */\n      dup3\n        /* \"#utility.yul\":6448:6478   */\n      gt\n        /* \"#utility.yul\":6445:6501   */\n      iszero\n      tag_149\n      jumpi\n        /* \"#utility.yul\":6481:6499   */\n      tag_150\n      tag_68\n      jump\t// in\n    tag_150:\n        /* \"#utility.yul\":6445:6501   */\n    tag_149:\n        /* \"#utility.yul\":6519:6548   */\n      tag_151\n        /* \"#utility.yul\":6541:6547   */\n      dup3\n        /* \"#utility.yul\":6519:6548   */\n      tag_49\n      jump\t// in\n    tag_151:\n        /* \"#utility.yul\":6511:6548   */\n      swap1\n      pop\n        /* \"#utility.yul\":6603:6607   */\n      0x20\n        /* \"#utility.yul\":6597:6601   */\n      dup2\n        /* \"#utility.yul\":6593:6608   */\n      add\n        /* \"#utility.yul\":6585:6608   */\n      swap1\n      pop\n        /* \"#utility.yul\":6308:6615   */\n      swap2\n      swap1\n      pop\n      jump\t// out\n        /* \"#utility.yul\":6621:7044   */\n    tag_72:\n        /* \"#utility.yul\":6698:6703   */\n      0x00\n        /* \"#utility.yul\":6723:6788   */\n      tag_153\n        /* \"#utility.yul\":6739:6787   */\n      tag_154\n        /* \"#utility.yul\":6780:6786   */\n      dup5\n        /* \"#utility.yul\":6739:6787   */\n      tag_71\n      jump\t// in\n    tag_154:\n        /* \"#utility.yul\":6723:6788   */\n      tag_70\n      jump\t// in\n    tag_153:\n        /* \"#utility.yul\":6714:6788   */\n      swap1\n      pop\n        /* \"#utility.yul\":6811:6817   */\n      dup3\n        /* \"#utility.yul\":6804:6809   */\n      dup2\n        /* \"#utility.yul\":6797:6818   */\n      mstore\n        /* \"#utility.yul\":6849:6853   */\n      0x20\n        /* \"#utility.yul\":6842:6847   */\n      dup2\n        /* \"#utility.yul\":6838:6854   */\n      add\n        /* \"#utility.yul\":6887:6890   */\n      dup5\n        /* \"#utility.yul\":6878:6884   */\n      dup5\n        /* \"#utility.yul\":6873:6876   */\n      dup5\n        /* \"#utility.yul\":6869:6885   */\n      add\n        /* \"#utility.yul\":6866:6891   */\n      gt\n        /* \"#utility.yul\":6863:6975   */\n      iszero\n      tag_155\n      jumpi\n        /* \"#utility.yul\":6894:6973   */\n      tag_156\n      tag_67\n      jump\t// in\n    tag_156:\n        /* \"#utility.yul\":6863:6975   */\n    tag_155:\n        /* \"#utility.yul\":6984:7038   */\n      tag_157\n        /* \"#utility.yul\":7031:7037   */\n      dup5\n        /* \"#utility.yul\":7026:7029   */\n      dup3\n        /* \"#utility.yul\":7021:7024   */\n      dup6\n        /* \"#utility.yul\":6984:7038   */\n      tag_48\n      jump\t// in\n    tag_157:\n        /* \"#utility.yul\":6704:7044   */\n      pop\n        /* \"#utility.yul\":6621:7044   */\n      swap4\n      swap3\n      pop\n      pop\n      pop\n      jump\t// out\n        /* \"#utility.yul\":7063:7401   */\n    tag_73:\n        /* \"#utility.yul\":7118:7123   */\n      0x00\n        /* \"#utility.yul\":7167:7170   */\n      dup3\n        /* \"#utility.yul\":7160:7164   */\n      0x1f\n        /* \"#utility.yul\":7152:7158   */\n      dup4\n        /* \"#utility.yul\":7148:7165   */\n      add\n        /* \"#utility.yul\":7144:7171   */\n      slt\n        /* \"#utility.yul\":7134:7256   */\n      tag_159\n      jumpi\n        /* \"#utility.yul\":7175:7254   */\n      tag_160\n      tag_66\n      jump\t// in\n    tag_160:\n        /* \"#utility.yul\":7134:7256   */\n    tag_159:\n        /* \"#utility.yul\":7292:7298   */\n      dup2\n        /* \"#utility.yul\":7279:7299   */\n      calldataload\n        /* \"#utility.yul\":7317:7395   */\n      tag_161\n        /* \"#utility.yul\":7391:7394   */\n      dup5\n        /* \"#utility.yul\":7383:7389   */\n      dup3\n        /* \"#utility.yul\":7376:7380   */\n      0x20\n        /* \"#utility.yul\":7368:7374   */\n      dup7\n        /* \"#utility.yul\":7364:7381   */\n      add\n        /* \"#utility.yul\":7317:7395   */\n      tag_72\n      jump\t// in\n    tag_161:\n        /* \"#utility.yul\":7308:7395   */\n      swap2\n      pop\n        /* \"#utility.yul\":7124:7401   */\n      pop\n        /* \"#utility.yul\":7063:7401   */\n      swap3\n      swap2\n      pop\n      pop\n      jump\t// out\n        /* \"#utility.yul\":7407:7715   */\n    tag_74:\n        /* \"#utility.yul\":7469:7473   */\n      0x00\n        /* \"#utility.yul\":7559:7577   */\n      0xffffffffffffffff\n        /* \"#utility.yul\":7551:7557   */\n      dup3\n        /* \"#utility.yul\":7548:7578   */\n      gt\n        /* \"#utility.yul\":7545:7601   */\n      iszero\n      tag_163\n      jumpi\n        /* \"#utility.yul\":7581:7599   */\n      tag_164\n      tag_68\n      jump\t// in\n    tag_164:\n        /* \"#utility.yul\":7545:7601   */\n    tag_163:\n        /* \"#utility.yul\":7619:7648   */\n      tag_165\n        /* \"#utility.yul\":7641:7647   */\n      dup3\n        /* \"#utility.yul\":7619:7648   */\n      tag_49\n      jump\t// in\n    tag_165:\n        /* \"#utility.yul\":7611:7648   */\n      swap1\n      pop\n        /* \"#utility.yul\":7703:7707   */\n      0x20\n        /* \"#utility.yul\":7697:7701   */\n      dup2\n        /* \"#utility.yul\":7693:7708   */\n      add\n        /* \"#utility.yul\":7685:7708   */\n      swap1\n      pop\n        /* \"#utility.yul\":7407:7715   */\n      swap2\n      swap1\n      pop\n      jump\t// out\n        /* \"#utility.yul\":7721:8146   */\n    tag_75:\n        /* \"#utility.yul\":7799:7804   */\n      0x00\n        /* \"#utility.yul\":7824:7890   */\n      tag_167\n        /* \"#utility.yul\":7840:7889   */\n      tag_168\n        /* \"#utility.yul\":7882:7888   */\n      dup5\n        /* \"#utility.yul\":7840:7889   */\n      tag_74\n      jump\t// in\n    tag_168:\n        /* \"#utility.yul\":7824:7890   */\n      tag_70\n      jump\t// in\n    tag_167:\n        /* \"#utility.yul\":7815:7890   */\n      swap1\n      pop\n        /* \"#utility.yul\":7913:7919   */\n      dup3\n        /* \"#utility.yul\":7906:7911   */\n      dup2\n        /* \"#utility.yul\":7899:7920   */\n      mstore\n        /* \"#utility.yul\":7951:7955   */\n      0x20\n        /* \"#utility.yul\":7944:7949   */\n      dup2\n        /* \"#utility.yul\":7940:7956   */\n      add\n        /* \"#utility.yul\":7989:7992   */\n      dup5\n        /* \"#utility.yul\":7980:7986   */\n      dup5\n        /* \"#utility.yul\":7975:7978   */\n      dup5\n        /* \"#utility.yul\":7971:7987   */\n      add\n        /* \"#utility.yul\":7968:7993   */\n      gt\n        /* \"#utility.yul\":7965:8077   */\n      iszero\n      tag_169\n      jumpi\n        /* \"#utility.yul\":7996:8075   */\n      tag_170\n      tag_67\n      jump\t// in\n    tag_170:\n        /* \"#utility.yul\":7965:8077   */\n    tag_169:\n        /* \"#utility.yul\":8086:8140   */\n      tag_171\n        /* \"#utility.yul\":8133:8139   */\n      dup5\n        /* \"#utility.yul\":8128:8131   */\n      dup3\n        /* \"#utility.yul\":8123:8126   */\n      dup6\n        /* \"#utility.yul\":8086:8140   */\n      tag_48\n      jump\t// in\n    tag_171:\n        /* \"#utility.yul\":7805:8146   */\n      pop\n        /* \"#utility.yul\":7721:8146   */\n      swap4\n      swap3\n      pop\n      pop\n      pop\n      jump\t// out\n        /* \"#utility.yul\":8166:8506   */\n    tag_76:\n        /* \"#utility.yul\":8222:8227   */\n      0x00\n        /* \"#utility.yul\":8271:8274   */\n      dup3\n        /* \"#utility.yul\":8264:8268   */\n      0x1f\n        /* \"#utility.yul\":8256:8262   */\n      dup4\n        /* \"#utility.yul\":8252:8269   */\n      add\n        /* \"#utility.yul\":8248:8275   */\n      slt\n        /* \"#utility.yul\":8238:8360   */\n      tag_173\n      jumpi\n        /* \"#utility.yul\":8279:8358   */\n      tag_174\n      tag_66\n      jump\t// in\n    tag_174:\n        /* \"#utility.yul\":8238:8360   */\n    tag_173:\n        /* \"#utility.yul\":8396:8402   */\n      dup2\n        /* \"#utility.yul\":8383:8403   */\n      calldataload\n        /* \"#utility.yul\":8421:8500   */\n      tag_175\n        /* \"#utility.yul\":8496:8499   */\n      dup5\n        /* \"#utility.yul\":8488:8494   */\n      dup3\n        /* \"#utility.yul\":8481:8485   */\n      0x20\n        /* \"#utility.yul\":8473:8479   */\n      dup7\n        /* \"#utility.yul\":8469:8486   */\n      add\n        /* \"#utility.yul\":8421:8500   */\n      tag_75\n      jump\t// in\n    tag_175:\n        /* \"#utility.yul\":8412:8500   */\n      swap2\n      pop\n        /* \"#utility.yul\":8228:8506   */\n      pop\n        /* \"#utility.yul\":8166:8506   */\n      swap3\n      swap2\n      pop\n      pop\n      jump\t// out\n        /* \"#utility.yul\":8512:9781   */\n    tag_29:\n        /* \"#utility.yul\":8626:8632   */\n      0x00\n        /* \"#utility.yul\":8634:8640   */\n      dup1\n        /* \"#utility.yul\":8642:8648   */\n      0x00\n        /* \"#utility.yul\":8650:8656   */\n      dup1\n        /* \"#utility.yul\":8658:8664   */\n      0x00\n        /* \"#utility.yul\":8707:8710   */\n      0xa0\n        /* \"#utility.yul\":8695:8704   */\n      dup7\n        /* \"#utility.yul\":8686:8693   */\n      dup9\n        /* \"#utility.yul\":8682:8705   */\n      sub\n        /* \"#utility.yul\":8678:8711   */\n      slt\n        /* \"#utility.yul\":8675:8795   */\n      iszero\n      tag_177\n      jumpi\n        /* \"#utility.yul\":8714:8793   */\n      tag_178\n      tag_52\n      jump\t// in\n    tag_178:\n        /* \"#utility.yul\":8675:8795   */\n    tag_177:\n        /* \"#utility.yul\":8834:8835   */\n      0x00\n        /* \"#utility.yul\":8859:8912   */\n      tag_179\n        /* \"#utility.yul\":8904:8911   */\n      dup9\n        /* \"#utility.yul\":8895:8901   */\n      dup3\n        /* \"#utility.yul\":8884:8893   */\n      dup10\n        /* \"#utility.yul\":8880:8902   */\n      add\n        /* \"#utility.yul\":8859:8912   */\n      tag_57\n      jump\t// in\n    tag_179:\n        /* \"#utility.yul\":8849:8912   */\n      swap6\n      pop\n        /* \"#utility.yul\":8805:8922   */\n      pop\n        /* \"#utility.yul\":8961:8963   */\n      0x20\n        /* \"#utility.yul\":8987:9040   */\n      tag_180\n        /* \"#utility.yul\":9032:9039   */\n      dup9\n        /* \"#utility.yul\":9023:9029   */\n      dup3\n        /* \"#utility.yul\":9012:9021   */\n      dup10\n        /* \"#utility.yul\":9008:9030   */\n      add\n        /* \"#utility.yul\":8987:9040   */\n      tag_57\n      jump\t// in\n    tag_180:\n        /* \"#utility.yul\":8977:9040   */\n      swap5\n      pop\n        /* \"#utility.yul\":8932:9050   */\n      pop\n        /* \"#utility.yul\":9089:9091   */\n      0x40\n        /* \"#utility.yul\":9115:9168   */\n      tag_181\n        /* \"#utility.yul\":9160:9167   */\n      dup9\n        /* \"#utility.yul\":9151:9157   */\n      dup3\n        /* \"#utility.yul\":9140:9149   */\n      dup10\n        /* \"#utility.yul\":9136:9158   */\n      add\n        /* \"#utility.yul\":9115:9168   */\n      tag_65\n      jump\t// in\n    tag_181:\n        /* \"#utility.yul\":9105:9168   */\n      swap4\n      pop\n        /* \"#utility.yul\":9060:9178   */\n      pop\n        /* \"#utility.yul\":9245:9247   */\n      0x60\n        /* \"#utility.yul\":9234:9243   */\n      dup7\n        /* \"#utility.yul\":9230:9248   */\n      add\n        /* \"#utility.yul\":9217:9249   */\n      calldataload\n        /* \"#utility.yul\":9276:9294   */\n      0xffffffffffffffff\n        /* \"#utility.yul\":9268:9274   */\n      dup2\n        /* \"#utility.yul\":9265:9295   */\n      gt\n        /* \"#utility.yul\":9262:9379   */\n      iszero\n      tag_182\n      jumpi\n        /* \"#utility.yul\":9298:9377   */\n      tag_183\n      tag_53\n      jump\t// in\n    tag_183:\n        /* \"#utility.yul\":9262:9379   */\n    tag_182:\n        /* \"#utility.yul\":9403:9465   */\n      tag_184\n        /* \"#utility.yul\":9457:9464   */\n      dup9\n        /* \"#utility.yul\":9448:9454   */\n      dup3\n        /* \"#utility.yul\":9437:9446   */\n      dup10\n        /* \"#utility.yul\":9433:9455   */\n      add\n        /* \"#utility.yul\":9403:9465   */\n      tag_73\n      jump\t// in\n    tag_184:\n        /* \"#utility.yul\":9393:9465   */\n      swap3\n      pop\n        /* \"#utility.yul\":9188:9475   */\n      pop\n        /* \"#utility.yul\":9542:9545   */\n      0x80\n        /* \"#utility.yul\":9531:9540   */\n      dup7\n        /* \"#utility.yul\":9527:9546   */\n      add\n        /* \"#utility.yul\":9514:9547   */\n      calldataload\n        /* \"#utility.yul\":9574:9592   */\n      0xffffffffffffffff\n        /* \"#utility.yul\":9566:9572   */\n      dup2\n        /* \"#utility.yul\":9563:9593   */\n      gt\n        /* \"#utility.yul\":9560:9677   */\n      iszero\n      tag_185\n      jumpi\n        /* \"#utility.yul\":9596:9675   */\n      tag_186\n      tag_53\n      jump\t// in\n    tag_186:\n        /* \"#utility.yul\":9560:9677   */\n    tag_185:\n        /* \"#utility.yul\":9701:9764   */\n      tag_187\n        /* \"#utility.yul\":9756:9763   */\n      dup9\n        /* \"#utility.yul\":9747:9753   */\n      dup3\n        /* \"#utility.yul\":9736:9745   */\n      dup10\n        /* \"#utility.yul\":9732:9754   */\n      add\n        /* \"#utility.yul\":9701:9764   */\n      tag_76\n      jump\t// in\n    tag_187:\n        /* \"#utility.yul\":9691:9764   */\n      swap2\n      pop\n        /* \"#utility.yul\":9485:9774   */\n      pop\n        /* \"#utility.yul\":8512:9781   */\n      swap3\n      swap6\n      pop\n      swap3\n      swap6\n      swap1\n      swap4\n      pop\n      jump\t// out\n        /* \"#utility.yul\":9787:9905   */\n    tag_77:\n        /* \"#utility.yul\":9874:9898   */\n      tag_189\n        /* \"#utility.yul\":9892:9897   */\n      dup2\n        /* \"#utility.yul\":9874:9898   */\n      tag_55\n      jump\t// in\n    tag_189:\n        /* \"#utility.yul\":9869:9872   */\n      dup3\n        /* \"#utility.yul\":9862:9899   */\n      mstore\n        /* \"#utility.yul\":9787:9905   */\n      pop\n      pop\n      jump\t// out\n        /* \"#utility.yul\":9911:10009   */\n    tag_78:\n        /* \"#utility.yul\":9962:9968   */\n      0x00\n        /* \"#utility.yul\":9996:10001   */\n      dup2\n        /* \"#utility.yul\":9990:10002   */\n      mload\n        /* \"#utility.yul\":9980:10002   */\n      swap1\n      pop\n        /* \"#utility.yul\":9911:10009   */\n      swap2\n      swap1\n      pop\n      jump\t// out\n        /* \"#utility.yul\":10015:10388   */\n    tag_79:\n        /* \"#utility.yul\":10101:10104   */\n      0x00\n        /* \"#utility.yul\":10129:10167   */\n      tag_192\n        /* \"#utility.yul\":10161:10166   */\n      dup3\n        /* \"#utility.yul\":10129:10167   */\n      tag_78\n      jump\t// in\n    tag_192:\n        /* \"#utility.yul\":10183:10253   */\n      tag_193\n        /* \"#utility.yul\":10246:10252   */\n      dup2\n        /* \"#utility.yul\":10241:10244   */\n      dup6\n        /* \"#utility.yul\":10183:10253   */\n      tag_45\n      jump\t// in\n    tag_193:\n        /* \"#utility.yul\":10176:10253   */\n      swap4\n      pop\n        /* \"#utility.yul\":10262:10327   */\n      tag_194\n        /* \"#utility.yul\":10320:10326   */\n      dup2\n        /* \"#utility.yul\":10315:10318   */\n      dup6\n        /* \"#utility.yul\":10308:10312   */\n      0x20\n        /* \"#utility.yul\":10301:10306   */\n      dup7\n        /* \"#utility.yul\":10297:10313   */\n      add\n        /* \"#utility.yul\":10262:10327   */\n      tag_62\n      jump\t// in\n    tag_194:\n        /* \"#utility.yul\":10352:10381   */\n      tag_195\n        /* \"#utility.yul\":10374:10380   */\n      dup2\n        /* \"#utility.yul\":10352:10381   */\n      tag_49\n      jump\t// in\n    tag_195:\n        /* \"#utility.yul\":10347:10350   */\n      dup5\n        /* \"#utility.yul\":10343:10382   */\n      add\n        /* \"#utility.yul\":10336:10382   */\n      swap2\n      pop\n        /* \"#utility.yul\":10105:10388   */\n      pop\n        /* \"#utility.yul\":10015:10388   */\n      swap3\n      swap2\n      pop\n      pop\n      jump\t// out\n        /* \"#utility.yul\":10394:11125   */\n    tag_35:\n        /* \"#utility.yul\":10609:10613   */\n      0x00\n        /* \"#utility.yul\":10647:10650   */\n      0x80\n        /* \"#utility.yul\":10636:10645   */\n      dup3\n        /* \"#utility.yul\":10632:10651   */\n      add\n        /* \"#utility.yul\":10624:10651   */\n      swap1\n      pop\n        /* \"#utility.yul\":10661:10732   */\n      tag_197\n        /* \"#utility.yul\":10729:10730   */\n      0x00\n        /* \"#utility.yul\":10718:10727   */\n      dup4\n        /* \"#utility.yul\":10714:10731   */\n      add\n        /* \"#utility.yul\":10705:10711   */\n      dup8\n        /* \"#utility.yul\":10661:10732   */\n      tag_77\n      jump\t// in\n    tag_197:\n        /* \"#utility.yul\":10742:10814   */\n      tag_198\n        /* \"#utility.yul\":10810:10812   */\n      0x20\n        /* \"#utility.yul\":10799:10808   */\n      dup4\n        /* \"#utility.yul\":10795:10813   */\n      add\n        /* \"#utility.yul\":10786:10792   */\n      dup7\n        /* \"#utility.yul\":10742:10814   */\n      tag_44\n      jump\t// in\n    tag_198:\n        /* \"#utility.yul\":10861:10870   */\n      dup2\n        /* \"#utility.yul\":10855:10859   */\n      dup2\n        /* \"#utility.yul\":10851:10871   */\n      sub\n        /* \"#utility.yul\":10846:10848   */\n      0x40\n        /* \"#utility.yul\":10835:10844   */\n      dup4\n        /* \"#utility.yul\":10831:10849   */\n      add\n        /* \"#utility.yul\":10824:10872   */\n      mstore\n        /* \"#utility.yul\":10889:10965   */\n      tag_199\n        /* \"#utility.yul\":10960:10964   */\n      dup2\n        /* \"#utility.yul\":10951:10957   */\n      dup6\n        /* \"#utility.yul\":10889:10965   */\n      tag_79\n      jump\t// in\n    tag_199:\n        /* \"#utility.yul\":10881:10965   */\n      swap1\n      pop\n        /* \"#utility.yul\":11012:11021   */\n      dup2\n        /* \"#utility.yul\":11006:11010   */\n      dup2\n        /* \"#utility.yul\":11002:11022   */\n      sub\n        /* \"#utility.yul\":10997:10999   */\n      0x60\n        /* \"#utility.yul\":10986:10995   */\n      dup4\n        /* \"#utility.yul\":10982:11000   */\n      add\n        /* \"#utility.yul\":10975:11023   */\n      mstore\n        /* \"#utility.yul\":11040:11118   */\n      tag_200\n        /* \"#utility.yul\":11113:11117   */\n      dup2\n        /* \"#utility.yul\":11104:11110   */\n      dup5\n        /* \"#utility.yul\":11040:11118   */\n      tag_63\n      jump\t// in\n    tag_200:\n        /* \"#utility.yul\":11032:11118   */\n      swap1\n      pop\n        /* \"#utility.yul\":10394:11125   */\n      swap6\n      swap5\n      pop\n      pop\n      pop\n      pop\n      pop\n      jump\t// out\n        /* \"#utility.yul\":11131:11278   */\n    tag_80:\n        /* \"#utility.yul\":11232:11243   */\n      0x00\n        /* \"#utility.yul\":11269:11272   */\n      dup2\n        /* \"#utility.yul\":11254:11272   */\n      swap1\n      pop\n        /* \"#utility.yul\":11131:11278   */\n      swap3\n      swap2\n      pop\n      pop\n      jump\t// out\n        /* \"#utility.yul\":11284:11670   */\n    tag_81:\n        /* \"#utility.yul\":11388:11391   */\n      0x00\n        /* \"#utility.yul\":11416:11454   */\n      tag_203\n        /* \"#utility.yul\":11448:11453   */\n      dup3\n        /* \"#utility.yul\":11416:11454   */\n      tag_78\n      jump\t// in\n    tag_203:\n        /* \"#utility.yul\":11470:11558   */\n      tag_204\n        /* \"#utility.yul\":11551:11557   */\n      dup2\n        /* \"#utility.yul\":11546:11549   */\n      dup6\n        /* \"#utility.yul\":11470:11558   */\n      tag_80\n      jump\t// in\n    tag_204:\n        /* \"#utility.yul\":11463:11558   */\n      swap4\n      pop\n        /* \"#utility.yul\":11567:11632   */\n      tag_205\n        /* \"#utility.yul\":11625:11631   */\n      dup2\n        /* \"#utility.yul\":11620:11623   */\n      dup6\n        /* \"#utility.yul\":11613:11617   */\n      0x20\n        /* \"#utility.yul\":11606:11611   */\n      dup7\n        /* \"#utility.yul\":11602:11618   */\n      add\n        /* \"#utility.yul\":11567:11632   */\n      tag_62\n      jump\t// in\n    tag_205:\n        /* \"#utility.yul\":11657:11663   */\n      dup1\n        /* \"#utility.yul\":11652:11655   */\n      dup5\n        /* \"#utility.yul\":11648:11664   */\n      add\n        /* \"#utility.yul\":11641:11664   */\n      swap2\n      pop\n        /* \"#utility.yul\":11392:11670   */\n      pop\n        /* \"#utility.yul\":11284:11670   */\n      swap3\n      swap2\n      pop\n      pop\n      jump\t// out\n        /* \"#utility.yul\":11676:11947   */\n    tag_37:\n        /* \"#utility.yul\":11806:11809   */\n      0x00\n        /* \"#utility.yul\":11828:11921   */\n      tag_207\n        /* \"#utility.yul\":11917:11920   */\n      dup3\n        /* \"#utility.yul\":11908:11914   */\n      dup5\n        /* \"#utility.yul\":11828:11921   */\n      tag_81\n      jump\t// in\n    tag_207:\n        /* \"#utility.yul\":11821:11921   */\n      swap2\n      pop\n        /* \"#utility.yul\":11938:11941   */\n      dup2\n        /* \"#utility.yul\":11931:11941   */\n      swap1\n      pop\n        /* \"#utility.yul\":11676:11947   */\n      swap3\n      swap2\n      pop\n      pop\n      jump\t// out\n        /* \"#utility.yul\":11953:12360   */\n    tag_42:\n        /* \"#utility.yul\":12086:12090   */\n      0x00\n        /* \"#utility.yul\":12124:12126   */\n      0x40\n        /* \"#utility.yul\":12113:12122   */\n      dup3\n        /* \"#utility.yul\":12109:12127   */\n      add\n        /* \"#utility.yul\":12101:12127   */\n      swap1\n      pop\n        /* \"#utility.yul\":12137:12202   */\n      tag_209\n        /* \"#utility.yul\":12199:12200   */\n      0x00\n        /* \"#utility.yul\":12188:12197   */\n      dup4\n        /* \"#utility.yul\":12184:12201   */\n      add\n        /* \"#utility.yul\":12175:12181   */\n      dup6\n        /* \"#utility.yul\":12137:12202   */\n      tag_59\n      jump\t// in\n    tag_209:\n        /* \"#utility.yul\":12249:12258   */\n      dup2\n        /* \"#utility.yul\":12243:12247   */\n      dup2\n        /* \"#utility.yul\":12239:12259   */\n      sub\n        /* \"#utility.yul\":12234:12236   */\n      0x20\n        /* \"#utility.yul\":12223:12232   */\n      dup4\n        /* \"#utility.yul\":12219:12237   */\n      add\n        /* \"#utility.yul\":12212:12260   */\n      mstore\n        /* \"#utility.yul\":12277:12353   */\n      tag_210\n        /* \"#utility.yul\":12348:12352   */\n      dup2\n        /* \"#utility.yul\":12339:12345   */\n      dup5\n        /* \"#utility.yul\":12277:12353   */\n      tag_79\n      jump\t// in\n    tag_210:\n        /* \"#utility.yul\":12269:12353   */\n      swap1\n      pop\n        /* \"#utility.yul\":11953:12360   */\n      swap4\n      swap3\n      pop\n      pop\n      pop\n      jump\t// out\n\n    auxdata: 0xa2646970667358221220c540977236a61562aaa4fb9be96375a884a018dfc1d1070c6bee9ccc44fea98164736f6c634300081a0033\n}\n",
				"bytecode": {
					"linkReferences": {},
					"object": "6080604052348015600e575f80fd5b506109208061001c5f395ff3fe608060405260043610610037575f3560e01c806316279055146100e0578063e24d02fb1461011c578063f2f387ed146101465761008c565b3661008c573373ffffffffffffffffffffffffffffffffffffffff167f89e8e1406eb88cbdf591b5eeb74b6d10cbda6e6ff4190b83ed226e54a1e6c4fb346040516100829190610346565b60405180910390a2005b3373ffffffffffffffffffffffffffffffffffffffff167f89e8e1406eb88cbdf591b5eeb74b6d10cbda6e6ff4190b83ed226e54a1e6c4fb345f366040516100d6939291906103bc565b60405180910390a2005b3480156100eb575f80fd5b5061010660048036038101906101019190610457565b61016e565b604051610113919061049c565b60405180910390f35b348015610127575f80fd5b5061013061017f565b60405161013d9190610515565b60405180910390f35b348015610151575f80fd5b5061016c6004803603810190610167919061071b565b6101bc565b005b5f80823b90505f8111915050919050565b60606040518060400160405280601381526020017f6d616c6963696f757343616c6c6261636b282900000000000000000000000000815250905090565b5f808673ffffffffffffffffffffffffffffffffffffffff16868686866040516024016101ec949392919061081b565b6040516020818303038152906040527ff6368f8a000000000000000000000000000000000000000000000000000000007bffffffffffffffffffffffffffffffffffffffffffffffffffffffff19166020820180517bffffffffffffffffffffffffffffffffffffffffffffffffffffffff838183161783525050505060405161027691906108a6565b5f604051808303815f865af19150503d805f81146102af576040519150601f19603f3d011682016040523d82523d5f602084013e6102b4565b606091505b50915091507fbc85f0aabee3bfa693b0698c430c040cb3f3ded7153467c8bed6b19a692a2fb782826040516102ea9291906108bc565b60405180910390a150505050505050565b5f819050919050565b61030d816102fb565b82525050565b5f82825260208201905092915050565b50565b5f6103315f83610313565b915061033c82610323565b5f82019050919050565b5f6040820190506103595f830184610304565b818103602083015261036a81610326565b905092915050565b828183375f83830152505050565b5f601f19601f8301169050919050565b5f61039b8385610313565b93506103a8838584610372565b6103b183610380565b840190509392505050565b5f6040820190506103cf5f830186610304565b81810360208301526103e2818486610390565b9050949350505050565b5f604051905090565b5f80fd5b5f80fd5b5f73ffffffffffffffffffffffffffffffffffffffff82169050919050565b5f610426826103fd565b9050919050565b6104368161041c565b8114610440575f80fd5b50565b5f813590506104518161042d565b92915050565b5f6020828403121561046c5761046b6103f5565b5b5f61047984828501610443565b91505092915050565b5f8115159050919050565b61049681610482565b82525050565b5f6020820190506104af5f83018461048d565b92915050565b5f81519050919050565b5f82825260208201905092915050565b8281835e5f83830152505050565b5f6104e7826104b5565b6104f181856104bf565b93506105018185602086016104cf565b61050a81610380565b840191505092915050565b5f6020820190508181035f83015261052d81846104dd565b905092915050565b61053e816102fb565b8114610548575f80fd5b50565b5f8135905061055981610535565b92915050565b5f80fd5b5f80fd5b7f4e487b71000000000000000000000000000000000000000000000000000000005f52604160045260245ffd5b61059d82610380565b810181811067ffffffffffffffff821117156105bc576105bb610567565b5b80604052505050565b5f6105ce6103ec565b90506105da8282610594565b919050565b5f67ffffffffffffffff8211156105f9576105f8610567565b5b61060282610380565b9050602081019050919050565b5f61062161061c846105df565b6105c5565b90508281526020810184848401111561063d5761063c610563565b5b610648848285610372565b509392505050565b5f82601f8301126106645761066361055f565b5b813561067484826020860161060f565b91505092915050565b5f67ffffffffffffffff82111561069757610696610567565b5b6106a082610380565b9050602081019050919050565b5f6106bf6106ba8461067d565b6105c5565b9050828152602081018484840111156106db576106da610563565b5b6106e6848285610372565b509392505050565b5f82601f8301126107025761070161055f565b5b81356107128482602086016106ad565b91505092915050565b5f805f805f60a08688031215610734576107336103f5565b5b5f61074188828901610443565b955050602061075288828901610443565b94505060406107638882890161054b565b935050606086013567ffffffffffffffff811115610784576107836103f9565b5b61079088828901610650565b925050608086013567ffffffffffffffff8111156107b1576107b06103f9565b5b6107bd888289016106ee565b9150509295509295909350565b6107d38161041c565b82525050565b5f81519050919050565b5f6107ed826107d9565b6107f78185610313565b93506108078185602086016104cf565b61081081610380565b840191505092915050565b5f60808201905061082e5f8301876107ca565b61083b6020830186610304565b818103604083015261084d81856107e3565b9050818103606083015261086181846104dd565b905095945050505050565b5f81905092915050565b5f610880826107d9565b61088a818561086c565b935061089a8185602086016104cf565b80840191505092915050565b5f6108b18284610876565b915081905092915050565b5f6040820190506108cf5f83018561048d565b81810360208301526108e181846107e3565b9050939250505056fea2646970667358221220c540977236a61562aaa4fb9be96375a884a018dfc1d1070c6bee9ccc44fea98164736f6c634300081a0033",
					"opcodes": "PUSH1 0x80 PUSH1 0x40 MSTORE CALLVALUE DUP1 ISZERO PUSH1 0xE JUMPI PUSH0 DUP1 REVERT JUMPDEST POP PUSH2 0x920 DUP1 PUSH2 0x1C PUSH0 CODECOPY PUSH0 RETURN INVALID PUSH1 0x80 PUSH1 0x40 MSTORE PUSH1 0x4 CALLDATASIZE LT PUSH2 0x37 JUMPI PUSH0 CALLDATALOAD PUSH1 0xE0 SHR DUP1 PUSH4 0x16279055 EQ PUSH2 0xE0 JUMPI DUP1 PUSH4 0xE24D02FB EQ PUSH2 0x11C JUMPI DUP1 PUSH4 0xF2F387ED EQ PUSH2 0x146 JUMPI PUSH2 0x8C JUMP JUMPDEST CALLDATASIZE PUSH2 0x8C JUMPI CALLER PUSH20 0xFFFFFFFFFFFFFFFFFFFFFFFFFFFFFFFFFFFFFFFF AND PUSH32 0x89E8E1406EB88CBDF591B5EEB74B6D10CBDA6E6FF4190B83ED226E54A1E6C4FB CALLVALUE PUSH1 0x40 MLOAD PUSH2 0x82 SWAP2 SWAP1 PUSH2 0x346 JUMP JUMPDEST PUSH1 0x40 MLOAD DUP1 SWAP2 SUB SWAP1 LOG2 STOP JUMPDEST CALLER PUSH20 0xFFFFFFFFFFFFFFFFFFFFFFFFFFFFFFFFFFFFFFFF AND PUSH32 0x89E8E1406EB88CBDF591B5EEB74B6D10CBDA6E6FF4190B83ED226E54A1E6C4FB CALLVALUE PUSH0 CALLDATASIZE PUSH1 0x40 MLOAD PUSH2 0xD6 SWAP4 SWAP3 SWAP2 SWAP1 PUSH2 0x3BC JUMP JUMPDEST PUSH1 0x40 MLOAD DUP1 SWAP2 SUB SWAP1 LOG2 STOP JUMPDEST CALLVALUE DUP1 ISZERO PUSH2 0xEB JUMPI PUSH0 DUP1 REVERT JUMPDEST POP PUSH2 0x106 PUSH1 0x4 DUP1 CALLDATASIZE SUB DUP2 ADD SWAP1 PUSH2 0x101 SWAP2 SWAP1 PUSH2 0x457 JUMP JUMPDEST PUSH2 0x16E JUMP JUMPDEST PUSH1 0x40 MLOAD PUSH2 0x113 SWAP2 SWAP1 PUSH2 0x49C JUMP JUMPDEST PUSH1 0x40 MLOAD DUP1 SWAP2 SUB SWAP1 RETURN JUMPDEST CALLVALUE DUP1 ISZERO PUSH2 0x127 JUMPI PUSH0 DUP1 REVERT JUMPDEST POP PUSH2 0x130 PUSH2 0x17F JUMP JUMPDEST PUSH1 0x40 MLOAD PUSH2 0x13D SWAP2 SWAP1 PUSH2 0x515 JUMP JUMPDEST PUSH1 0x40 MLOAD DUP1 SWAP2 SUB SWAP1 RETURN JUMPDEST CALLVALUE DUP1 ISZERO PUSH2 0x151 JUMPI PUSH0 DUP1 REVERT JUMPDEST POP PUSH2 0x16C PUSH1 0x4 DUP1 CALLDATASIZE SUB DUP2 ADD SWAP1 PUSH2 0x167 SWAP2 SWAP1 PUSH2 0x71B JUMP JUMPDEST PUSH2 0x1BC JUMP JUMPDEST STOP JUMPDEST PUSH0 DUP1 DUP3 EXTCODESIZE SWAP1 POP PUSH0 DUP2 GT SWAP2 POP POP SWAP2 SWAP1 POP JUMP JUMPDEST PUSH1 0x60 PUSH1 0x40 MLOAD DUP1 PUSH1 0x40 ADD PUSH1 0x40 MSTORE DUP1 PUSH1 0x13 DUP2 MSTORE PUSH1 0x20 ADD PUSH32 0x6D616C6963696F757343616C6C6261636B282900000000000000000000000000 DUP2 MSTORE POP SWAP1 POP SWAP1 JUMP JUMPDEST PUSH0 DUP1 DUP7 PUSH20 0xFFFFFFFFFFFFFFFFFFFFFFFFFFFFFFFFFFFFFFFF AND DUP7 DUP7 DUP7 DUP7 PUSH1 0x40 MLOAD PUSH1 0x24 ADD PUSH2 0x1EC SWAP5 SWAP4 SWAP3 SWAP2 SWAP1 PUSH2 0x81B JUMP JUMPDEST PUSH1 0x40 MLOAD PUSH1 0x20 DUP2 DUP4 SUB SUB DUP2 MSTORE SWAP1 PUSH1 0x40 MSTORE PUSH32 0xF6368F8A00000000000000000000000000000000000000000000000000000000 PUSH28 0xFFFFFFFFFFFFFFFFFFFFFFFFFFFFFFFFFFFFFFFFFFFFFFFFFFFFFFFF NOT AND PUSH1 0x20 DUP3 ADD DUP1 MLOAD PUSH28 0xFFFFFFFFFFFFFFFFFFFFFFFFFFFFFFFFFFFFFFFFFFFFFFFFFFFFFFFF DUP4 DUP2 DUP4 AND OR DUP4 MSTORE POP POP POP POP PUSH1 0x40 MLOAD PUSH2 0x276 SWAP2 SWAP1 PUSH2 0x8A6 JUMP JUMPDEST PUSH0 PUSH1 0x40 MLOAD DUP1 DUP4 SUB DUP2 PUSH0 DUP7 GAS CALL SWAP2 POP POP RETURNDATASIZE DUP1 PUSH0 DUP2 EQ PUSH2 0x2AF JUMPI PUSH1 0x40 MLOAD SWAP2 POP PUSH1 0x1F NOT PUSH1 0x3F RETURNDATASIZE ADD AND DUP3 ADD PUSH1 0x40 MSTORE RETURNDATASIZE DUP3 MSTORE RETURNDATASIZE PUSH0 PUSH1 0x20 DUP5 ADD RETURNDATACOPY PUSH2 0x2B4 JUMP JUMPDEST PUSH1 0x60 SWAP2 POP JUMPDEST POP SWAP2 POP SWAP2 POP PUSH32 0xBC85F0AABEE3BFA693B0698C430C040CB3F3DED7153467C8BED6B19A692A2FB7 DUP3 DUP3 PUSH1 0x40 MLOAD PUSH2 0x2EA SWAP3 SWAP2 SWAP1 PUSH2 0x8BC JUMP JUMPDEST PUSH1 0x40 MLOAD DUP1 SWAP2 SUB SWAP1 LOG1 POP POP POP POP POP POP POP JUMP JUMPDEST PUSH0 DUP2 SWAP1 POP SWAP2 SWAP1 POP JUMP JUMPDEST PUSH2 0x30D DUP2 PUSH2 0x2FB JUMP JUMPDEST DUP3 MSTORE POP POP JUMP JUMPDEST PUSH0 DUP3 DUP3 MSTORE PUSH1 0x20 DUP3 ADD SWAP1 POP SWAP3 SWAP2 POP POP JUMP JUMPDEST POP JUMP JUMPDEST PUSH0 PUSH2 0x331 PUSH0 DUP4 PUSH2 0x313 JUMP JUMPDEST SWAP2 POP PUSH2 0x33C DUP3 PUSH2 0x323 JUMP JUMPDEST PUSH0 DUP3 ADD SWAP1 POP SWAP2 SWAP1 POP JUMP JUMPDEST PUSH0 PUSH1 0x40 DUP3 ADD SWAP1 POP PUSH2 0x359 PUSH0 DUP4 ADD DUP5 PUSH2 0x304 JUMP JUMPDEST DUP2 DUP2 SUB PUSH1 0x20 DUP4 ADD MSTORE PUSH2 0x36A DUP2 PUSH2 0x326 JUMP JUMPDEST SWAP1 POP SWAP3 SWAP2 POP POP JUMP JUMPDEST DUP3 DUP2 DUP4 CALLDATACOPY PUSH0 DUP4 DUP4 ADD MSTORE POP POP POP JUMP JUMPDEST PUSH0 PUSH1 0x1F NOT PUSH1 0x1F DUP4 ADD AND SWAP1 POP SWAP2 SWAP1 POP JUMP JUMPDEST PUSH0 PUSH2 0x39B DUP4 DUP6 PUSH2 0x313 JUMP JUMPDEST SWAP4 POP PUSH2 0x3A8 DUP4 DUP6 DUP5 PUSH2 0x372 JUMP JUMPDEST PUSH2 0x3B1 DUP4 PUSH2 0x380 JUMP JUMPDEST DUP5 ADD SWAP1 POP SWAP4 SWAP3 POP POP POP JUMP JUMPDEST PUSH0 PUSH1 0x40 DUP3 ADD SWAP1 POP PUSH2 0x3CF PUSH0 DUP4 ADD DUP7 PUSH2 0x304 JUMP JUMPDEST DUP2 DUP2 SUB PUSH1 0x20 DUP4 ADD MSTORE PUSH2 0x3E2 DUP2 DUP5 DUP7 PUSH2 0x390 JUMP JUMPDEST SWAP1 POP SWAP5 SWAP4 POP POP POP POP JUMP JUMPDEST PUSH0 PUSH1 0x40 MLOAD SWAP1 POP SWAP1 JUMP JUMPDEST PUSH0 DUP1 REVERT JUMPDEST PUSH0 DUP1 REVERT JUMPDEST PUSH0 PUSH20 0xFFFFFFFFFFFFFFFFFFFFFFFFFFFFFFFFFFFFFFFF DUP3 AND SWAP1 POP SWAP2 SWAP1 POP JUMP JUMPDEST PUSH0 PUSH2 0x426 DUP3 PUSH2 0x3FD JUMP JUMPDEST SWAP1 POP SWAP2 SWAP1 POP JUMP JUMPDEST PUSH2 0x436 DUP2 PUSH2 0x41C JUMP JUMPDEST DUP2 EQ PUSH2 0x440 JUMPI PUSH0 DUP1 REVERT JUMPDEST POP JUMP JUMPDEST PUSH0 DUP2 CALLDATALOAD SWAP1 POP PUSH2 0x451 DUP2 PUSH2 0x42D JUMP JUMPDEST SWAP3 SWAP2 POP POP JUMP JUMPDEST PUSH0 PUSH1 0x20 DUP3 DUP5 SUB SLT ISZERO PUSH2 0x46C JUMPI PUSH2 0x46B PUSH2 0x3F5 JUMP JUMPDEST JUMPDEST PUSH0 PUSH2 0x479 DUP5 DUP3 DUP6 ADD PUSH2 0x443 JUMP JUMPDEST SWAP2 POP POP SWAP3 SWAP2 POP POP JUMP JUMPDEST PUSH0 DUP2 ISZERO ISZERO SWAP1 POP SWAP2 SWAP1 POP JUMP JUMPDEST PUSH2 0x496 DUP2 PUSH2 0x482 JUMP JUMPDEST DUP3 MSTORE POP POP JUMP JUMPDEST PUSH0 PUSH1 0x20 DUP3 ADD SWAP1 POP PUSH2 0x4AF PUSH0 DUP4 ADD DUP5 PUSH2 0x48D JUMP JUMPDEST SWAP3 SWAP2 POP POP JUMP JUMPDEST PUSH0 DUP2 MLOAD SWAP1 POP SWAP2 SWAP1 POP JUMP JUMPDEST PUSH0 DUP3 DUP3 MSTORE PUSH1 0x20 DUP3 ADD SWAP1 POP SWAP3 SWAP2 POP POP JUMP JUMPDEST DUP3 DUP2 DUP4 MCOPY PUSH0 DUP4 DUP4 ADD MSTORE POP POP POP JUMP JUMPDEST PUSH0 PUSH2 0x4E7 DUP3 PUSH2 0x4B5 JUMP JUMPDEST PUSH2 0x4F1 DUP2 DUP6 PUSH2 0x4BF JUMP JUMPDEST SWAP4 POP PUSH2 0x501 DUP2 DUP6 PUSH1 0x20 DUP7 ADD PUSH2 0x4CF JUMP JUMPDEST PUSH2 0x50A DUP2 PUSH2 0x380 JUMP JUMPDEST DUP5 ADD SWAP2 POP POP SWAP3 SWAP2 POP POP JUMP JUMPDEST PUSH0 PUSH1 0x20 DUP3 ADD SWAP1 POP DUP2 DUP2 SUB PUSH0 DUP4 ADD MSTORE PUSH2 0x52D DUP2 DUP5 PUSH2 0x4DD JUMP JUMPDEST SWAP1 POP SWAP3 SWAP2 POP POP JUMP JUMPDEST PUSH2 0x53E DUP2 PUSH2 0x2FB JUMP JUMPDEST DUP2 EQ PUSH2 0x548 JUMPI PUSH0 DUP1 REVERT JUMPDEST POP JUMP JUMPDEST PUSH0 DUP2 CALLDATALOAD SWAP1 POP PUSH2 0x559 DUP2 PUSH2 0x535 JUMP JUMPDEST SWAP3 SWAP2 POP POP JUMP JUMPDEST PUSH0 DUP1 REVERT JUMPDEST PUSH0 DUP1 REVERT JUMPDEST PUSH32 0x4E487B7100000000000000000000000000000000000000000000000000000000 PUSH0 MSTORE PUSH1 0x41 PUSH1 0x4 MSTORE PUSH1 0x24 PUSH0 REVERT JUMPDEST PUSH2 0x59D DUP3 PUSH2 0x380 JUMP JUMPDEST DUP2 ADD DUP2 DUP2 LT PUSH8 0xFFFFFFFFFFFFFFFF DUP3 GT OR ISZERO PUSH2 0x5BC JUMPI PUSH2 0x5BB PUSH2 0x567 JUMP JUMPDEST JUMPDEST DUP1 PUSH1 0x40 MSTORE POP POP POP JUMP JUMPDEST PUSH0 PUSH2 0x5CE PUSH2 0x3EC JUMP JUMPDEST SWAP1 POP PUSH2 0x5DA DUP3 DUP3 PUSH2 0x594 JUMP JUMPDEST SWAP2 SWAP1 POP JUMP JUMPDEST PUSH0 PUSH8 0xFFFFFFFFFFFFFFFF DUP3 GT ISZERO PUSH2 0x5F9 JUMPI PUSH2 0x5F8 PUSH2 0x567 JUMP JUMPDEST JUMPDEST PUSH2 0x602 DUP3 PUSH2 0x380 JUMP JUMPDEST SWAP1 POP PUSH1 0x20 DUP2 ADD SWAP1 POP SWAP2 SWAP1 POP JUMP JUMPDEST PUSH0 PUSH2 0x621 PUSH2 0x61C DUP5 PUSH2 0x5DF JUMP JUMPDEST PUSH2 0x5C5 JUMP JUMPDEST SWAP1 POP DUP3 DUP2 MSTORE PUSH1 0x20 DUP2 ADD DUP5 DUP5 DUP5 ADD GT ISZERO PUSH2 0x63D JUMPI PUSH2 0x63C PUSH2 0x563 JUMP JUMPDEST JUMPDEST PUSH2 0x648 DUP5 DUP3 DUP6 PUSH2 0x372 JUMP JUMPDEST POP SWAP4 SWAP3 POP POP POP JUMP JUMPDEST PUSH0 DUP3 PUSH1 0x1F DUP4 ADD SLT PUSH2 0x664 JUMPI PUSH2 0x663 PUSH2 0x55F JUMP JUMPDEST JUMPDEST DUP2 CALLDATALOAD PUSH2 0x674 DUP5 DUP3 PUSH1 0x20 DUP7 ADD PUSH2 0x60F JUMP JUMPDEST SWAP2 POP POP SWAP3 SWAP2 POP POP JUMP JUMPDEST PUSH0 PUSH8 0xFFFFFFFFFFFFFFFF DUP3 GT ISZERO PUSH2 0x697 JUMPI PUSH2 0x696 PUSH2 0x567 JUMP JUMPDEST JUMPDEST PUSH2 0x6A0 DUP3 PUSH2 0x380 JUMP JUMPDEST SWAP1 POP PUSH1 0x20 DUP2 ADD SWAP1 POP SWAP2 SWAP1 POP JUMP JUMPDEST PUSH0 PUSH2 0x6BF PUSH2 0x6BA DUP5 PUSH2 0x67D JUMP JUMPDEST PUSH2 0x5C5 JUMP JUMPDEST SWAP1 POP DUP3 DUP2 MSTORE PUSH1 0x20 DUP2 ADD DUP5 DUP5 DUP5 ADD GT ISZERO PUSH2 0x6DB JUMPI PUSH2 0x6DA PUSH2 0x563 JUMP JUMPDEST JUMPDEST PUSH2 0x6E6 DUP5 DUP3 DUP6 PUSH2 0x372 JUMP JUMPDEST POP SWAP4 SWAP3 POP POP POP JUMP JUMPDEST PUSH0 DUP3 PUSH1 0x1F DUP4 ADD SLT PUSH2 0x702 JUMPI PUSH2 0x701 PUSH2 0x55F JUMP JUMPDEST JUMPDEST DUP2 CALLDATALOAD PUSH2 0x712 DUP5 DUP3 PUSH1 0x20 DUP7 ADD PUSH2 0x6AD JUMP JUMPDEST SWAP2 POP POP SWAP3 SWAP2 POP POP JUMP JUMPDEST PUSH0 DUP1 PUSH0 DUP1 PUSH0 PUSH1 0xA0 DUP7 DUP9 SUB SLT ISZERO PUSH2 0x734 JUMPI PUSH2 0x733 PUSH2 0x3F5 JUMP JUMPDEST JUMPDEST PUSH0 PUSH2 0x741 DUP9 DUP3 DUP10 ADD PUSH2 0x443 JUMP JUMPDEST SWAP6 POP POP PUSH1 0x20 PUSH2 0x752 DUP9 DUP3 DUP10 ADD PUSH2 0x443 JUMP JUMPDEST SWAP5 POP POP PUSH1 0x40 PUSH2 0x763 DUP9 DUP3 DUP10 ADD PUSH2 0x54B JUMP JUMPDEST SWAP4 POP POP PUSH1 0x60 DUP7 ADD CALLDATALOAD PUSH8 0xFFFFFFFFFFFFFFFF DUP2 GT ISZERO PUSH2 0x784 JUMPI PUSH2 0x783 PUSH2 0x3F9 JUMP JUMPDEST JUMPDEST PUSH2 0x790 DUP9 DUP3 DUP10 ADD PUSH2 0x650 JUMP JUMPDEST SWAP3 POP POP PUSH1 0x80 DUP7 ADD CALLDATALOAD PUSH8 0xFFFFFFFFFFFFFFFF DUP2 GT ISZERO PUSH2 0x7B1 JUMPI PUSH2 0x7B0 PUSH2 0x3F9 JUMP JUMPDEST JUMPDEST PUSH2 0x7BD DUP9 DUP3 DUP10 ADD PUSH2 0x6EE JUMP JUMPDEST SWAP2 POP POP SWAP3 SWAP6 POP SWAP3 SWAP6 SWAP1 SWAP4 POP JUMP JUMPDEST PUSH2 0x7D3 DUP2 PUSH2 0x41C JUMP JUMPDEST DUP3 MSTORE POP POP JUMP JUMPDEST PUSH0 DUP2 MLOAD SWAP1 POP SWAP2 SWAP1 POP JUMP JUMPDEST PUSH0 PUSH2 0x7ED DUP3 PUSH2 0x7D9 JUMP JUMPDEST PUSH2 0x7F7 DUP2 DUP6 PUSH2 0x313 JUMP JUMPDEST SWAP4 POP PUSH2 0x807 DUP2 DUP6 PUSH1 0x20 DUP7 ADD PUSH2 0x4CF JUMP JUMPDEST PUSH2 0x810 DUP2 PUSH2 0x380 JUMP JUMPDEST DUP5 ADD SWAP2 POP POP SWAP3 SWAP2 POP POP JUMP JUMPDEST PUSH0 PUSH1 0x80 DUP3 ADD SWAP1 POP PUSH2 0x82E PUSH0 DUP4 ADD DUP8 PUSH2 0x7CA JUMP JUMPDEST PUSH2 0x83B PUSH1 0x20 DUP4 ADD DUP7 PUSH2 0x304 JUMP JUMPDEST DUP2 DUP2 SUB PUSH1 0x40 DUP4 ADD MSTORE PUSH2 0x84D DUP2 DUP6 PUSH2 0x7E3 JUMP JUMPDEST SWAP1 POP DUP2 DUP2 SUB PUSH1 0x60 DUP4 ADD MSTORE PUSH2 0x861 DUP2 DUP5 PUSH2 0x4DD JUMP JUMPDEST SWAP1 POP SWAP6 SWAP5 POP POP POP POP POP JUMP JUMPDEST PUSH0 DUP2 SWAP1 POP SWAP3 SWAP2 POP POP JUMP JUMPDEST PUSH0 PUSH2 0x880 DUP3 PUSH2 0x7D9 JUMP JUMPDEST PUSH2 0x88A DUP2 DUP6 PUSH2 0x86C JUMP JUMPDEST SWAP4 POP PUSH2 0x89A DUP2 DUP6 PUSH1 0x20 DUP7 ADD PUSH2 0x4CF JUMP JUMPDEST DUP1 DUP5 ADD SWAP2 POP POP SWAP3 SWAP2 POP POP JUMP JUMPDEST PUSH0 PUSH2 0x8B1 DUP3 DUP5 PUSH2 0x876 JUMP JUMPDEST SWAP2 POP DUP2 SWAP1 POP SWAP3 SWAP2 POP POP JUMP JUMPDEST PUSH0 PUSH1 0x40 DUP3 ADD SWAP1 POP PUSH2 0x8CF PUSH0 DUP4 ADD DUP6 PUSH2 0x48D JUMP JUMPDEST DUP2 DUP2 SUB PUSH1 0x20 DUP4 ADD MSTORE PUSH2 0x8E1 DUP2 DUP5 PUSH2 0x7E3 JUMP JUMPDEST SWAP1 POP SWAP4 SWAP3 POP POP POP JUMP INVALID LOG2 PUSH5 0x6970667358 0x22 SLT KECCAK256 0xC5 BLOCKHASH SWAP8 PUSH19 0x36A61562AAA4FB9BE96375A884A018DFC1D107 0xC PUSH12 0xEE9CCC44FEA98164736F6C63 NUMBER STOP ADDMOD BYTE STOP CALLER "
				},
				"gasEstimates": {
					"creation": {
						"codeDepositCost": "467200",
						"executionCost": "497",
						"totalCost": "467697"
					},
					"external": {
						"": "infinite",
						"isContract(address)": "3243",
						"maliciousCallback()": "infinite",
						"testTransfer(address,address,uint256,bytes,string)": "infinite"
					}
				},
				"methodIdentifiers": {
					"isContract(address)": "16279055",
					"maliciousCallback()": "e24d02fb",
					"testTransfer(address,address,uint256,bytes,string)": "f2f387ed"
				}
			},
			"storageLayout": {
				"storage": [],
				"types": null
			},
			"userdoc": {
				"kind": "user",
				"methods": {},
				"version": 1
			}
		}
	}
}