{
	"contracts/VulnerableERC223.sol": {
		"VulnerableERC223": {
			"abi": [
				{
					"inputs": [],
					"stateMutability": "nonpayable",
					"type": "constructor"
				},
				{
					"anonymous": false,
					"inputs": [
						{
							"indexed": true,
							"internalType": "address",
							"name": "from",
							"type": "address"
						},
						{
							"indexed": true,
							"internalType": "address",
							"name": "to",
							"type": "address"
						},
						{
							"indexed": false,
							"internalType": "uint256",
							"name": "value",
							"type": "uint256"
						}
					],
					"name": "Transfer",
					"type": "event"
				},
				{
					"anonymous": false,
					"inputs": [
						{
							"indexed": true,
							"internalType": "address",
							"name": "from",
							"type": "address"
						},
						{
							"indexed": true,
							"internalType": "address",
							"name": "to",
							"type": "address"
						},
						{
							"indexed": false,
							"internalType": "uint256",
							"name": "value",
							"type": "uint256"
						},
						{
							"indexed": false,
							"internalType": "bytes",
							"name": "data",
							"type": "bytes"
						}
					],
					"name": "Transfer",
					"type": "event"
				},
				{
					"inputs": [
						{
							"internalType": "address",
							"name": "",
							"type": "address"
						}
					],
					"name": "balanceOf",
					"outputs": [
						{
							"internalType": "uint256",
							"name": "",
							"type": "uint256"
						}
					],
					"stateMutability": "view",
					"type": "function"
				},
				{
					"inputs": [
						{
							"internalType": "address",
							"name": "",
							"type": "address"
						}
					],
					"name": "frozenAccount",
					"outputs": [
						{
							"internalType": "bool",
							"name": "",
							"type": "bool"
						}
					],
					"stateMutability": "view",
					"type": "function"
				},
				{
					"inputs": [
						{
							"internalType": "address",
							"name": "_to",
							"type": "address"
						},
						{
							"internalType": "uint256",
							"name": "_value",
							"type": "uint256"
						},
						{
							"internalType": "bytes",
							"name": "_data",
							"type": "bytes"
						},
						{
							"internalType": "string",
							"name": "_custom_fallback",
							"type": "string"
						}
					],
					"name": "transfer",
					"outputs": [
						{
							"internalType": "bool",
							"name": "",
							"type": "bool"
						}
					],
					"stateMutability": "nonpayable",
					"type": "function"
				},
				{
					"inputs": [
						{
							"internalType": "address",
							"name": "",
							"type": "address"
						}
					],
					"name": "unlockUnixTime",
					"outputs": [
						{
							"internalType": "uint256",
							"name": "",
							"type": "uint256"
						}
					],
					"stateMutability": "view",
					"type": "function"
				}
			],
			"devdoc": {
				"kind": "dev",
				"methods": {},
				"version": 1
			},
			"evm": {
				"assembly": "    /* \"contracts/VulnerableERC223.sol\":57:2239  contract VulnerableERC223 {... */\n  mstore(0x40, 0x80)\n    /* \"contracts/VulnerableERC223.sol\":417:523  constructor() {... */\n  callvalue\n  dup1\n  iszero\n  tag_1\n  jumpi\n  0x00\n  dup1\n  revert\ntag_1:\n  pop\n    /* \"contracts/VulnerableERC223.sol\":465:481  1000000 * 10**18 */\n  0xd3c21bcecceda1000000\n    /* \"contracts/VulnerableERC223.sol\":441:450  balanceOf */\n  0x00\n    /* \"contracts/VulnerableERC223.sol\":441:462  balanceOf[msg.sender] */\n  dup1\n    /* \"contracts/VulnerableERC223.sol\":451:461  msg.sender */\n  caller\n    /* \"contracts/VulnerableERC223.sol\":441:462  balanceOf[msg.sender] */\n  0xffffffffffffffffffffffffffffffffffffffff\n  and\n  0xffffffffffffffffffffffffffffffffffffffff\n  and\n  dup2\n  mstore\n  0x20\n  add\n  swap1\n  dup2\n  mstore\n  0x20\n  add\n  0x00\n  keccak256\n    /* \"contracts/VulnerableERC223.sol\":441:481  balanceOf[msg.sender] = 1000000 * 10**18 */\n  dup2\n  swap1\n  sstore\n  pop\n    /* \"contracts/VulnerableERC223.sol\":57:2239  contract VulnerableERC223 {... */\n  dataSize(sub_0)\n  dup1\n  dataOffset(sub_0)\n  0x00\n  codecopy\n  0x00\n  return\nstop\n\nsub_0: assembly {\n        /* \"contracts/VulnerableERC223.sol\":57:2239  contract VulnerableERC223 {... */\n      mstore(0x40, 0x80)\n      callvalue\n      dup1\n      iszero\n      tag_1\n      jumpi\n      0x00\n      dup1\n      revert\n    tag_1:\n      pop\n      jumpi(tag_2, lt(calldatasize, 0x04))\n      shr(0xe0, calldataload(0x00))\n      dup1\n      0x70a08231\n      eq\n      tag_3\n      jumpi\n      dup1\n      0xb414d4b6\n      eq\n      tag_4\n      jumpi\n      dup1\n      0xcbbe974b\n      eq\n      tag_5\n      jumpi\n      dup1\n      0xf6368f8a\n      eq\n      tag_6\n      jumpi\n    tag_2:\n      0x00\n      dup1\n      revert\n        /* \"contracts/VulnerableERC223.sol\":89:133  mapping(address => uint256) public balanceOf */\n    tag_3:\n      tag_7\n      0x04\n      dup1\n      calldatasize\n      sub\n      dup2\n      add\n      swap1\n      tag_8\n      swap2\n      swap1\n      tag_9\n      jump\t// in\n    tag_8:\n      tag_10\n      jump\t// in\n    tag_7:\n      mload(0x40)\n      tag_11\n      swap2\n      swap1\n      tag_12\n      jump\t// in\n    tag_11:\n      mload(0x40)\n      dup1\n      swap2\n      sub\n      swap1\n      return\n        /* \"contracts/VulnerableERC223.sol\":139:184  mapping(address => bool) public frozenAccount */\n    tag_4:\n      tag_13\n      0x04\n      dup1\n      calldatasize\n      sub\n      dup2\n      add\n      swap1\n      tag_14\n      swap2\n      swap1\n      tag_9\n      jump\t// in\n    tag_14:\n      tag_15\n      jump\t// in\n    tag_13:\n      mload(0x40)\n      tag_16\n      swap2\n      swap1\n      tag_17\n      jump\t// in\n    tag_16:\n      mload(0x40)\n      dup1\n      swap2\n      sub\n      swap1\n      return\n        /* \"contracts/VulnerableERC223.sol\":190:239  mapping(address => uint256) public unlockUnixTime */\n    tag_5:\n      tag_18\n      0x04\n      dup1\n      calldatasize\n      sub\n      dup2\n      add\n      swap1\n      tag_19\n      swap2\n      swap1\n      tag_9\n      jump\t// in\n    tag_19:\n      tag_20\n      jump\t// in\n    tag_18:\n      mload(0x40)\n      tag_21\n      swap2\n      swap1\n      tag_12\n      jump\t// in\n    tag_21:\n      mload(0x40)\n      dup1\n      swap2\n      sub\n      swap1\n      return\n        /* \"contracts/VulnerableERC223.sol\":1083:2237  function transfer(address _to, uint _value, bytes memory _data, string memory _custom_fallback) public returns (bool) {... */\n    tag_6:\n      tag_22\n      0x04\n      dup1\n      calldatasize\n      sub\n      dup2\n      add\n      swap1\n      tag_23\n      swap2\n      swap1\n      tag_24\n      jump\t// in\n    tag_23:\n      tag_25\n      jump\t// in\n    tag_22:\n      mload(0x40)\n      tag_26\n      swap2\n      swap1\n      tag_17\n      jump\t// in\n    tag_26:\n      mload(0x40)\n      dup1\n      swap2\n      sub\n      swap1\n      return\n        /* \"contracts/VulnerableERC223.sol\":89:133  mapping(address => uint256) public balanceOf */\n    tag_10:\n      mstore(0x20, 0x00)\n      dup1\n      0x00\n      mstore\n      keccak256(0x00, 0x40)\n      0x00\n      swap2\n      pop\n      swap1\n      pop\n      sload\n      dup2\n      jump\t// out\n        /* \"contracts/VulnerableERC223.sol\":139:184  mapping(address => bool) public frozenAccount */\n    tag_15:\n      mstore(0x20, 0x01)\n      dup1\n      0x00\n      mstore\n      keccak256(0x00, 0x40)\n      0x00\n      swap2\n      pop\n      sload\n      swap1\n      0x0100\n      exp\n      swap1\n      div\n      0xff\n      and\n      dup2\n      jump\t// out\n        /* \"contracts/VulnerableERC223.sol\":190:239  mapping(address => uint256) public unlockUnixTime */\n    tag_20:\n      mstore(0x20, 0x02)\n      dup1\n      0x00\n      mstore\n      keccak256(0x00, 0x40)\n      0x00\n      swap2\n      pop\n      swap1\n      pop\n      sload\n      dup2\n      jump\t// out\n        /* \"contracts/VulnerableERC223.sol\":1083:2237  function transfer(address _to, uint _value, bytes memory _data, string memory _custom_fallback) public returns (bool) {... */\n    tag_25:\n        /* \"contracts/VulnerableERC223.sol\":1195:1199  bool */\n      0x00\n        /* \"contracts/VulnerableERC223.sol\":1228:1229  0 */\n      dup1\n        /* \"contracts/VulnerableERC223.sol\":1219:1225  _value */\n      dup5\n        /* \"contracts/VulnerableERC223.sol\":1219:1229  _value > 0 */\n      gt\n        /* \"contracts/VulnerableERC223.sol\":1219:1287  _value > 0... */\n      dup1\n      iszero\n      tag_28\n      jumpi\n      pop\n        /* \"contracts/VulnerableERC223.sol\":1282:1287  false */\n      0x00\n        /* \"contracts/VulnerableERC223.sol\":1253:1287  frozenAccount[msg.sender] == false */\n      iszero\n      iszero\n        /* \"contracts/VulnerableERC223.sol\":1253:1266  frozenAccount */\n      0x01\n        /* \"contracts/VulnerableERC223.sol\":1253:1278  frozenAccount[msg.sender] */\n      0x00\n        /* \"contracts/VulnerableERC223.sol\":1267:1277  msg.sender */\n      caller\n        /* \"contracts/VulnerableERC223.sol\":1253:1278  frozenAccount[msg.sender] */\n      0xffffffffffffffffffffffffffffffffffffffff\n      and\n      0xffffffffffffffffffffffffffffffffffffffff\n      and\n      dup2\n      mstore\n      0x20\n      add\n      swap1\n      dup2\n      mstore\n      0x20\n      add\n      0x00\n      keccak256\n      0x00\n      swap1\n      sload\n      swap1\n      0x0100\n      exp\n      swap1\n      div\n      0xff\n      and\n        /* \"contracts/VulnerableERC223.sol\":1253:1287  frozenAccount[msg.sender] == false */\n      iszero\n      iszero\n      eq\n        /* \"contracts/VulnerableERC223.sol\":1219:1287  _value > 0... */\n    tag_28:\n        /* \"contracts/VulnerableERC223.sol\":1219:1338  _value > 0... */\n      dup1\n      iszero\n      tag_29\n      jumpi\n      pop\n        /* \"contracts/VulnerableERC223.sol\":1333:1338  false */\n      0x00\n        /* \"contracts/VulnerableERC223.sol\":1311:1338  frozenAccount[_to] == false */\n      iszero\n      iszero\n        /* \"contracts/VulnerableERC223.sol\":1311:1324  frozenAccount */\n      0x01\n        /* \"contracts/VulnerableERC223.sol\":1311:1329  frozenAccount[_to] */\n      0x00\n        /* \"contracts/VulnerableERC223.sol\":1325:1328  _to */\n      dup8\n        /* \"contracts/VulnerableERC223.sol\":1311:1329  frozenAccount[_to] */\n      0xffffffffffffffffffffffffffffffffffffffff\n      and\n      0xffffffffffffffffffffffffffffffffffffffff\n      and\n      dup2\n      mstore\n      0x20\n      add\n      swap1\n      dup2\n      mstore\n      0x20\n      add\n      0x00\n      keccak256\n      0x00\n      swap1\n      sload\n      swap1\n      0x0100\n      exp\n      swap1\n      div\n      0xff\n      and\n        /* \"contracts/VulnerableERC223.sol\":1311:1338  frozenAccount[_to] == false */\n      iszero\n      iszero\n      eq\n        /* \"contracts/VulnerableERC223.sol\":1219:1338  _value > 0... */\n    tag_29:\n        /* \"contracts/VulnerableERC223.sol\":1219:1406  _value > 0... */\n      dup1\n      iszero\n      tag_30\n      jumpi\n      pop\n        /* \"contracts/VulnerableERC223.sol\":1380:1394  unlockUnixTime */\n      0x02\n        /* \"contracts/VulnerableERC223.sol\":1380:1406  unlockUnixTime[msg.sender] */\n      0x00\n        /* \"contracts/VulnerableERC223.sol\":1395:1405  msg.sender */\n      caller\n        /* \"contracts/VulnerableERC223.sol\":1380:1406  unlockUnixTime[msg.sender] */\n      0xffffffffffffffffffffffffffffffffffffffff\n      and\n      0xffffffffffffffffffffffffffffffffffffffff\n      and\n      dup2\n      mstore\n      0x20\n      add\n      swap1\n      dup2\n      mstore\n      0x20\n      add\n      0x00\n      keccak256\n      sload\n        /* \"contracts/VulnerableERC223.sol\":1362:1377  block.timestamp */\n      timestamp\n        /* \"contracts/VulnerableERC223.sol\":1362:1406  block.timestamp > unlockUnixTime[msg.sender] */\n      gt\n        /* \"contracts/VulnerableERC223.sol\":1219:1406  _value > 0... */\n    tag_30:\n        /* \"contracts/VulnerableERC223.sol\":1219:1467  _value > 0... */\n      dup1\n      iszero\n      tag_31\n      jumpi\n      pop\n        /* \"contracts/VulnerableERC223.sol\":1448:1462  unlockUnixTime */\n      0x02\n        /* \"contracts/VulnerableERC223.sol\":1448:1467  unlockUnixTime[_to] */\n      0x00\n        /* \"contracts/VulnerableERC223.sol\":1463:1466  _to */\n      dup7\n        /* \"contracts/VulnerableERC223.sol\":1448:1467  unlockUnixTime[_to] */\n      0xffffffffffffffffffffffffffffffffffffffff\n      and\n      0xffffffffffffffffffffffffffffffffffffffff\n      and\n      dup2\n      mstore\n      0x20\n      add\n      swap1\n      dup2\n      mstore\n      0x20\n      add\n      0x00\n      keccak256\n      sload\n        /* \"contracts/VulnerableERC223.sol\":1430:1445  block.timestamp */\n      timestamp\n        /* \"contracts/VulnerableERC223.sol\":1430:1467  block.timestamp > unlockUnixTime[_to] */\n      gt\n        /* \"contracts/VulnerableERC223.sol\":1219:1467  _value > 0... */\n    tag_31:\n        /* \"contracts/VulnerableERC223.sol\":1211:1468  require(_value > 0... */\n      tag_32\n      jumpi\n      0x00\n      dup1\n      revert\n    tag_32:\n        /* \"contracts/VulnerableERC223.sol\":1487:1502  isContract(_to) */\n      tag_33\n        /* \"contracts/VulnerableERC223.sol\":1498:1501  _to */\n      dup6\n        /* \"contracts/VulnerableERC223.sol\":1487:1497  isContract */\n      tag_34\n        /* \"contracts/VulnerableERC223.sol\":1487:1502  isContract(_to) */\n      jump\t// in\n    tag_33:\n        /* \"contracts/VulnerableERC223.sol\":1483:2231  if (isContract(_to)) {... */\n      iszero\n      tag_35\n      jumpi\n        /* \"contracts/VulnerableERC223.sol\":1543:1549  _value */\n      dup4\n        /* \"contracts/VulnerableERC223.sol\":1518:1527  balanceOf */\n      0x00\n        /* \"contracts/VulnerableERC223.sol\":1518:1539  balanceOf[msg.sender] */\n      dup1\n        /* \"contracts/VulnerableERC223.sol\":1528:1538  msg.sender */\n      caller\n        /* \"contracts/VulnerableERC223.sol\":1518:1539  balanceOf[msg.sender] */\n      0xffffffffffffffffffffffffffffffffffffffff\n      and\n      0xffffffffffffffffffffffffffffffffffffffff\n      and\n      dup2\n      mstore\n      0x20\n      add\n      swap1\n      dup2\n      mstore\n      0x20\n      add\n      0x00\n      keccak256\n      0x00\n        /* \"contracts/VulnerableERC223.sol\":1518:1549  balanceOf[msg.sender] -= _value */\n      dup3\n      dup3\n      sload\n      tag_36\n      swap2\n      swap1\n      tag_37\n      jump\t// in\n    tag_36:\n      swap3\n      pop\n      pop\n      dup2\n      swap1\n      sstore\n      pop\n        /* \"contracts/VulnerableERC223.sol\":1581:1587  _value */\n      dup4\n        /* \"contracts/VulnerableERC223.sol\":1563:1572  balanceOf */\n      0x00\n        /* \"contracts/VulnerableERC223.sol\":1563:1577  balanceOf[_to] */\n      dup1\n        /* \"contracts/VulnerableERC223.sol\":1573:1576  _to */\n      dup8\n        /* \"contracts/VulnerableERC223.sol\":1563:1577  balanceOf[_to] */\n      0xffffffffffffffffffffffffffffffffffffffff\n      and\n      0xffffffffffffffffffffffffffffffffffffffff\n      and\n      dup2\n      mstore\n      0x20\n      add\n      swap1\n      dup2\n      mstore\n      0x20\n      add\n      0x00\n      keccak256\n      0x00\n        /* \"contracts/VulnerableERC223.sol\":1563:1587  balanceOf[_to] += _value */\n      dup3\n      dup3\n      sload\n      tag_38\n      swap2\n      swap1\n      tag_39\n      jump\t// in\n    tag_38:\n      swap3\n      pop\n      pop\n      dup2\n      swap1\n      sstore\n      pop\n        /* \"contracts/VulnerableERC223.sol\":1671:1683  bool success */\n      0x00\n        /* \"contracts/VulnerableERC223.sol\":1689:1692  _to */\n      dup6\n        /* \"contracts/VulnerableERC223.sol\":1689:1697  _to.call */\n      0xffffffffffffffffffffffffffffffffffffffff\n      and\n        /* \"contracts/VulnerableERC223.sol\":1703:1709  200000 */\n      0x030d40\n        /* \"contracts/VulnerableERC223.sol\":1795:1811  _custom_fallback */\n      dup5\n        /* \"contracts/VulnerableERC223.sol\":1779:1813  keccak256(bytes(_custom_fallback)) */\n      dup1\n      mload\n      swap1\n      0x20\n      add\n      keccak256\n        /* \"contracts/VulnerableERC223.sol\":1836:1846  msg.sender */\n      caller\n        /* \"contracts/VulnerableERC223.sol\":1868:1874  _value */\n      dup9\n        /* \"contracts/VulnerableERC223.sol\":1896:1901  _data */\n      dup9\n        /* \"contracts/VulnerableERC223.sol\":1728:1919  abi.encodeWithSelector(... */\n      add(0x24, mload(0x40))\n      tag_40\n      swap4\n      swap3\n      swap2\n      swap1\n      tag_41\n      jump\t// in\n    tag_40:\n      mload(0x40)\n      0x20\n      dup2\n      dup4\n      sub\n      sub\n      dup2\n      mstore\n      swap1\n      0x40\n      mstore\n      swap1\n      not(0xffffffffffffffffffffffffffffffffffffffffffffffffffffffff)\n      and\n      0x20\n      dup3\n      add\n      dup1\n      mload\n      0xffffffffffffffffffffffffffffffffffffffffffffffffffffffff\n      dup4\n      dup2\n      dup4\n      and\n      or\n      dup4\n      mstore\n      pop\n      pop\n      pop\n      pop\n        /* \"contracts/VulnerableERC223.sol\":1689:1933  _to.call{gas: 200000}(... */\n      mload(0x40)\n      tag_42\n      swap2\n      swap1\n      tag_43\n      jump\t// in\n    tag_42:\n      0x00\n      mload(0x40)\n      dup1\n      dup4\n      sub\n      dup2\n      0x00\n      dup8\n      dup8\n      call\n      swap3\n      pop\n      pop\n      pop\n      returndatasize\n      dup1\n      0x00\n      dup2\n      eq\n      tag_46\n      jumpi\n      mload(0x40)\n      swap2\n      pop\n      and(add(returndatasize, 0x3f), not(0x1f))\n      dup3\n      add\n      0x40\n      mstore\n      returndatasize\n      dup3\n      mstore\n      returndatasize\n      0x00\n      0x20\n      dup5\n      add\n      returndatacopy\n      jump(tag_45)\n    tag_46:\n      0x60\n      swap2\n      pop\n    tag_45:\n      pop\n        /* \"contracts/VulnerableERC223.sol\":1670:1933  (bool success, ) = _to.call{gas: 200000}(... */\n      pop\n      swap1\n      pop\n        /* \"contracts/VulnerableERC223.sol\":1955:1962  success */\n      dup1\n        /* \"contracts/VulnerableERC223.sol\":1947:1982  require(success, \"Callback failed\") */\n      tag_47\n      jumpi\n      mload(0x40)\n      0x08c379a000000000000000000000000000000000000000000000000000000000\n      dup2\n      mstore\n      0x04\n      add\n      tag_48\n      swap1\n      tag_49\n      jump\t// in\n    tag_48:\n      mload(0x40)\n      dup1\n      swap2\n      sub\n      swap1\n      revert\n    tag_47:\n        /* \"contracts/VulnerableERC223.sol\":2102:2105  _to */\n      dup6\n        /* \"contracts/VulnerableERC223.sol\":2081:2121  Transfer(msg.sender, _to, _value, _data) */\n      0xffffffffffffffffffffffffffffffffffffffff\n      and\n        /* \"contracts/VulnerableERC223.sol\":2090:2100  msg.sender */\n      caller\n        /* \"contracts/VulnerableERC223.sol\":2081:2121  Transfer(msg.sender, _to, _value, _data) */\n      0xffffffffffffffffffffffffffffffffffffffff\n      and\n      0xe19260aff97b920c7df27010903aeb9c8d2be5d310a2c67824cf3f15396e4c16\n        /* \"contracts/VulnerableERC223.sol\":2107:2113  _value */\n      dup8\n        /* \"contracts/VulnerableERC223.sol\":2115:2120  _data */\n      dup8\n        /* \"contracts/VulnerableERC223.sol\":2081:2121  Transfer(msg.sender, _to, _value, _data) */\n      mload(0x40)\n      tag_50\n      swap3\n      swap2\n      swap1\n      tag_51\n      jump\t// in\n    tag_50:\n      mload(0x40)\n      dup1\n      swap2\n      sub\n      swap1\n      log3\n        /* \"contracts/VulnerableERC223.sol\":2142:2146  true */\n      0x01\n        /* \"contracts/VulnerableERC223.sol\":2135:2146  return true */\n      swap2\n      pop\n      pop\n      jump(tag_27)\n        /* \"contracts/VulnerableERC223.sol\":1483:2231  if (isContract(_to)) {... */\n    tag_35:\n        /* \"contracts/VulnerableERC223.sol\":2183:2220  transferToAddress(_to, _value, _data) */\n      tag_53\n        /* \"contracts/VulnerableERC223.sol\":2201:2204  _to */\n      dup6\n        /* \"contracts/VulnerableERC223.sol\":2206:2212  _value */\n      dup6\n        /* \"contracts/VulnerableERC223.sol\":2214:2219  _data */\n      dup6\n        /* \"contracts/VulnerableERC223.sol\":2183:2200  transferToAddress */\n      tag_54\n        /* \"contracts/VulnerableERC223.sol\":2183:2220  transferToAddress(_to, _value, _data) */\n      jump\t// in\n    tag_53:\n        /* \"contracts/VulnerableERC223.sol\":2176:2220  return transferToAddress(_to, _value, _data) */\n      swap1\n      pop\n        /* \"contracts/VulnerableERC223.sol\":1083:2237  function transfer(address _to, uint _value, bytes memory _data, string memory _custom_fallback) public returns (bool) {... */\n    tag_27:\n      swap5\n      swap4\n      pop\n      pop\n      pop\n      pop\n      jump\t// out\n        /* \"contracts/VulnerableERC223.sol\":529:715  function isContract(address _addr) private view returns (bool) {... */\n    tag_34:\n        /* \"contracts/VulnerableERC223.sol\":586:590  bool */\n      0x00\n        /* \"contracts/VulnerableERC223.sol\":602:613  uint32 size */\n      dup1\n        /* \"contracts/VulnerableERC223.sol\":666:671  _addr */\n      dup3\n        /* \"contracts/VulnerableERC223.sol\":654:672  extcodesize(_addr) */\n      extcodesize\n        /* \"contracts/VulnerableERC223.sol\":646:672  size := extcodesize(_addr) */\n      swap1\n      pop\n        /* \"contracts/VulnerableERC223.sol\":706:707  0 */\n      0x00\n        /* \"contracts/VulnerableERC223.sol\":699:703  size */\n      dup2\n        /* \"contracts/VulnerableERC223.sol\":699:707  size > 0 */\n      0xffffffff\n      and\n      gt\n        /* \"contracts/VulnerableERC223.sol\":691:708  return (size > 0) */\n      swap2\n      pop\n      pop\n        /* \"contracts/VulnerableERC223.sol\":529:715  function isContract(address _addr) private view returns (bool) {... */\n      swap2\n      swap1\n      pop\n      jump\t// out\n        /* \"contracts/VulnerableERC223.sol\":721:1076  function transferToAddress(address _to, uint256 _value, bytes memory _data) private returns (bool) {... */\n    tag_54:\n        /* \"contracts/VulnerableERC223.sol\":814:818  bool */\n      0x00\n        /* \"contracts/VulnerableERC223.sol\":863:869  _value */\n      dup3\n        /* \"contracts/VulnerableERC223.sol\":838:847  balanceOf */\n      0x00\n        /* \"contracts/VulnerableERC223.sol\":838:859  balanceOf[msg.sender] */\n      dup1\n        /* \"contracts/VulnerableERC223.sol\":848:858  msg.sender */\n      caller\n        /* \"contracts/VulnerableERC223.sol\":838:859  balanceOf[msg.sender] */\n      0xffffffffffffffffffffffffffffffffffffffff\n      and\n      0xffffffffffffffffffffffffffffffffffffffff\n      and\n      dup2\n      mstore\n      0x20\n      add\n      swap1\n      dup2\n      mstore\n      0x20\n      add\n      0x00\n      keccak256\n      sload\n        /* \"contracts/VulnerableERC223.sol\":838:869  balanceOf[msg.sender] >= _value */\n      lt\n      iszero\n        /* \"contracts/VulnerableERC223.sol\":830:870  require(balanceOf[msg.sender] >= _value) */\n      tag_57\n      jumpi\n      0x00\n      dup1\n      revert\n    tag_57:\n        /* \"contracts/VulnerableERC223.sol\":905:911  _value */\n      dup3\n        /* \"contracts/VulnerableERC223.sol\":880:889  balanceOf */\n      0x00\n        /* \"contracts/VulnerableERC223.sol\":880:901  balanceOf[msg.sender] */\n      dup1\n        /* \"contracts/VulnerableERC223.sol\":890:900  msg.sender */\n      caller\n        /* \"contracts/VulnerableERC223.sol\":880:901  balanceOf[msg.sender] */\n      0xffffffffffffffffffffffffffffffffffffffff\n      and\n      0xffffffffffffffffffffffffffffffffffffffff\n      and\n      dup2\n      mstore\n      0x20\n      add\n      swap1\n      dup2\n      mstore\n      0x20\n      add\n      0x00\n      keccak256\n      0x00\n        /* \"contracts/VulnerableERC223.sol\":880:911  balanceOf[msg.sender] -= _value */\n      dup3\n      dup3\n      sload\n      tag_58\n      swap2\n      swap1\n      tag_37\n      jump\t// in\n    tag_58:\n      swap3\n      pop\n      pop\n      dup2\n      swap1\n      sstore\n      pop\n        /* \"contracts/VulnerableERC223.sol\":939:945  _value */\n      dup3\n        /* \"contracts/VulnerableERC223.sol\":921:930  balanceOf */\n      0x00\n        /* \"contracts/VulnerableERC223.sol\":921:935  balanceOf[_to] */\n      dup1\n        /* \"contracts/VulnerableERC223.sol\":931:934  _to */\n      dup7\n        /* \"contracts/VulnerableERC223.sol\":921:935  balanceOf[_to] */\n      0xffffffffffffffffffffffffffffffffffffffff\n      and\n      0xffffffffffffffffffffffffffffffffffffffff\n      and\n      dup2\n      mstore\n      0x20\n      add\n      swap1\n      dup2\n      mstore\n      0x20\n      add\n      0x00\n      keccak256\n      0x00\n        /* \"contracts/VulnerableERC223.sol\":921:945  balanceOf[_to] += _value */\n      dup3\n      dup3\n      sload\n      tag_59\n      swap2\n      swap1\n      tag_39\n      jump\t// in\n    tag_59:\n      swap3\n      pop\n      pop\n      dup2\n      swap1\n      sstore\n      pop\n        /* \"contracts/VulnerableERC223.sol\":981:984  _to */\n      dup4\n        /* \"contracts/VulnerableERC223.sol\":960:993  Transfer(msg.sender, _to, _value) */\n      0xffffffffffffffffffffffffffffffffffffffff\n      and\n        /* \"contracts/VulnerableERC223.sol\":969:979  msg.sender */\n      caller\n        /* \"contracts/VulnerableERC223.sol\":960:993  Transfer(msg.sender, _to, _value) */\n      0xffffffffffffffffffffffffffffffffffffffff\n      and\n      0xddf252ad1be2c89b69c2b068fc378daa952ba7f163c4a11628f55a4df523b3ef\n        /* \"contracts/VulnerableERC223.sol\":986:992  _value */\n      dup6\n        /* \"contracts/VulnerableERC223.sol\":960:993  Transfer(msg.sender, _to, _value) */\n      mload(0x40)\n      tag_60\n      swap2\n      swap1\n      tag_12\n      jump\t// in\n    tag_60:\n      mload(0x40)\n      dup1\n      swap2\n      sub\n      swap1\n      log3\n        /* \"contracts/VulnerableERC223.sol\":1029:1032  _to */\n      dup4\n        /* \"contracts/VulnerableERC223.sol\":1008:1048  Transfer(msg.sender, _to, _value, _data) */\n      0xffffffffffffffffffffffffffffffffffffffff\n      and\n        /* \"contracts/VulnerableERC223.sol\":1017:1027  msg.sender */\n      caller\n        /* \"contracts/VulnerableERC223.sol\":1008:1048  Transfer(msg.sender, _to, _value, _data) */\n      0xffffffffffffffffffffffffffffffffffffffff\n      and\n      0xe19260aff97b920c7df27010903aeb9c8d2be5d310a2c67824cf3f15396e4c16\n        /* \"contracts/VulnerableERC223.sol\":1034:1040  _value */\n      dup6\n        /* \"contracts/VulnerableERC223.sol\":1042:1047  _data */\n      dup6\n        /* \"contracts/VulnerableERC223.sol\":1008:1048  Transfer(msg.sender, _to, _value, _data) */\n      mload(0x40)\n      tag_61\n      swap3\n      swap2\n      swap1\n      tag_51\n      jump\t// in\n    tag_61:\n      mload(0x40)\n      dup1\n      swap2\n      sub\n      swap1\n      log3\n        /* \"contracts/VulnerableERC223.sol\":1065:1069  true */\n      0x01\n        /* \"contracts/VulnerableERC223.sol\":1058:1069  return true */\n      swap1\n      pop\n        /* \"contracts/VulnerableERC223.sol\":721:1076  function transferToAddress(address _to, uint256 _value, bytes memory _data) private returns (bool) {... */\n      swap4\n      swap3\n      pop\n      pop\n      pop\n      jump\t// out\n        /* \"#utility.yul\":7:82   */\n    tag_62:\n        /* \"#utility.yul\":40:46   */\n      0x00\n        /* \"#utility.yul\":73:75   */\n      0x40\n        /* \"#utility.yul\":67:76   */\n      mload\n        /* \"#utility.yul\":57:76   */\n      swap1\n      pop\n        /* \"#utility.yul\":7:82   */\n      swap1\n      jump\t// out\n        /* \"#utility.yul\":88:205   */\n    tag_63:\n        /* \"#utility.yul\":197:198   */\n      0x00\n        /* \"#utility.yul\":194:195   */\n      dup1\n        /* \"#utility.yul\":187:199   */\n      revert\n        /* \"#utility.yul\":211:328   */\n    tag_64:\n        /* \"#utility.yul\":320:321   */\n      0x00\n        /* \"#utility.yul\":317:318   */\n      dup1\n        /* \"#utility.yul\":310:322   */\n      revert\n        /* \"#utility.yul\":334:460   */\n    tag_65:\n        /* \"#utility.yul\":371:378   */\n      0x00\n        /* \"#utility.yul\":411:453   */\n      0xffffffffffffffffffffffffffffffffffffffff\n        /* \"#utility.yul\":404:409   */\n      dup3\n        /* \"#utility.yul\":400:454   */\n      and\n        /* \"#utility.yul\":389:454   */\n      swap1\n      pop\n        /* \"#utility.yul\":334:460   */\n      swap2\n      swap1\n      pop\n      jump\t// out\n        /* \"#utility.yul\":466:562   */\n    tag_66:\n        /* \"#utility.yul\":503:510   */\n      0x00\n        /* \"#utility.yul\":532:556   */\n      tag_105\n        /* \"#utility.yul\":550:555   */\n      dup3\n        /* \"#utility.yul\":532:556   */\n      tag_65\n      jump\t// in\n    tag_105:\n        /* \"#utility.yul\":521:556   */\n      swap1\n      pop\n        /* \"#utility.yul\":466:562   */\n      swap2\n      swap1\n      pop\n      jump\t// out\n        /* \"#utility.yul\":568:690   */\n    tag_67:\n        /* \"#utility.yul\":641:665   */\n      tag_107\n        /* \"#utility.yul\":659:664   */\n      dup2\n        /* \"#utility.yul\":641:665   */\n      tag_66\n      jump\t// in\n    tag_107:\n        /* \"#utility.yul\":634:639   */\n      dup2\n        /* \"#utility.yul\":631:666   */\n      eq\n        /* \"#utility.yul\":621:684   */\n      tag_108\n      jumpi\n        /* \"#utility.yul\":680:681   */\n      0x00\n        /* \"#utility.yul\":677:678   */\n      dup1\n        /* \"#utility.yul\":670:682   */\n      revert\n        /* \"#utility.yul\":621:684   */\n    tag_108:\n        /* \"#utility.yul\":568:690   */\n      pop\n      jump\t// out\n        /* \"#utility.yul\":696:835   */\n    tag_68:\n        /* \"#utility.yul\":742:747   */\n      0x00\n        /* \"#utility.yul\":780:786   */\n      dup2\n        /* \"#utility.yul\":767:787   */\n      calldataload\n        /* \"#utility.yul\":758:787   */\n      swap1\n      pop\n        /* \"#utility.yul\":796:829   */\n      tag_110\n        /* \"#utility.yul\":823:828   */\n      dup2\n        /* \"#utility.yul\":796:829   */\n      tag_67\n      jump\t// in\n    tag_110:\n        /* \"#utility.yul\":696:835   */\n      swap3\n      swap2\n      pop\n      pop\n      jump\t// out\n        /* \"#utility.yul\":841:1170   */\n    tag_9:\n        /* \"#utility.yul\":900:906   */\n      0x00\n        /* \"#utility.yul\":949:951   */\n      0x20\n        /* \"#utility.yul\":937:946   */\n      dup3\n        /* \"#utility.yul\":928:935   */\n      dup5\n        /* \"#utility.yul\":924:947   */\n      sub\n        /* \"#utility.yul\":920:952   */\n      slt\n        /* \"#utility.yul\":917:1036   */\n      iszero\n      tag_112\n      jumpi\n        /* \"#utility.yul\":955:1034   */\n      tag_113\n      tag_63\n      jump\t// in\n    tag_113:\n        /* \"#utility.yul\":917:1036   */\n    tag_112:\n        /* \"#utility.yul\":1075:1076   */\n      0x00\n        /* \"#utility.yul\":1100:1153   */\n      tag_114\n        /* \"#utility.yul\":1145:1152   */\n      dup5\n        /* \"#utility.yul\":1136:1142   */\n      dup3\n        /* \"#utility.yul\":1125:1134   */\n      dup6\n        /* \"#utility.yul\":1121:1143   */\n      add\n        /* \"#utility.yul\":1100:1153   */\n      tag_68\n      jump\t// in\n    tag_114:\n        /* \"#utility.yul\":1090:1153   */\n      swap2\n      pop\n        /* \"#utility.yul\":1046:1163   */\n      pop\n        /* \"#utility.yul\":841:1170   */\n      swap3\n      swap2\n      pop\n      pop\n      jump\t// out\n        /* \"#utility.yul\":1176:1253   */\n    tag_69:\n        /* \"#utility.yul\":1213:1220   */\n      0x00\n        /* \"#utility.yul\":1242:1247   */\n      dup2\n        /* \"#utility.yul\":1231:1247   */\n      swap1\n      pop\n        /* \"#utility.yul\":1176:1253   */\n      swap2\n      swap1\n      pop\n      jump\t// out\n        /* \"#utility.yul\":1259:1377   */\n    tag_70:\n        /* \"#utility.yul\":1346:1370   */\n      tag_117\n        /* \"#utility.yul\":1364:1369   */\n      dup2\n        /* \"#utility.yul\":1346:1370   */\n      tag_69\n      jump\t// in\n    tag_117:\n        /* \"#utility.yul\":1341:1344   */\n      dup3\n        /* \"#utility.yul\":1334:1371   */\n      mstore\n        /* \"#utility.yul\":1259:1377   */\n      pop\n      pop\n      jump\t// out\n        /* \"#utility.yul\":1383:1605   */\n    tag_12:\n        /* \"#utility.yul\":1476:1480   */\n      0x00\n        /* \"#utility.yul\":1514:1516   */\n      0x20\n        /* \"#utility.yul\":1503:1512   */\n      dup3\n        /* \"#utility.yul\":1499:1517   */\n      add\n        /* \"#utility.yul\":1491:1517   */\n      swap1\n      pop\n        /* \"#utility.yul\":1527:1598   */\n      tag_119\n        /* \"#utility.yul\":1595:1596   */\n      0x00\n        /* \"#utility.yul\":1584:1593   */\n      dup4\n        /* \"#utility.yul\":1580:1597   */\n      add\n        /* \"#utility.yul\":1571:1577   */\n      dup5\n        /* \"#utility.yul\":1527:1598   */\n      tag_70\n      jump\t// in\n    tag_119:\n        /* \"#utility.yul\":1383:1605   */\n      swap3\n      swap2\n      pop\n      pop\n      jump\t// out\n        /* \"#utility.yul\":1611:1701   */\n    tag_71:\n        /* \"#utility.yul\":1645:1652   */\n      0x00\n        /* \"#utility.yul\":1688:1693   */\n      dup2\n        /* \"#utility.yul\":1681:1694   */\n      iszero\n        /* \"#utility.yul\":1674:1695   */\n      iszero\n        /* \"#utility.yul\":1663:1695   */\n      swap1\n      pop\n        /* \"#utility.yul\":1611:1701   */\n      swap2\n      swap1\n      pop\n      jump\t// out\n        /* \"#utility.yul\":1707:1816   */\n    tag_72:\n        /* \"#utility.yul\":1788:1809   */\n      tag_122\n        /* \"#utility.yul\":1803:1808   */\n      dup2\n        /* \"#utility.yul\":1788:1809   */\n      tag_71\n      jump\t// in\n    tag_122:\n        /* \"#utility.yul\":1783:1786   */\n      dup3\n        /* \"#utility.yul\":1776:1810   */\n      mstore\n        /* \"#utility.yul\":1707:1816   */\n      pop\n      pop\n      jump\t// out\n        /* \"#utility.yul\":1822:2032   */\n    tag_17:\n        /* \"#utility.yul\":1909:1913   */\n      0x00\n        /* \"#utility.yul\":1947:1949   */\n      0x20\n        /* \"#utility.yul\":1936:1945   */\n      dup3\n        /* \"#utility.yul\":1932:1950   */\n      add\n        /* \"#utility.yul\":1924:1950   */\n      swap1\n      pop\n        /* \"#utility.yul\":1960:2025   */\n      tag_124\n        /* \"#utility.yul\":2022:2023   */\n      0x00\n        /* \"#utility.yul\":2011:2020   */\n      dup4\n        /* \"#utility.yul\":2007:2024   */\n      add\n        /* \"#utility.yul\":1998:2004   */\n      dup5\n        /* \"#utility.yul\":1960:2025   */\n      tag_72\n      jump\t// in\n    tag_124:\n        /* \"#utility.yul\":1822:2032   */\n      swap3\n      swap2\n      pop\n      pop\n      jump\t// out\n        /* \"#utility.yul\":2038:2160   */\n    tag_73:\n        /* \"#utility.yul\":2111:2135   */\n      tag_126\n        /* \"#utility.yul\":2129:2134   */\n      dup2\n        /* \"#utility.yul\":2111:2135   */\n      tag_69\n      jump\t// in\n    tag_126:\n        /* \"#utility.yul\":2104:2109   */\n      dup2\n        /* \"#utility.yul\":2101:2136   */\n      eq\n        /* \"#utility.yul\":2091:2154   */\n      tag_127\n      jumpi\n        /* \"#utility.yul\":2150:2151   */\n      0x00\n        /* \"#utility.yul\":2147:2148   */\n      dup1\n        /* \"#utility.yul\":2140:2152   */\n      revert\n        /* \"#utility.yul\":2091:2154   */\n    tag_127:\n        /* \"#utility.yul\":2038:2160   */\n      pop\n      jump\t// out\n        /* \"#utility.yul\":2166:2305   */\n    tag_74:\n        /* \"#utility.yul\":2212:2217   */\n      0x00\n        /* \"#utility.yul\":2250:2256   */\n      dup2\n        /* \"#utility.yul\":2237:2257   */\n      calldataload\n        /* \"#utility.yul\":2228:2257   */\n      swap1\n      pop\n        /* \"#utility.yul\":2266:2299   */\n      tag_129\n        /* \"#utility.yul\":2293:2298   */\n      dup2\n        /* \"#utility.yul\":2266:2299   */\n      tag_73\n      jump\t// in\n    tag_129:\n        /* \"#utility.yul\":2166:2305   */\n      swap3\n      swap2\n      pop\n      pop\n      jump\t// out\n        /* \"#utility.yul\":2311:2428   */\n    tag_75:\n        /* \"#utility.yul\":2420:2421   */\n      0x00\n        /* \"#utility.yul\":2417:2418   */\n      dup1\n        /* \"#utility.yul\":2410:2422   */\n      revert\n        /* \"#utility.yul\":2434:2551   */\n    tag_76:\n        /* \"#utility.yul\":2543:2544   */\n      0x00\n        /* \"#utility.yul\":2540:2541   */\n      dup1\n        /* \"#utility.yul\":2533:2545   */\n      revert\n        /* \"#utility.yul\":2557:2659   */\n    tag_77:\n        /* \"#utility.yul\":2598:2604   */\n      0x00\n        /* \"#utility.yul\":2649:2651   */\n      0x1f\n        /* \"#utility.yul\":2645:2652   */\n      not\n        /* \"#utility.yul\":2640:2642   */\n      0x1f\n        /* \"#utility.yul\":2633:2638   */\n      dup4\n        /* \"#utility.yul\":2629:2643   */\n      add\n        /* \"#utility.yul\":2625:2653   */\n      and\n        /* \"#utility.yul\":2615:2653   */\n      swap1\n      pop\n        /* \"#utility.yul\":2557:2659   */\n      swap2\n      swap1\n      pop\n      jump\t// out\n        /* \"#utility.yul\":2665:2845   */\n    tag_78:\n        /* \"#utility.yul\":2713:2790   */\n      0x4e487b7100000000000000000000000000000000000000000000000000000000\n        /* \"#utility.yul\":2710:2711   */\n      0x00\n        /* \"#utility.yul\":2703:2791   */\n      mstore\n        /* \"#utility.yul\":2810:2814   */\n      0x41\n        /* \"#utility.yul\":2807:2808   */\n      0x04\n        /* \"#utility.yul\":2800:2815   */\n      mstore\n        /* \"#utility.yul\":2834:2838   */\n      0x24\n        /* \"#utility.yul\":2831:2832   */\n      0x00\n        /* \"#utility.yul\":2824:2839   */\n      revert\n        /* \"#utility.yul\":2851:3132   */\n    tag_79:\n        /* \"#utility.yul\":2934:2961   */\n      tag_135\n        /* \"#utility.yul\":2956:2960   */\n      dup3\n        /* \"#utility.yul\":2934:2961   */\n      tag_77\n      jump\t// in\n    tag_135:\n        /* \"#utility.yul\":2926:2932   */\n      dup2\n        /* \"#utility.yul\":2922:2962   */\n      add\n        /* \"#utility.yul\":3064:3070   */\n      dup2\n        /* \"#utility.yul\":3052:3062   */\n      dup2\n        /* \"#utility.yul\":3049:3071   */\n      lt\n        /* \"#utility.yul\":3028:3046   */\n      0xffffffffffffffff\n        /* \"#utility.yul\":3016:3026   */\n      dup3\n        /* \"#utility.yul\":3013:3047   */\n      gt\n        /* \"#utility.yul\":3010:3072   */\n      or\n        /* \"#utility.yul\":3007:3095   */\n      iszero\n      tag_136\n      jumpi\n        /* \"#utility.yul\":3075:3093   */\n      tag_137\n      tag_78\n      jump\t// in\n    tag_137:\n        /* \"#utility.yul\":3007:3095   */\n    tag_136:\n        /* \"#utility.yul\":3115:3125   */\n      dup1\n        /* \"#utility.yul\":3111:3113   */\n      0x40\n        /* \"#utility.yul\":3104:3126   */\n      mstore\n        /* \"#utility.yul\":2894:3132   */\n      pop\n        /* \"#utility.yul\":2851:3132   */\n      pop\n      pop\n      jump\t// out\n        /* \"#utility.yul\":3138:3267   */\n    tag_80:\n        /* \"#utility.yul\":3172:3178   */\n      0x00\n        /* \"#utility.yul\":3199:3219   */\n      tag_139\n      tag_62\n      jump\t// in\n    tag_139:\n        /* \"#utility.yul\":3189:3219   */\n      swap1\n      pop\n        /* \"#utility.yul\":3228:3261   */\n      tag_140\n        /* \"#utility.yul\":3256:3260   */\n      dup3\n        /* \"#utility.yul\":3248:3254   */\n      dup3\n        /* \"#utility.yul\":3228:3261   */\n      tag_79\n      jump\t// in\n    tag_140:\n        /* \"#utility.yul\":3138:3267   */\n      swap2\n      swap1\n      pop\n      jump\t// out\n        /* \"#utility.yul\":3273:3580   */\n    tag_81:\n        /* \"#utility.yul\":3334:3338   */\n      0x00\n        /* \"#utility.yul\":3424:3442   */\n      0xffffffffffffffff\n        /* \"#utility.yul\":3416:3422   */\n      dup3\n        /* \"#utility.yul\":3413:3443   */\n      gt\n        /* \"#utility.yul\":3410:3466   */\n      iszero\n      tag_142\n      jumpi\n        /* \"#utility.yul\":3446:3464   */\n      tag_143\n      tag_78\n      jump\t// in\n    tag_143:\n        /* \"#utility.yul\":3410:3466   */\n    tag_142:\n        /* \"#utility.yul\":3484:3513   */\n      tag_144\n        /* \"#utility.yul\":3506:3512   */\n      dup3\n        /* \"#utility.yul\":3484:3513   */\n      tag_77\n      jump\t// in\n    tag_144:\n        /* \"#utility.yul\":3476:3513   */\n      swap1\n      pop\n        /* \"#utility.yul\":3568:3572   */\n      0x20\n        /* \"#utility.yul\":3562:3566   */\n      dup2\n        /* \"#utility.yul\":3558:3573   */\n      add\n        /* \"#utility.yul\":3550:3573   */\n      swap1\n      pop\n        /* \"#utility.yul\":3273:3580   */\n      swap2\n      swap1\n      pop\n      jump\t// out\n        /* \"#utility.yul\":3586:3734   */\n    tag_82:\n        /* \"#utility.yul\":3684:3690   */\n      dup3\n        /* \"#utility.yul\":3679:3682   */\n      dup2\n        /* \"#utility.yul\":3674:3677   */\n      dup4\n        /* \"#utility.yul\":3661:3691   */\n      calldatacopy\n        /* \"#utility.yul\":3725:3726   */\n      0x00\n        /* \"#utility.yul\":3716:3722   */\n      dup4\n        /* \"#utility.yul\":3711:3714   */\n      dup4\n        /* \"#utility.yul\":3707:3723   */\n      add\n        /* \"#utility.yul\":3700:3727   */\n      mstore\n        /* \"#utility.yul\":3586:3734   */\n      pop\n      pop\n      pop\n      jump\t// out\n        /* \"#utility.yul\":3740:4163   */\n    tag_83:\n        /* \"#utility.yul\":3817:3822   */\n      0x00\n        /* \"#utility.yul\":3842:3907   */\n      tag_147\n        /* \"#utility.yul\":3858:3906   */\n      tag_148\n        /* \"#utility.yul\":3899:3905   */\n      dup5\n        /* \"#utility.yul\":3858:3906   */\n      tag_81\n      jump\t// in\n    tag_148:\n        /* \"#utility.yul\":3842:3907   */\n      tag_80\n      jump\t// in\n    tag_147:\n        /* \"#utility.yul\":3833:3907   */\n      swap1\n      pop\n        /* \"#utility.yul\":3930:3936   */\n      dup3\n        /* \"#utility.yul\":3923:3928   */\n      dup2\n        /* \"#utility.yul\":3916:3937   */\n      mstore\n        /* \"#utility.yul\":3968:3972   */\n      0x20\n        /* \"#utility.yul\":3961:3966   */\n      dup2\n        /* \"#utility.yul\":3957:3973   */\n      add\n        /* \"#utility.yul\":4006:4009   */\n      dup5\n        /* \"#utility.yul\":3997:4003   */\n      dup5\n        /* \"#utility.yul\":3992:3995   */\n      dup5\n        /* \"#utility.yul\":3988:4004   */\n      add\n        /* \"#utility.yul\":3985:4010   */\n      gt\n        /* \"#utility.yul\":3982:4094   */\n      iszero\n      tag_149\n      jumpi\n        /* \"#utility.yul\":4013:4092   */\n      tag_150\n      tag_76\n      jump\t// in\n    tag_150:\n        /* \"#utility.yul\":3982:4094   */\n    tag_149:\n        /* \"#utility.yul\":4103:4157   */\n      tag_151\n        /* \"#utility.yul\":4150:4156   */\n      dup5\n        /* \"#utility.yul\":4145:4148   */\n      dup3\n        /* \"#utility.yul\":4140:4143   */\n      dup6\n        /* \"#utility.yul\":4103:4157   */\n      tag_82\n      jump\t// in\n    tag_151:\n        /* \"#utility.yul\":3823:4163   */\n      pop\n        /* \"#utility.yul\":3740:4163   */\n      swap4\n      swap3\n      pop\n      pop\n      pop\n      jump\t// out\n        /* \"#utility.yul\":4182:4520   */\n    tag_84:\n        /* \"#utility.yul\":4237:4242   */\n      0x00\n        /* \"#utility.yul\":4286:4289   */\n      dup3\n        /* \"#utility.yul\":4279:4283   */\n      0x1f\n        /* \"#utility.yul\":4271:4277   */\n      dup4\n        /* \"#utility.yul\":4267:4284   */\n      add\n        /* \"#utility.yul\":4263:4290   */\n      slt\n        /* \"#utility.yul\":4253:4375   */\n      tag_153\n      jumpi\n        /* \"#utility.yul\":4294:4373   */\n      tag_154\n      tag_75\n      jump\t// in\n    tag_154:\n        /* \"#utility.yul\":4253:4375   */\n    tag_153:\n        /* \"#utility.yul\":4411:4417   */\n      dup2\n        /* \"#utility.yul\":4398:4418   */\n      calldataload\n        /* \"#utility.yul\":4436:4514   */\n      tag_155\n        /* \"#utility.yul\":4510:4513   */\n      dup5\n        /* \"#utility.yul\":4502:4508   */\n      dup3\n        /* \"#utility.yul\":4495:4499   */\n      0x20\n        /* \"#utility.yul\":4487:4493   */\n      dup7\n        /* \"#utility.yul\":4483:4500   */\n      add\n        /* \"#utility.yul\":4436:4514   */\n      tag_83\n      jump\t// in\n    tag_155:\n        /* \"#utility.yul\":4427:4514   */\n      swap2\n      pop\n        /* \"#utility.yul\":4243:4520   */\n      pop\n        /* \"#utility.yul\":4182:4520   */\n      swap3\n      swap2\n      pop\n      pop\n      jump\t// out\n        /* \"#utility.yul\":4526:4834   */\n    tag_85:\n        /* \"#utility.yul\":4588:4592   */\n      0x00\n        /* \"#utility.yul\":4678:4696   */\n      0xffffffffffffffff\n        /* \"#utility.yul\":4670:4676   */\n      dup3\n        /* \"#utility.yul\":4667:4697   */\n      gt\n        /* \"#utility.yul\":4664:4720   */\n      iszero\n      tag_157\n      jumpi\n        /* \"#utility.yul\":4700:4718   */\n      tag_158\n      tag_78\n      jump\t// in\n    tag_158:\n        /* \"#utility.yul\":4664:4720   */\n    tag_157:\n        /* \"#utility.yul\":4738:4767   */\n      tag_159\n        /* \"#utility.yul\":4760:4766   */\n      dup3\n        /* \"#utility.yul\":4738:4767   */\n      tag_77\n      jump\t// in\n    tag_159:\n        /* \"#utility.yul\":4730:4767   */\n      swap1\n      pop\n        /* \"#utility.yul\":4822:4826   */\n      0x20\n        /* \"#utility.yul\":4816:4820   */\n      dup2\n        /* \"#utility.yul\":4812:4827   */\n      add\n        /* \"#utility.yul\":4804:4827   */\n      swap1\n      pop\n        /* \"#utility.yul\":4526:4834   */\n      swap2\n      swap1\n      pop\n      jump\t// out\n        /* \"#utility.yul\":4840:5265   */\n    tag_86:\n        /* \"#utility.yul\":4918:4923   */\n      0x00\n        /* \"#utility.yul\":4943:5009   */\n      tag_161\n        /* \"#utility.yul\":4959:5008   */\n      tag_162\n        /* \"#utility.yul\":5001:5007   */\n      dup5\n        /* \"#utility.yul\":4959:5008   */\n      tag_85\n      jump\t// in\n    tag_162:\n        /* \"#utility.yul\":4943:5009   */\n      tag_80\n      jump\t// in\n    tag_161:\n        /* \"#utility.yul\":4934:5009   */\n      swap1\n      pop\n        /* \"#utility.yul\":5032:5038   */\n      dup3\n        /* \"#utility.yul\":5025:5030   */\n      dup2\n        /* \"#utility.yul\":5018:5039   */\n      mstore\n        /* \"#utility.yul\":5070:5074   */\n      0x20\n        /* \"#utility.yul\":5063:5068   */\n      dup2\n        /* \"#utility.yul\":5059:5075   */\n      add\n        /* \"#utility.yul\":5108:5111   */\n      dup5\n        /* \"#utility.yul\":5099:5105   */\n      dup5\n        /* \"#utility.yul\":5094:5097   */\n      dup5\n        /* \"#utility.yul\":5090:5106   */\n      add\n        /* \"#utility.yul\":5087:5112   */\n      gt\n        /* \"#utility.yul\":5084:5196   */\n      iszero\n      tag_163\n      jumpi\n        /* \"#utility.yul\":5115:5194   */\n      tag_164\n      tag_76\n      jump\t// in\n    tag_164:\n        /* \"#utility.yul\":5084:5196   */\n    tag_163:\n        /* \"#utility.yul\":5205:5259   */\n      tag_165\n        /* \"#utility.yul\":5252:5258   */\n      dup5\n        /* \"#utility.yul\":5247:5250   */\n      dup3\n        /* \"#utility.yul\":5242:5245   */\n      dup6\n        /* \"#utility.yul\":5205:5259   */\n      tag_82\n      jump\t// in\n    tag_165:\n        /* \"#utility.yul\":4924:5265   */\n      pop\n        /* \"#utility.yul\":4840:5265   */\n      swap4\n      swap3\n      pop\n      pop\n      pop\n      jump\t// out\n        /* \"#utility.yul\":5285:5625   */\n    tag_87:\n        /* \"#utility.yul\":5341:5346   */\n      0x00\n        /* \"#utility.yul\":5390:5393   */\n      dup3\n        /* \"#utility.yul\":5383:5387   */\n      0x1f\n        /* \"#utility.yul\":5375:5381   */\n      dup4\n        /* \"#utility.yul\":5371:5388   */\n      add\n        /* \"#utility.yul\":5367:5394   */\n      slt\n        /* \"#utility.yul\":5357:5479   */\n      tag_167\n      jumpi\n        /* \"#utility.yul\":5398:5477   */\n      tag_168\n      tag_75\n      jump\t// in\n    tag_168:\n        /* \"#utility.yul\":5357:5479   */\n    tag_167:\n        /* \"#utility.yul\":5515:5521   */\n      dup2\n        /* \"#utility.yul\":5502:5522   */\n      calldataload\n        /* \"#utility.yul\":5540:5619   */\n      tag_169\n        /* \"#utility.yul\":5615:5618   */\n      dup5\n        /* \"#utility.yul\":5607:5613   */\n      dup3\n        /* \"#utility.yul\":5600:5604   */\n      0x20\n        /* \"#utility.yul\":5592:5598   */\n      dup7\n        /* \"#utility.yul\":5588:5605   */\n      add\n        /* \"#utility.yul\":5540:5619   */\n      tag_86\n      jump\t// in\n    tag_169:\n        /* \"#utility.yul\":5531:5619   */\n      swap2\n      pop\n        /* \"#utility.yul\":5347:5625   */\n      pop\n        /* \"#utility.yul\":5285:5625   */\n      swap3\n      swap2\n      pop\n      pop\n      jump\t// out\n        /* \"#utility.yul\":5631:6754   */\n    tag_24:\n        /* \"#utility.yul\":5736:5742   */\n      0x00\n        /* \"#utility.yul\":5744:5750   */\n      dup1\n        /* \"#utility.yul\":5752:5758   */\n      0x00\n        /* \"#utility.yul\":5760:5766   */\n      dup1\n        /* \"#utility.yul\":5809:5812   */\n      0x80\n        /* \"#utility.yul\":5797:5806   */\n      dup6\n        /* \"#utility.yul\":5788:5795   */\n      dup8\n        /* \"#utility.yul\":5784:5807   */\n      sub\n        /* \"#utility.yul\":5780:5813   */\n      slt\n        /* \"#utility.yul\":5777:5897   */\n      iszero\n      tag_171\n      jumpi\n        /* \"#utility.yul\":5816:5895   */\n      tag_172\n      tag_63\n      jump\t// in\n    tag_172:\n        /* \"#utility.yul\":5777:5897   */\n    tag_171:\n        /* \"#utility.yul\":5936:5937   */\n      0x00\n        /* \"#utility.yul\":5961:6014   */\n      tag_173\n        /* \"#utility.yul\":6006:6013   */\n      dup8\n        /* \"#utility.yul\":5997:6003   */\n      dup3\n        /* \"#utility.yul\":5986:5995   */\n      dup9\n        /* \"#utility.yul\":5982:6004   */\n      add\n        /* \"#utility.yul\":5961:6014   */\n      tag_68\n      jump\t// in\n    tag_173:\n        /* \"#utility.yul\":5951:6014   */\n      swap5\n      pop\n        /* \"#utility.yul\":5907:6024   */\n      pop\n        /* \"#utility.yul\":6063:6065   */\n      0x20\n        /* \"#utility.yul\":6089:6142   */\n      tag_174\n        /* \"#utility.yul\":6134:6141   */\n      dup8\n        /* \"#utility.yul\":6125:6131   */\n      dup3\n        /* \"#utility.yul\":6114:6123   */\n      dup9\n        /* \"#utility.yul\":6110:6132   */\n      add\n        /* \"#utility.yul\":6089:6142   */\n      tag_74\n      jump\t// in\n    tag_174:\n        /* \"#utility.yul\":6079:6142   */\n      swap4\n      pop\n        /* \"#utility.yul\":6034:6152   */\n      pop\n        /* \"#utility.yul\":6219:6221   */\n      0x40\n        /* \"#utility.yul\":6208:6217   */\n      dup6\n        /* \"#utility.yul\":6204:6222   */\n      add\n        /* \"#utility.yul\":6191:6223   */\n      calldataload\n        /* \"#utility.yul\":6250:6268   */\n      0xffffffffffffffff\n        /* \"#utility.yul\":6242:6248   */\n      dup2\n        /* \"#utility.yul\":6239:6269   */\n      gt\n        /* \"#utility.yul\":6236:6353   */\n      iszero\n      tag_175\n      jumpi\n        /* \"#utility.yul\":6272:6351   */\n      tag_176\n      tag_64\n      jump\t// in\n    tag_176:\n        /* \"#utility.yul\":6236:6353   */\n    tag_175:\n        /* \"#utility.yul\":6377:6439   */\n      tag_177\n        /* \"#utility.yul\":6431:6438   */\n      dup8\n        /* \"#utility.yul\":6422:6428   */\n      dup3\n        /* \"#utility.yul\":6411:6420   */\n      dup9\n        /* \"#utility.yul\":6407:6429   */\n      add\n        /* \"#utility.yul\":6377:6439   */\n      tag_84\n      jump\t// in\n    tag_177:\n        /* \"#utility.yul\":6367:6439   */\n      swap3\n      pop\n        /* \"#utility.yul\":6162:6449   */\n      pop\n        /* \"#utility.yul\":6516:6518   */\n      0x60\n        /* \"#utility.yul\":6505:6514   */\n      dup6\n        /* \"#utility.yul\":6501:6519   */\n      add\n        /* \"#utility.yul\":6488:6520   */\n      calldataload\n        /* \"#utility.yul\":6547:6565   */\n      0xffffffffffffffff\n        /* \"#utility.yul\":6539:6545   */\n      dup2\n        /* \"#utility.yul\":6536:6566   */\n      gt\n        /* \"#utility.yul\":6533:6650   */\n      iszero\n      tag_178\n      jumpi\n        /* \"#utility.yul\":6569:6648   */\n      tag_179\n      tag_64\n      jump\t// in\n    tag_179:\n        /* \"#utility.yul\":6533:6650   */\n    tag_178:\n        /* \"#utility.yul\":6674:6737   */\n      tag_180\n        /* \"#utility.yul\":6729:6736   */\n      dup8\n        /* \"#utility.yul\":6720:6726   */\n      dup3\n        /* \"#utility.yul\":6709:6718   */\n      dup9\n        /* \"#utility.yul\":6705:6727   */\n      add\n        /* \"#utility.yul\":6674:6737   */\n      tag_87\n      jump\t// in\n    tag_180:\n        /* \"#utility.yul\":6664:6737   */\n      swap2\n      pop\n        /* \"#utility.yul\":6459:6747   */\n      pop\n        /* \"#utility.yul\":5631:6754   */\n      swap3\n      swap6\n      swap2\n      swap5\n      pop\n      swap3\n      pop\n      jump\t// out\n        /* \"#utility.yul\":6760:6940   */\n    tag_88:\n        /* \"#utility.yul\":6808:6885   */\n      0x4e487b7100000000000000000000000000000000000000000000000000000000\n        /* \"#utility.yul\":6805:6806   */\n      0x00\n        /* \"#utility.yul\":6798:6886   */\n      mstore\n        /* \"#utility.yul\":6905:6909   */\n      0x11\n        /* \"#utility.yul\":6902:6903   */\n      0x04\n        /* \"#utility.yul\":6895:6910   */\n      mstore\n        /* \"#utility.yul\":6929:6933   */\n      0x24\n        /* \"#utility.yul\":6926:6927   */\n      0x00\n        /* \"#utility.yul\":6919:6934   */\n      revert\n        /* \"#utility.yul\":6946:7140   */\n    tag_37:\n        /* \"#utility.yul\":6986:6990   */\n      0x00\n        /* \"#utility.yul\":7006:7026   */\n      tag_183\n        /* \"#utility.yul\":7024:7025   */\n      dup3\n        /* \"#utility.yul\":7006:7026   */\n      tag_69\n      jump\t// in\n    tag_183:\n        /* \"#utility.yul\":7001:7026   */\n      swap2\n      pop\n        /* \"#utility.yul\":7040:7060   */\n      tag_184\n        /* \"#utility.yul\":7058:7059   */\n      dup4\n        /* \"#utility.yul\":7040:7060   */\n      tag_69\n      jump\t// in\n    tag_184:\n        /* \"#utility.yul\":7035:7060   */\n      swap3\n      pop\n        /* \"#utility.yul\":7084:7085   */\n      dup3\n        /* \"#utility.yul\":7081:7082   */\n      dup3\n        /* \"#utility.yul\":7077:7086   */\n      sub\n        /* \"#utility.yul\":7069:7086   */\n      swap1\n      pop\n        /* \"#utility.yul\":7108:7109   */\n      dup2\n        /* \"#utility.yul\":7102:7106   */\n      dup2\n        /* \"#utility.yul\":7099:7110   */\n      gt\n        /* \"#utility.yul\":7096:7133   */\n      iszero\n      tag_185\n      jumpi\n        /* \"#utility.yul\":7113:7131   */\n      tag_186\n      tag_88\n      jump\t// in\n    tag_186:\n        /* \"#utility.yul\":7096:7133   */\n    tag_185:\n        /* \"#utility.yul\":6946:7140   */\n      swap3\n      swap2\n      pop\n      pop\n      jump\t// out\n        /* \"#utility.yul\":7146:7337   */\n    tag_39:\n        /* \"#utility.yul\":7186:7189   */\n      0x00\n        /* \"#utility.yul\":7205:7225   */\n      tag_188\n        /* \"#utility.yul\":7223:7224   */\n      dup3\n        /* \"#utility.yul\":7205:7225   */\n      tag_69\n      jump\t// in\n    tag_188:\n        /* \"#utility.yul\":7200:7225   */\n      swap2\n      pop\n        /* \"#utility.yul\":7239:7259   */\n      tag_189\n        /* \"#utility.yul\":7257:7258   */\n      dup4\n        /* \"#utility.yul\":7239:7259   */\n      tag_69\n      jump\t// in\n    tag_189:\n        /* \"#utility.yul\":7234:7259   */\n      swap3\n      pop\n        /* \"#utility.yul\":7282:7283   */\n      dup3\n        /* \"#utility.yul\":7279:7280   */\n      dup3\n        /* \"#utility.yul\":7275:7284   */\n      add\n        /* \"#utility.yul\":7268:7284   */\n      swap1\n      pop\n        /* \"#utility.yul\":7303:7306   */\n      dup1\n        /* \"#utility.yul\":7300:7301   */\n      dup3\n        /* \"#utility.yul\":7297:7307   */\n      gt\n        /* \"#utility.yul\":7294:7330   */\n      iszero\n      tag_190\n      jumpi\n        /* \"#utility.yul\":7310:7328   */\n      tag_191\n      tag_88\n      jump\t// in\n    tag_191:\n        /* \"#utility.yul\":7294:7330   */\n    tag_190:\n        /* \"#utility.yul\":7146:7337   */\n      swap3\n      swap2\n      pop\n      pop\n      jump\t// out\n        /* \"#utility.yul\":7343:7461   */\n    tag_89:\n        /* \"#utility.yul\":7430:7454   */\n      tag_193\n        /* \"#utility.yul\":7448:7453   */\n      dup2\n        /* \"#utility.yul\":7430:7454   */\n      tag_66\n      jump\t// in\n    tag_193:\n        /* \"#utility.yul\":7425:7428   */\n      dup3\n        /* \"#utility.yul\":7418:7455   */\n      mstore\n        /* \"#utility.yul\":7343:7461   */\n      pop\n      pop\n      jump\t// out\n        /* \"#utility.yul\":7467:7565   */\n    tag_90:\n        /* \"#utility.yul\":7518:7524   */\n      0x00\n        /* \"#utility.yul\":7552:7557   */\n      dup2\n        /* \"#utility.yul\":7546:7558   */\n      mload\n        /* \"#utility.yul\":7536:7558   */\n      swap1\n      pop\n        /* \"#utility.yul\":7467:7565   */\n      swap2\n      swap1\n      pop\n      jump\t// out\n        /* \"#utility.yul\":7571:7739   */\n    tag_91:\n        /* \"#utility.yul\":7654:7665   */\n      0x00\n        /* \"#utility.yul\":7688:7694   */\n      dup3\n        /* \"#utility.yul\":7683:7686   */\n      dup3\n        /* \"#utility.yul\":7676:7695   */\n      mstore\n        /* \"#utility.yul\":7728:7732   */\n      0x20\n        /* \"#utility.yul\":7723:7726   */\n      dup3\n        /* \"#utility.yul\":7719:7733   */\n      add\n        /* \"#utility.yul\":7704:7733   */\n      swap1\n      pop\n        /* \"#utility.yul\":7571:7739   */\n      swap3\n      swap2\n      pop\n      pop\n      jump\t// out\n        /* \"#utility.yul\":7745:7884   */\n    tag_92:\n        /* \"#utility.yul\":7834:7840   */\n      dup3\n        /* \"#utility.yul\":7829:7832   */\n      dup2\n        /* \"#utility.yul\":7824:7827   */\n      dup4\n        /* \"#utility.yul\":7818:7841   */\n      mcopy\n        /* \"#utility.yul\":7875:7876   */\n      0x00\n        /* \"#utility.yul\":7866:7872   */\n      dup4\n        /* \"#utility.yul\":7861:7864   */\n      dup4\n        /* \"#utility.yul\":7857:7873   */\n      add\n        /* \"#utility.yul\":7850:7877   */\n      mstore\n        /* \"#utility.yul\":7745:7884   */\n      pop\n      pop\n      pop\n      jump\t// out\n        /* \"#utility.yul\":7890:8263   */\n    tag_93:\n        /* \"#utility.yul\":7976:7979   */\n      0x00\n        /* \"#utility.yul\":8004:8042   */\n      tag_198\n        /* \"#utility.yul\":8036:8041   */\n      dup3\n        /* \"#utility.yul\":8004:8042   */\n      tag_90\n      jump\t// in\n    tag_198:\n        /* \"#utility.yul\":8058:8128   */\n      tag_199\n        /* \"#utility.yul\":8121:8127   */\n      dup2\n        /* \"#utility.yul\":8116:8119   */\n      dup6\n        /* \"#utility.yul\":8058:8128   */\n      tag_91\n      jump\t// in\n    tag_199:\n        /* \"#utility.yul\":8051:8128   */\n      swap4\n      pop\n        /* \"#utility.yul\":8137:8202   */\n      tag_200\n        /* \"#utility.yul\":8195:8201   */\n      dup2\n        /* \"#utility.yul\":8190:8193   */\n      dup6\n        /* \"#utility.yul\":8183:8187   */\n      0x20\n        /* \"#utility.yul\":8176:8181   */\n      dup7\n        /* \"#utility.yul\":8172:8188   */\n      add\n        /* \"#utility.yul\":8137:8202   */\n      tag_92\n      jump\t// in\n    tag_200:\n        /* \"#utility.yul\":8227:8256   */\n      tag_201\n        /* \"#utility.yul\":8249:8255   */\n      dup2\n        /* \"#utility.yul\":8227:8256   */\n      tag_77\n      jump\t// in\n    tag_201:\n        /* \"#utility.yul\":8222:8225   */\n      dup5\n        /* \"#utility.yul\":8218:8257   */\n      add\n        /* \"#utility.yul\":8211:8257   */\n      swap2\n      pop\n        /* \"#utility.yul\":7980:8263   */\n      pop\n        /* \"#utility.yul\":7890:8263   */\n      swap3\n      swap2\n      pop\n      pop\n      jump\t// out\n        /* \"#utility.yul\":8269:8798   */\n    tag_41:\n        /* \"#utility.yul\":8436:8440   */\n      0x00\n        /* \"#utility.yul\":8474:8476   */\n      0x60\n        /* \"#utility.yul\":8463:8472   */\n      dup3\n        /* \"#utility.yul\":8459:8477   */\n      add\n        /* \"#utility.yul\":8451:8477   */\n      swap1\n      pop\n        /* \"#utility.yul\":8487:8558   */\n      tag_203\n        /* \"#utility.yul\":8555:8556   */\n      0x00\n        /* \"#utility.yul\":8544:8553   */\n      dup4\n        /* \"#utility.yul\":8540:8557   */\n      add\n        /* \"#utility.yul\":8531:8537   */\n      dup7\n        /* \"#utility.yul\":8487:8558   */\n      tag_89\n      jump\t// in\n    tag_203:\n        /* \"#utility.yul\":8568:8640   */\n      tag_204\n        /* \"#utility.yul\":8636:8638   */\n      0x20\n        /* \"#utility.yul\":8625:8634   */\n      dup4\n        /* \"#utility.yul\":8621:8639   */\n      add\n        /* \"#utility.yul\":8612:8618   */\n      dup6\n        /* \"#utility.yul\":8568:8640   */\n      tag_70\n      jump\t// in\n    tag_204:\n        /* \"#utility.yul\":8687:8696   */\n      dup2\n        /* \"#utility.yul\":8681:8685   */\n      dup2\n        /* \"#utility.yul\":8677:8697   */\n      sub\n        /* \"#utility.yul\":8672:8674   */\n      0x40\n        /* \"#utility.yul\":8661:8670   */\n      dup4\n        /* \"#utility.yul\":8657:8675   */\n      add\n        /* \"#utility.yul\":8650:8698   */\n      mstore\n        /* \"#utility.yul\":8715:8791   */\n      tag_205\n        /* \"#utility.yul\":8786:8790   */\n      dup2\n        /* \"#utility.yul\":8777:8783   */\n      dup5\n        /* \"#utility.yul\":8715:8791   */\n      tag_93\n      jump\t// in\n    tag_205:\n        /* \"#utility.yul\":8707:8791   */\n      swap1\n      pop\n        /* \"#utility.yul\":8269:8798   */\n      swap5\n      swap4\n      pop\n      pop\n      pop\n      pop\n      jump\t// out\n        /* \"#utility.yul\":8804:8951   */\n    tag_94:\n        /* \"#utility.yul\":8905:8916   */\n      0x00\n        /* \"#utility.yul\":8942:8945   */\n      dup2\n        /* \"#utility.yul\":8927:8945   */\n      swap1\n      pop\n        /* \"#utility.yul\":8804:8951   */\n      swap3\n      swap2\n      pop\n      pop\n      jump\t// out\n        /* \"#utility.yul\":8957:9343   */\n    tag_95:\n        /* \"#utility.yul\":9061:9064   */\n      0x00\n        /* \"#utility.yul\":9089:9127   */\n      tag_208\n        /* \"#utility.yul\":9121:9126   */\n      dup3\n        /* \"#utility.yul\":9089:9127   */\n      tag_90\n      jump\t// in\n    tag_208:\n        /* \"#utility.yul\":9143:9231   */\n      tag_209\n        /* \"#utility.yul\":9224:9230   */\n      dup2\n        /* \"#utility.yul\":9219:9222   */\n      dup6\n        /* \"#utility.yul\":9143:9231   */\n      tag_94\n      jump\t// in\n    tag_209:\n        /* \"#utility.yul\":9136:9231   */\n      swap4\n      pop\n        /* \"#utility.yul\":9240:9305   */\n      tag_210\n        /* \"#utility.yul\":9298:9304   */\n      dup2\n        /* \"#utility.yul\":9293:9296   */\n      dup6\n        /* \"#utility.yul\":9286:9290   */\n      0x20\n        /* \"#utility.yul\":9279:9284   */\n      dup7\n        /* \"#utility.yul\":9275:9291   */\n      add\n        /* \"#utility.yul\":9240:9305   */\n      tag_92\n      jump\t// in\n    tag_210:\n        /* \"#utility.yul\":9330:9336   */\n      dup1\n        /* \"#utility.yul\":9325:9328   */\n      dup5\n        /* \"#utility.yul\":9321:9337   */\n      add\n        /* \"#utility.yul\":9314:9337   */\n      swap2\n      pop\n        /* \"#utility.yul\":9065:9343   */\n      pop\n        /* \"#utility.yul\":8957:9343   */\n      swap3\n      swap2\n      pop\n      pop\n      jump\t// out\n        /* \"#utility.yul\":9349:9620   */\n    tag_43:\n        /* \"#utility.yul\":9479:9482   */\n      0x00\n        /* \"#utility.yul\":9501:9594   */\n      tag_212\n        /* \"#utility.yul\":9590:9593   */\n      dup3\n        /* \"#utility.yul\":9581:9587   */\n      dup5\n        /* \"#utility.yul\":9501:9594   */\n      tag_95\n      jump\t// in\n    tag_212:\n        /* \"#utility.yul\":9494:9594   */\n      swap2\n      pop\n        /* \"#utility.yul\":9611:9614   */\n      dup2\n        /* \"#utility.yul\":9604:9614   */\n      swap1\n      pop\n        /* \"#utility.yul\":9349:9620   */\n      swap3\n      swap2\n      pop\n      pop\n      jump\t// out\n        /* \"#utility.yul\":9626:9795   */\n    tag_96:\n        /* \"#utility.yul\":9710:9721   */\n      0x00\n        /* \"#utility.yul\":9744:9750   */\n      dup3\n        /* \"#utility.yul\":9739:9742   */\n      dup3\n        /* \"#utility.yul\":9732:9751   */\n      mstore\n        /* \"#utility.yul\":9784:9788   */\n      0x20\n        /* \"#utility.yul\":9779:9782   */\n      dup3\n        /* \"#utility.yul\":9775:9789   */\n      add\n        /* \"#utility.yul\":9760:9789   */\n      swap1\n      pop\n        /* \"#utility.yul\":9626:9795   */\n      swap3\n      swap2\n      pop\n      pop\n      jump\t// out\n        /* \"#utility.yul\":9801:9966   */\n    tag_97:\n        /* \"#utility.yul\":9941:9958   */\n      0x43616c6c6261636b206661696c65640000000000000000000000000000000000\n        /* \"#utility.yul\":9937:9938   */\n      0x00\n        /* \"#utility.yul\":9929:9935   */\n      dup3\n        /* \"#utility.yul\":9925:9939   */\n      add\n        /* \"#utility.yul\":9918:9959   */\n      mstore\n        /* \"#utility.yul\":9801:9966   */\n      pop\n      jump\t// out\n        /* \"#utility.yul\":9972:10338   */\n    tag_98:\n        /* \"#utility.yul\":10114:10117   */\n      0x00\n        /* \"#utility.yul\":10135:10202   */\n      tag_216\n        /* \"#utility.yul\":10199:10201   */\n      0x0f\n        /* \"#utility.yul\":10194:10197   */\n      dup4\n        /* \"#utility.yul\":10135:10202   */\n      tag_96\n      jump\t// in\n    tag_216:\n        /* \"#utility.yul\":10128:10202   */\n      swap2\n      pop\n        /* \"#utility.yul\":10211:10304   */\n      tag_217\n        /* \"#utility.yul\":10300:10303   */\n      dup3\n        /* \"#utility.yul\":10211:10304   */\n      tag_97\n      jump\t// in\n    tag_217:\n        /* \"#utility.yul\":10329:10331   */\n      0x20\n        /* \"#utility.yul\":10324:10327   */\n      dup3\n        /* \"#utility.yul\":10320:10332   */\n      add\n        /* \"#utility.yul\":10313:10332   */\n      swap1\n      pop\n        /* \"#utility.yul\":9972:10338   */\n      swap2\n      swap1\n      pop\n      jump\t// out\n        /* \"#utility.yul\":10344:10763   */\n    tag_49:\n        /* \"#utility.yul\":10510:10514   */\n      0x00\n        /* \"#utility.yul\":10548:10550   */\n      0x20\n        /* \"#utility.yul\":10537:10546   */\n      dup3\n        /* \"#utility.yul\":10533:10551   */\n      add\n        /* \"#utility.yul\":10525:10551   */\n      swap1\n      pop\n        /* \"#utility.yul\":10597:10606   */\n      dup2\n        /* \"#utility.yul\":10591:10595   */\n      dup2\n        /* \"#utility.yul\":10587:10607   */\n      sub\n        /* \"#utility.yul\":10583:10584   */\n      0x00\n        /* \"#utility.yul\":10572:10581   */\n      dup4\n        /* \"#utility.yul\":10568:10585   */\n      add\n        /* \"#utility.yul\":10561:10608   */\n      mstore\n        /* \"#utility.yul\":10625:10756   */\n      tag_219\n        /* \"#utility.yul\":10751:10755   */\n      dup2\n        /* \"#utility.yul\":10625:10756   */\n      tag_98\n      jump\t// in\n    tag_219:\n        /* \"#utility.yul\":10617:10756   */\n      swap1\n      pop\n        /* \"#utility.yul\":10344:10763   */\n      swap2\n      swap1\n      pop\n      jump\t// out\n        /* \"#utility.yul\":10769:11188   */\n    tag_51:\n        /* \"#utility.yul\":10908:10912   */\n      0x00\n        /* \"#utility.yul\":10946:10948   */\n      0x40\n        /* \"#utility.yul\":10935:10944   */\n      dup3\n        /* \"#utility.yul\":10931:10949   */\n      add\n        /* \"#utility.yul\":10923:10949   */\n      swap1\n      pop\n        /* \"#utility.yul\":10959:11030   */\n      tag_221\n        /* \"#utility.yul\":11027:11028   */\n      0x00\n        /* \"#utility.yul\":11016:11025   */\n      dup4\n        /* \"#utility.yul\":11012:11029   */\n      add\n        /* \"#utility.yul\":11003:11009   */\n      dup6\n        /* \"#utility.yul\":10959:11030   */\n      tag_70\n      jump\t// in\n    tag_221:\n        /* \"#utility.yul\":11077:11086   */\n      dup2\n        /* \"#utility.yul\":11071:11075   */\n      dup2\n        /* \"#utility.yul\":11067:11087   */\n      sub\n        /* \"#utility.yul\":11062:11064   */\n      0x20\n        /* \"#utility.yul\":11051:11060   */\n      dup4\n        /* \"#utility.yul\":11047:11065   */\n      add\n        /* \"#utility.yul\":11040:11088   */\n      mstore\n        /* \"#utility.yul\":11105:11181   */\n      tag_222\n        /* \"#utility.yul\":11176:11180   */\n      dup2\n        /* \"#utility.yul\":11167:11173   */\n      dup5\n        /* \"#utility.yul\":11105:11181   */\n      tag_93\n      jump\t// in\n    tag_222:\n        /* \"#utility.yul\":11097:11181   */\n      swap1\n      pop\n        /* \"#utility.yul\":10769:11188   */\n      swap4\n      swap3\n      pop\n      pop\n      pop\n      jump\t// out\n\n    auxdata: 0xa26469706673582212208a3fba82614503f177ffe0a68ad041578eeaeb4e4378edfcac696b217d07aa9f64736f6c634300081a0033\n}\n",
				"bytecode": {
					"linkReferences": {},
					"object": "6080604052348015600e575f80fd5b5069d3c21bcecceda10000005f803373ffffffffffffffffffffffffffffffffffffffff1673ffffffffffffffffffffffffffffffffffffffff1681526020019081526020015f2081905550610cde806100675f395ff3fe608060405234801561000f575f80fd5b506004361061004a575f3560e01c806370a082311461004e578063b414d4b61461007e578063cbbe974b146100ae578063f6368f8a146100de575b5f80fd5b61006860048036038101906100639190610745565b61010e565b6040516100759190610788565b60405180910390f35b61009860048036038101906100939190610745565b610122565b6040516100a591906107bb565b60405180910390f35b6100c860048036038101906100c39190610745565b61013f565b6040516100d59190610788565b60405180910390f35b6100f860048036038101906100f391906109d8565b610154565b60405161010591906107bb565b60405180910390f35b5f602052805f5260405f205f915090505481565b6001602052805f5260405f205f915054906101000a900460ff1681565b6002602052805f5260405f205f915090505481565b5f80841180156101b057505f151560015f3373ffffffffffffffffffffffffffffffffffffffff1673ffffffffffffffffffffffffffffffffffffffff1681526020019081526020015f205f9054906101000a900460ff161515145b801561020857505f151560015f8773ffffffffffffffffffffffffffffffffffffffff1673ffffffffffffffffffffffffffffffffffffffff1681526020019081526020015f205f9054906101000a900460ff161515145b8015610250575060025f3373ffffffffffffffffffffffffffffffffffffffff1673ffffffffffffffffffffffffffffffffffffffff1681526020019081526020015f205442115b8015610298575060025f8673ffffffffffffffffffffffffffffffffffffffff1673ffffffffffffffffffffffffffffffffffffffff1681526020019081526020015f205442115b6102a0575f80fd5b6102a9856104ff565b156104e957835f803373ffffffffffffffffffffffffffffffffffffffff1673ffffffffffffffffffffffffffffffffffffffff1681526020019081526020015f205f8282546102f99190610aa1565b92505081905550835f808773ffffffffffffffffffffffffffffffffffffffff1673ffffffffffffffffffffffffffffffffffffffff1681526020019081526020015f205f82825461034b9190610ad4565b925050819055505f8573ffffffffffffffffffffffffffffffffffffffff1662030d40848051906020012033888860405160240161038b93929190610b76565b604051602081830303815290604052907bffffffffffffffffffffffffffffffffffffffffffffffffffffffff19166020820180517bffffffffffffffffffffffffffffffffffffffffffffffffffffffff83818316178352505050506040516103f59190610bec565b5f604051808303815f8787f1925050503d805f811461042f576040519150601f19603f3d011682016040523d82523d5f602084013e610434565b606091505b5050905080610478576040517f08c379a000000000000000000000000000000000000000000000000000000000815260040161046f90610c5c565b60405180910390fd5b8573ffffffffffffffffffffffffffffffffffffffff163373ffffffffffffffffffffffffffffffffffffffff167fe19260aff97b920c7df27010903aeb9c8d2be5d310a2c67824cf3f15396e4c1687876040516104d7929190610c7a565b60405180910390a360019150506104f7565b6104f4858585610516565b90505b949350505050565b5f80823b90505f8163ffffffff1611915050919050565b5f825f803373ffffffffffffffffffffffffffffffffffffffff1673ffffffffffffffffffffffffffffffffffffffff1681526020019081526020015f2054101561055f575f80fd5b825f803373ffffffffffffffffffffffffffffffffffffffff1673ffffffffffffffffffffffffffffffffffffffff1681526020019081526020015f205f8282546105aa9190610aa1565b92505081905550825f808673ffffffffffffffffffffffffffffffffffffffff1673ffffffffffffffffffffffffffffffffffffffff1681526020019081526020015f205f8282546105fc9190610ad4565b925050819055508373ffffffffffffffffffffffffffffffffffffffff163373ffffffffffffffffffffffffffffffffffffffff167fddf252ad1be2c89b69c2b068fc378daa952ba7f163c4a11628f55a4df523b3ef856040516106609190610788565b60405180910390a38373ffffffffffffffffffffffffffffffffffffffff163373ffffffffffffffffffffffffffffffffffffffff167fe19260aff97b920c7df27010903aeb9c8d2be5d310a2c67824cf3f15396e4c1685856040516106c7929190610c7a565b60405180910390a3600190509392505050565b5f604051905090565b5f80fd5b5f80fd5b5f73ffffffffffffffffffffffffffffffffffffffff82169050919050565b5f610714826106eb565b9050919050565b6107248161070a565b811461072e575f80fd5b50565b5f8135905061073f8161071b565b92915050565b5f6020828403121561075a576107596106e3565b5b5f61076784828501610731565b91505092915050565b5f819050919050565b61078281610770565b82525050565b5f60208201905061079b5f830184610779565b92915050565b5f8115159050919050565b6107b5816107a1565b82525050565b5f6020820190506107ce5f8301846107ac565b92915050565b6107dd81610770565b81146107e7575f80fd5b50565b5f813590506107f8816107d4565b92915050565b5f80fd5b5f80fd5b5f601f19601f8301169050919050565b7f4e487b71000000000000000000000000000000000000000000000000000000005f52604160045260245ffd5b61084c82610806565b810181811067ffffffffffffffff8211171561086b5761086a610816565b5b80604052505050565b5f61087d6106da565b90506108898282610843565b919050565b5f67ffffffffffffffff8211156108a8576108a7610816565b5b6108b182610806565b9050602081019050919050565b828183375f83830152505050565b5f6108de6108d98461088e565b610874565b9050828152602081018484840111156108fa576108f9610802565b5b6109058482856108be565b509392505050565b5f82601f830112610921576109206107fe565b5b81356109318482602086016108cc565b91505092915050565b5f67ffffffffffffffff82111561095457610953610816565b5b61095d82610806565b9050602081019050919050565b5f61097c6109778461093a565b610874565b90508281526020810184848401111561099857610997610802565b5b6109a38482856108be565b509392505050565b5f82601f8301126109bf576109be6107fe565b5b81356109cf84826020860161096a565b91505092915050565b5f805f80608085870312156109f0576109ef6106e3565b5b5f6109fd87828801610731565b9450506020610a0e878288016107ea565b935050604085013567ffffffffffffffff811115610a2f57610a2e6106e7565b5b610a3b8782880161090d565b925050606085013567ffffffffffffffff811115610a5c57610a5b6106e7565b5b610a68878288016109ab565b91505092959194509250565b7f4e487b71000000000000000000000000000000000000000000000000000000005f52601160045260245ffd5b5f610aab82610770565b9150610ab683610770565b9250828203905081811115610ace57610acd610a74565b5b92915050565b5f610ade82610770565b9150610ae983610770565b9250828201905080821115610b0157610b00610a74565b5b92915050565b610b108161070a565b82525050565b5f81519050919050565b5f82825260208201905092915050565b8281835e5f83830152505050565b5f610b4882610b16565b610b528185610b20565b9350610b62818560208601610b30565b610b6b81610806565b840191505092915050565b5f606082019050610b895f830186610b07565b610b966020830185610779565b8181036040830152610ba88184610b3e565b9050949350505050565b5f81905092915050565b5f610bc682610b16565b610bd08185610bb2565b9350610be0818560208601610b30565b80840191505092915050565b5f610bf78284610bbc565b915081905092915050565b5f82825260208201905092915050565b7f43616c6c6261636b206661696c656400000000000000000000000000000000005f82015250565b5f610c46600f83610c02565b9150610c5182610c12565b602082019050919050565b5f6020820190508181035f830152610c7381610c3a565b9050919050565b5f604082019050610c8d5f830185610779565b8181036020830152610c9f8184610b3e565b9050939250505056fea26469706673582212208a3fba82614503f177ffe0a68ad041578eeaeb4e4378edfcac696b217d07aa9f64736f6c634300081a0033",
					"opcodes": "PUSH1 0x80 PUSH1 0x40 MSTORE CALLVALUE DUP1 ISZERO PUSH1 0xE JUMPI PUSH0 DUP1 REVERT JUMPDEST POP PUSH10 0xD3C21BCECCEDA1000000 PUSH0 DUP1 CALLER PUSH20 0xFFFFFFFFFFFFFFFFFFFFFFFFFFFFFFFFFFFFFFFF AND PUSH20 0xFFFFFFFFFFFFFFFFFFFFFFFFFFFFFFFFFFFFFFFF AND DUP2 MSTORE PUSH1 0x20 ADD SWAP1 DUP2 MSTORE PUSH1 0x20 ADD PUSH0 KECCAK256 DUP2 SWAP1 SSTORE POP PUSH2 0xCDE DUP1 PUSH2 0x67 PUSH0 CODECOPY PUSH0 RETURN INVALID PUSH1 0x80 PUSH1 0x40 MSTORE CALLVALUE DUP1 ISZERO PUSH2 0xF JUMPI PUSH0 DUP1 REVERT JUMPDEST POP PUSH1 0x4 CALLDATASIZE LT PUSH2 0x4A JUMPI PUSH0 CALLDATALOAD PUSH1 0xE0 SHR DUP1 PUSH4 0x70A08231 EQ PUSH2 0x4E JUMPI DUP1 PUSH4 0xB414D4B6 EQ PUSH2 0x7E JUMPI DUP1 PUSH4 0xCBBE974B EQ PUSH2 0xAE JUMPI DUP1 PUSH4 0xF6368F8A EQ PUSH2 0xDE JUMPI JUMPDEST PUSH0 DUP1 REVERT JUMPDEST PUSH2 0x68 PUSH1 0x4 DUP1 CALLDATASIZE SUB DUP2 ADD SWAP1 PUSH2 0x63 SWAP2 SWAP1 PUSH2 0x745 JUMP JUMPDEST PUSH2 0x10E JUMP JUMPDEST PUSH1 0x40 MLOAD PUSH2 0x75 SWAP2 SWAP1 PUSH2 0x788 JUMP JUMPDEST PUSH1 0x40 MLOAD DUP1 SWAP2 SUB SWAP1 RETURN JUMPDEST PUSH2 0x98 PUSH1 0x4 DUP1 CALLDATASIZE SUB DUP2 ADD SWAP1 PUSH2 0x93 SWAP2 SWAP1 PUSH2 0x745 JUMP JUMPDEST PUSH2 0x122 JUMP JUMPDEST PUSH1 0x40 MLOAD PUSH2 0xA5 SWAP2 SWAP1 PUSH2 0x7BB JUMP JUMPDEST PUSH1 0x40 MLOAD DUP1 SWAP2 SUB SWAP1 RETURN JUMPDEST PUSH2 0xC8 PUSH1 0x4 DUP1 CALLDATASIZE SUB DUP2 ADD SWAP1 PUSH2 0xC3 SWAP2 SWAP1 PUSH2 0x745 JUMP JUMPDEST PUSH2 0x13F JUMP JUMPDEST PUSH1 0x40 MLOAD PUSH2 0xD5 SWAP2 SWAP1 PUSH2 0x788 JUMP JUMPDEST PUSH1 0x40 MLOAD DUP1 SWAP2 SUB SWAP1 RETURN JUMPDEST PUSH2 0xF8 PUSH1 0x4 DUP1 CALLDATASIZE SUB DUP2 ADD SWAP1 PUSH2 0xF3 SWAP2 SWAP1 PUSH2 0x9D8 JUMP JUMPDEST PUSH2 0x154 JUMP JUMPDEST PUSH1 0x40 MLOAD PUSH2 0x105 SWAP2 SWAP1 PUSH2 0x7BB JUMP JUMPDEST PUSH1 0x40 MLOAD DUP1 SWAP2 SUB SWAP1 RETURN JUMPDEST PUSH0 PUSH1 0x20 MSTORE DUP1 PUSH0 MSTORE PUSH1 0x40 PUSH0 KECCAK256 PUSH0 SWAP2 POP SWAP1 POP SLOAD DUP2 JUMP JUMPDEST PUSH1 0x1 PUSH1 0x20 MSTORE DUP1 PUSH0 MSTORE PUSH1 0x40 PUSH0 KECCAK256 PUSH0 SWAP2 POP SLOAD SWAP1 PUSH2 0x100 EXP SWAP1 DIV PUSH1 0xFF AND DUP2 JUMP JUMPDEST PUSH1 0x2 PUSH1 0x20 MSTORE DUP1 PUSH0 MSTORE PUSH1 0x40 PUSH0 KECCAK256 PUSH0 SWAP2 POP SWAP1 POP SLOAD DUP2 JUMP JUMPDEST PUSH0 DUP1 DUP5 GT DUP1 ISZERO PUSH2 0x1B0 JUMPI POP PUSH0 ISZERO ISZERO PUSH1 0x1 PUSH0 CALLER PUSH20 0xFFFFFFFFFFFFFFFFFFFFFFFFFFFFFFFFFFFFFFFF AND PUSH20 0xFFFFFFFFFFFFFFFFFFFFFFFFFFFFFFFFFFFFFFFF AND DUP2 MSTORE PUSH1 0x20 ADD SWAP1 DUP2 MSTORE PUSH1 0x20 ADD PUSH0 KECCAK256 PUSH0 SWAP1 SLOAD SWAP1 PUSH2 0x100 EXP SWAP1 DIV PUSH1 0xFF AND ISZERO ISZERO EQ JUMPDEST DUP1 ISZERO PUSH2 0x208 JUMPI POP PUSH0 ISZERO ISZERO PUSH1 0x1 PUSH0 DUP8 PUSH20 0xFFFFFFFFFFFFFFFFFFFFFFFFFFFFFFFFFFFFFFFF AND PUSH20 0xFFFFFFFFFFFFFFFFFFFFFFFFFFFFFFFFFFFFFFFF AND DUP2 MSTORE PUSH1 0x20 ADD SWAP1 DUP2 MSTORE PUSH1 0x20 ADD PUSH0 KECCAK256 PUSH0 SWAP1 SLOAD SWAP1 PUSH2 0x100 EXP SWAP1 DIV PUSH1 0xFF AND ISZERO ISZERO EQ JUMPDEST DUP1 ISZERO PUSH2 0x250 JUMPI POP PUSH1 0x2 PUSH0 CALLER PUSH20 0xFFFFFFFFFFFFFFFFFFFFFFFFFFFFFFFFFFFFFFFF AND PUSH20 0xFFFFFFFFFFFFFFFFFFFFFFFFFFFFFFFFFFFFFFFF AND DUP2 MSTORE PUSH1 0x20 ADD SWAP1 DUP2 MSTORE PUSH1 0x20 ADD PUSH0 KECCAK256 SLOAD TIMESTAMP GT JUMPDEST DUP1 ISZERO PUSH2 0x298 JUMPI POP PUSH1 0x2 PUSH0 DUP7 PUSH20 0xFFFFFFFFFFFFFFFFFFFFFFFFFFFFFFFFFFFFFFFF AND PUSH20 0xFFFFFFFFFFFFFFFFFFFFFFFFFFFFFFFFFFFFFFFF AND DUP2 MSTORE PUSH1 0x20 ADD SWAP1 DUP2 MSTORE PUSH1 0x20 ADD PUSH0 KECCAK256 SLOAD TIMESTAMP GT JUMPDEST PUSH2 0x2A0 JUMPI PUSH0 DUP1 REVERT JUMPDEST PUSH2 0x2A9 DUP6 PUSH2 0x4FF JUMP JUMPDEST ISZERO PUSH2 0x4E9 JUMPI DUP4 PUSH0 DUP1 CALLER PUSH20 0xFFFFFFFFFFFFFFFFFFFFFFFFFFFFFFFFFFFFFFFF AND PUSH20 0xFFFFFFFFFFFFFFFFFFFFFFFFFFFFFFFFFFFFFFFF AND DUP2 MSTORE PUSH1 0x20 ADD SWAP1 DUP2 MSTORE PUSH1 0x20 ADD PUSH0 KECCAK256 PUSH0 DUP3 DUP3 SLOAD PUSH2 0x2F9 SWAP2 SWAP1 PUSH2 0xAA1 JUMP JUMPDEST SWAP3 POP POP DUP2 SWAP1 SSTORE POP DUP4 PUSH0 DUP1 DUP8 PUSH20 0xFFFFFFFFFFFFFFFFFFFFFFFFFFFFFFFFFFFFFFFF AND PUSH20 0xFFFFFFFFFFFFFFFFFFFFFFFFFFFFFFFFFFFFFFFF AND DUP2 MSTORE PUSH1 0x20 ADD SWAP1 DUP2 MSTORE PUSH1 0x20 ADD PUSH0 KECCAK256 PUSH0 DUP3 DUP3 SLOAD PUSH2 0x34B SWAP2 SWAP1 PUSH2 0xAD4 JUMP JUMPDEST SWAP3 POP POP DUP2 SWAP1 SSTORE POP PUSH0 DUP6 PUSH20 0xFFFFFFFFFFFFFFFFFFFFFFFFFFFFFFFFFFFFFFFF AND PUSH3 0x30D40 DUP5 DUP1 MLOAD SWAP1 PUSH1 0x20 ADD KECCAK256 CALLER DUP9 DUP9 PUSH1 0x40 MLOAD PUSH1 0x24 ADD PUSH2 0x38B SWAP4 SWAP3 SWAP2 SWAP1 PUSH2 0xB76 JUMP JUMPDEST PUSH1 0x40 MLOAD PUSH1 0x20 DUP2 DUP4 SUB SUB DUP2 MSTORE SWAP1 PUSH1 0x40 MSTORE SWAP1 PUSH28 0xFFFFFFFFFFFFFFFFFFFFFFFFFFFFFFFFFFFFFFFFFFFFFFFFFFFFFFFF NOT AND PUSH1 0x20 DUP3 ADD DUP1 MLOAD PUSH28 0xFFFFFFFFFFFFFFFFFFFFFFFFFFFFFFFFFFFFFFFFFFFFFFFFFFFFFFFF DUP4 DUP2 DUP4 AND OR DUP4 MSTORE POP POP POP POP PUSH1 0x40 MLOAD PUSH2 0x3F5 SWAP2 SWAP1 PUSH2 0xBEC JUMP JUMPDEST PUSH0 PUSH1 0x40 MLOAD DUP1 DUP4 SUB DUP2 PUSH0 DUP8 DUP8 CALL SWAP3 POP POP POP RETURNDATASIZE DUP1 PUSH0 DUP2 EQ PUSH2 0x42F JUMPI PUSH1 0x40 MLOAD SWAP2 POP PUSH1 0x1F NOT PUSH1 0x3F RETURNDATASIZE ADD AND DUP3 ADD PUSH1 0x40 MSTORE RETURNDATASIZE DUP3 MSTORE RETURNDATASIZE PUSH0 PUSH1 0x20 DUP5 ADD RETURNDATACOPY PUSH2 0x434 JUMP JUMPDEST PUSH1 0x60 SWAP2 POP JUMPDEST POP POP SWAP1 POP DUP1 PUSH2 0x478 JUMPI PUSH1 0x40 MLOAD PUSH32 0x8C379A000000000000000000000000000000000000000000000000000000000 DUP2 MSTORE PUSH1 0x4 ADD PUSH2 0x46F SWAP1 PUSH2 0xC5C JUMP JUMPDEST PUSH1 0x40 MLOAD DUP1 SWAP2 SUB SWAP1 REVERT JUMPDEST DUP6 PUSH20 0xFFFFFFFFFFFFFFFFFFFFFFFFFFFFFFFFFFFFFFFF AND CALLER PUSH20 0xFFFFFFFFFFFFFFFFFFFFFFFFFFFFFFFFFFFFFFFF AND PUSH32 0xE19260AFF97B920C7DF27010903AEB9C8D2BE5D310A2C67824CF3F15396E4C16 DUP8 DUP8 PUSH1 0x40 MLOAD PUSH2 0x4D7 SWAP3 SWAP2 SWAP1 PUSH2 0xC7A JUMP JUMPDEST PUSH1 0x40 MLOAD DUP1 SWAP2 SUB SWAP1 LOG3 PUSH1 0x1 SWAP2 POP POP PUSH2 0x4F7 JUMP JUMPDEST PUSH2 0x4F4 DUP6 DUP6 DUP6 PUSH2 0x516 JUMP JUMPDEST SWAP1 POP JUMPDEST SWAP5 SWAP4 POP POP POP POP JUMP JUMPDEST PUSH0 DUP1 DUP3 EXTCODESIZE SWAP1 POP PUSH0 DUP2 PUSH4 0xFFFFFFFF AND GT SWAP2 POP POP SWAP2 SWAP1 POP JUMP JUMPDEST PUSH0 DUP3 PUSH0 DUP1 CALLER PUSH20 0xFFFFFFFFFFFFFFFFFFFFFFFFFFFFFFFFFFFFFFFF AND PUSH20 0xFFFFFFFFFFFFFFFFFFFFFFFFFFFFFFFFFFFFFFFF AND DUP2 MSTORE PUSH1 0x20 ADD SWAP1 DUP2 MSTORE PUSH1 0x20 ADD PUSH0 KECCAK256 SLOAD LT ISZERO PUSH2 0x55F JUMPI PUSH0 DUP1 REVERT JUMPDEST DUP3 PUSH0 DUP1 CALLER PUSH20 0xFFFFFFFFFFFFFFFFFFFFFFFFFFFFFFFFFFFFFFFF AND PUSH20 0xFFFFFFFFFFFFFFFFFFFFFFFFFFFFFFFFFFFFFFFF AND DUP2 MSTORE PUSH1 0x20 ADD SWAP1 DUP2 MSTORE PUSH1 0x20 ADD PUSH0 KECCAK256 PUSH0 DUP3 DUP3 SLOAD PUSH2 0x5AA SWAP2 SWAP1 PUSH2 0xAA1 JUMP JUMPDEST SWAP3 POP POP DUP2 SWAP1 SSTORE POP DUP3 PUSH0 DUP1 DUP7 PUSH20 0xFFFFFFFFFFFFFFFFFFFFFFFFFFFFFFFFFFFFFFFF AND PUSH20 0xFFFFFFFFFFFFFFFFFFFFFFFFFFFFFFFFFFFFFFFF AND DUP2 MSTORE PUSH1 0x20 ADD SWAP1 DUP2 MSTORE PUSH1 0x20 ADD PUSH0 KECCAK256 PUSH0 DUP3 DUP3 SLOAD PUSH2 0x5FC SWAP2 SWAP1 PUSH2 0xAD4 JUMP JUMPDEST SWAP3 POP POP DUP2 SWAP1 SSTORE POP DUP4 PUSH20 0xFFFFFFFFFFFFFFFFFFFFFFFFFFFFFFFFFFFFFFFF AND CALLER PUSH20 0xFFFFFFFFFFFFFFFFFFFFFFFFFFFFFFFFFFFFFFFF AND PUSH32 0xDDF252AD1BE2C89B69C2B068FC378DAA952BA7F163C4A11628F55A4DF523B3EF DUP6 PUSH1 0x40 MLOAD PUSH2 0x660 SWAP2 SWAP1 PUSH2 0x788 JUMP JUMPDEST PUSH1 0x40 MLOAD DUP1 SWAP2 SUB SWAP1 LOG3 DUP4 PUSH20 0xFFFFFFFFFFFFFFFFFFFFFFFFFFFFFFFFFFFFFFFF AND CALLER PUSH20 0xFFFFFFFFFFFFFFFFFFFFFFFFFFFFFFFFFFFFFFFF AND PUSH32 0xE19260AFF97B920C7DF27010903AEB9C8D2BE5D310A2C67824CF3F15396E4C16 DUP6 DUP6 PUSH1 0x40 MLOAD PUSH2 0x6C7 SWAP3 SWAP2 SWAP1 PUSH2 0xC7A JUMP JUMPDEST PUSH1 0x40 MLOAD DUP1 SWAP2 SUB SWAP1 LOG3 PUSH1 0x1 SWAP1 POP SWAP4 SWAP3 POP POP POP JUMP JUMPDEST PUSH0 PUSH1 0x40 MLOAD SWAP1 POP SWAP1 JUMP JUMPDEST PUSH0 DUP1 REVERT JUMPDEST PUSH0 DUP1 REVERT JUMPDEST PUSH0 PUSH20 0xFFFFFFFFFFFFFFFFFFFFFFFFFFFFFFFFFFFFFFFF DUP3 AND SWAP1 POP SWAP2 SWAP1 POP JUMP JUMPDEST PUSH0 PUSH2 0x714 DUP3 PUSH2 0x6EB JUMP JUMPDEST SWAP1 POP SWAP2 SWAP1 POP JUMP JUMPDEST PUSH2 0x724 DUP2 PUSH2 0x70A JUMP JUMPDEST DUP2 EQ PUSH2 0x72E JUMPI PUSH0 DUP1 REVERT JUMPDEST POP JUMP JUMPDEST PUSH0 DUP2 CALLDATALOAD SWAP1 POP PUSH2 0x73F DUP2 PUSH2 0x71B JUMP JUMPDEST SWAP3 SWAP2 POP POP JUMP JUMPDEST PUSH0 PUSH1 0x20 DUP3 DUP5 SUB SLT ISZERO PUSH2 0x75A JUMPI PUSH2 0x759 PUSH2 0x6E3 JUMP JUMPDEST JUMPDEST PUSH0 PUSH2 0x767 DUP5 DUP3 DUP6 ADD PUSH2 0x731 JUMP JUMPDEST SWAP2 POP POP SWAP3 SWAP2 POP POP JUMP JUMPDEST PUSH0 DUP2 SWAP1 POP SWAP2 SWAP1 POP JUMP JUMPDEST PUSH2 0x782 DUP2 PUSH2 0x770 JUMP JUMPDEST DUP3 MSTORE POP POP JUMP JUMPDEST PUSH0 PUSH1 0x20 DUP3 ADD SWAP1 POP PUSH2 0x79B PUSH0 DUP4 ADD DUP5 PUSH2 0x779 JUMP JUMPDEST SWAP3 SWAP2 POP POP JUMP JUMPDEST PUSH0 DUP2 ISZERO ISZERO SWAP1 POP SWAP2 SWAP1 POP JUMP JUMPDEST PUSH2 0x7B5 DUP2 PUSH2 0x7A1 JUMP JUMPDEST DUP3 MSTORE POP POP JUMP JUMPDEST PUSH0 PUSH1 0x20 DUP3 ADD SWAP1 POP PUSH2 0x7CE PUSH0 DUP4 ADD DUP5 PUSH2 0x7AC JUMP JUMPDEST SWAP3 SWAP2 POP POP JUMP JUMPDEST PUSH2 0x7DD DUP2 PUSH2 0x770 JUMP JUMPDEST DUP2 EQ PUSH2 0x7E7 JUMPI PUSH0 DUP1 REVERT JUMPDEST POP JUMP JUMPDEST PUSH0 DUP2 CALLDATALOAD SWAP1 POP PUSH2 0x7F8 DUP2 PUSH2 0x7D4 JUMP JUMPDEST SWAP3 SWAP2 POP POP JUMP JUMPDEST PUSH0 DUP1 REVERT JUMPDEST PUSH0 DUP1 REVERT JUMPDEST PUSH0 PUSH1 0x1F NOT PUSH1 0x1F DUP4 ADD AND SWAP1 POP SWAP2 SWAP1 POP JUMP JUMPDEST PUSH32 0x4E487B7100000000000000000000000000000000000000000000000000000000 PUSH0 MSTORE PUSH1 0x41 PUSH1 0x4 MSTORE PUSH1 0x24 PUSH0 REVERT JUMPDEST PUSH2 0x84C DUP3 PUSH2 0x806 JUMP JUMPDEST DUP2 ADD DUP2 DUP2 LT PUSH8 0xFFFFFFFFFFFFFFFF DUP3 GT OR ISZERO PUSH2 0x86B JUMPI PUSH2 0x86A PUSH2 0x816 JUMP JUMPDEST JUMPDEST DUP1 PUSH1 0x40 MSTORE POP POP POP JUMP JUMPDEST PUSH0 PUSH2 0x87D PUSH2 0x6DA JUMP JUMPDEST SWAP1 POP PUSH2 0x889 DUP3 DUP3 PUSH2 0x843 JUMP JUMPDEST SWAP2 SWAP1 POP JUMP JUMPDEST PUSH0 PUSH8 0xFFFFFFFFFFFFFFFF DUP3 GT ISZERO PUSH2 0x8A8 JUMPI PUSH2 0x8A7 PUSH2 0x816 JUMP JUMPDEST JUMPDEST PUSH2 0x8B1 DUP3 PUSH2 0x806 JUMP JUMPDEST SWAP1 POP PUSH1 0x20 DUP2 ADD SWAP1 POP SWAP2 SWAP1 POP JUMP JUMPDEST DUP3 DUP2 DUP4 CALLDATACOPY PUSH0 DUP4 DUP4 ADD MSTORE POP POP POP JUMP JUMPDEST PUSH0 PUSH2 0x8DE PUSH2 0x8D9 DUP5 PUSH2 0x88E JUMP JUMPDEST PUSH2 0x874 JUMP JUMPDEST SWAP1 POP DUP3 DUP2 MSTORE PUSH1 0x20 DUP2 ADD DUP5 DUP5 DUP5 ADD GT ISZERO PUSH2 0x8FA JUMPI PUSH2 0x8F9 PUSH2 0x802 JUMP JUMPDEST JUMPDEST PUSH2 0x905 DUP5 DUP3 DUP6 PUSH2 0x8BE JUMP JUMPDEST POP SWAP4 SWAP3 POP POP POP JUMP JUMPDEST PUSH0 DUP3 PUSH1 0x1F DUP4 ADD SLT PUSH2 0x921 JUMPI PUSH2 0x920 PUSH2 0x7FE JUMP JUMPDEST JUMPDEST DUP2 CALLDATALOAD PUSH2 0x931 DUP5 DUP3 PUSH1 0x20 DUP7 ADD PUSH2 0x8CC JUMP JUMPDEST SWAP2 POP POP SWAP3 SWAP2 POP POP JUMP JUMPDEST PUSH0 PUSH8 0xFFFFFFFFFFFFFFFF DUP3 GT ISZERO PUSH2 0x954 JUMPI PUSH2 0x953 PUSH2 0x816 JUMP JUMPDEST JUMPDEST PUSH2 0x95D DUP3 PUSH2 0x806 JUMP JUMPDEST SWAP1 POP PUSH1 0x20 DUP2 ADD SWAP1 POP SWAP2 SWAP1 POP JUMP JUMPDEST PUSH0 PUSH2 0x97C PUSH2 0x977 DUP5 PUSH2 0x93A JUMP JUMPDEST PUSH2 0x874 JUMP JUMPDEST SWAP1 POP DUP3 DUP2 MSTORE PUSH1 0x20 DUP2 ADD DUP5 DUP5 DUP5 ADD GT ISZERO PUSH2 0x998 JUMPI PUSH2 0x997 PUSH2 0x802 JUMP JUMPDEST JUMPDEST PUSH2 0x9A3 DUP5 DUP3 DUP6 PUSH2 0x8BE JUMP JUMPDEST POP SWAP4 SWAP3 POP POP POP JUMP JUMPDEST PUSH0 DUP3 PUSH1 0x1F DUP4 ADD SLT PUSH2 0x9BF JUMPI PUSH2 0x9BE PUSH2 0x7FE JUMP JUMPDEST JUMPDEST DUP2 CALLDATALOAD PUSH2 0x9CF DUP5 DUP3 PUSH1 0x20 DUP7 ADD PUSH2 0x96A JUMP JUMPDEST SWAP2 POP POP SWAP3 SWAP2 POP POP JUMP JUMPDEST PUSH0 DUP1 PUSH0 DUP1 PUSH1 0x80 DUP6 DUP8 SUB SLT ISZERO PUSH2 0x9F0 JUMPI PUSH2 0x9EF PUSH2 0x6E3 JUMP JUMPDEST JUMPDEST PUSH0 PUSH2 0x9FD DUP8 DUP3 DUP9 ADD PUSH2 0x731 JUMP JUMPDEST SWAP5 POP POP PUSH1 0x20 PUSH2 0xA0E DUP8 DUP3 DUP9 ADD PUSH2 0x7EA JUMP JUMPDEST SWAP4 POP POP PUSH1 0x40 DUP6 ADD CALLDATALOAD PUSH8 0xFFFFFFFFFFFFFFFF DUP2 GT ISZERO PUSH2 0xA2F JUMPI PUSH2 0xA2E PUSH2 0x6E7 JUMP JUMPDEST JUMPDEST PUSH2 0xA3B DUP8 DUP3 DUP9 ADD PUSH2 0x90D JUMP JUMPDEST SWAP3 POP POP PUSH1 0x60 DUP6 ADD CALLDATALOAD PUSH8 0xFFFFFFFFFFFFFFFF DUP2 GT ISZERO PUSH2 0xA5C JUMPI PUSH2 0xA5B PUSH2 0x6E7 JUMP JUMPDEST JUMPDEST PUSH2 0xA68 DUP8 DUP3 DUP9 ADD PUSH2 0x9AB JUMP JUMPDEST SWAP2 POP POP SWAP3 SWAP6 SWAP2 SWAP5 POP SWAP3 POP JUMP JUMPDEST PUSH32 0x4E487B7100000000000000000000000000000000000000000000000000000000 PUSH0 MSTORE PUSH1 0x11 PUSH1 0x4 MSTORE PUSH1 0x24 PUSH0 REVERT JUMPDEST PUSH0 PUSH2 0xAAB DUP3 PUSH2 0x770 JUMP JUMPDEST SWAP2 POP PUSH2 0xAB6 DUP4 PUSH2 0x770 JUMP JUMPDEST SWAP3 POP DUP3 DUP3 SUB SWAP1 POP DUP2 DUP2 GT ISZERO PUSH2 0xACE JUMPI PUSH2 0xACD PUSH2 0xA74 JUMP JUMPDEST JUMPDEST SWAP3 SWAP2 POP POP JUMP JUMPDEST PUSH0 PUSH2 0xADE DUP3 PUSH2 0x770 JUMP JUMPDEST SWAP2 POP PUSH2 0xAE9 DUP4 PUSH2 0x770 JUMP JUMPDEST SWAP3 POP DUP3 DUP3 ADD SWAP1 POP DUP1 DUP3 GT ISZERO PUSH2 0xB01 JUMPI PUSH2 0xB00 PUSH2 0xA74 JUMP JUMPDEST JUMPDEST SWAP3 SWAP2 POP POP JUMP JUMPDEST PUSH2 0xB10 DUP2 PUSH2 0x70A JUMP JUMPDEST DUP3 MSTORE POP POP JUMP JUMPDEST PUSH0 DUP2 MLOAD SWAP1 POP SWAP2 SWAP1 POP JUMP JUMPDEST PUSH0 DUP3 DUP3 MSTORE PUSH1 0x20 DUP3 ADD SWAP1 POP SWAP3 SWAP2 POP POP JUMP JUMPDEST DUP3 DUP2 DUP4 MCOPY PUSH0 DUP4 DUP4 ADD MSTORE POP POP POP JUMP JUMPDEST PUSH0 PUSH2 0xB48 DUP3 PUSH2 0xB16 JUMP JUMPDEST PUSH2 0xB52 DUP2 DUP6 PUSH2 0xB20 JUMP JUMPDEST SWAP4 POP PUSH2 0xB62 DUP2 DUP6 PUSH1 0x20 DUP7 ADD PUSH2 0xB30 JUMP JUMPDEST PUSH2 0xB6B DUP2 PUSH2 0x806 JUMP JUMPDEST DUP5 ADD SWAP2 POP POP SWAP3 SWAP2 POP POP JUMP JUMPDEST PUSH0 PUSH1 0x60 DUP3 ADD SWAP1 POP PUSH2 0xB89 PUSH0 DUP4 ADD DUP7 PUSH2 0xB07 JUMP JUMPDEST PUSH2 0xB96 PUSH1 0x20 DUP4 ADD DUP6 PUSH2 0x779 JUMP JUMPDEST DUP2 DUP2 SUB PUSH1 0x40 DUP4 ADD MSTORE PUSH2 0xBA8 DUP2 DUP5 PUSH2 0xB3E JUMP JUMPDEST SWAP1 POP SWAP5 SWAP4 POP POP POP POP JUMP JUMPDEST PUSH0 DUP2 SWAP1 POP SWAP3 SWAP2 POP POP JUMP JUMPDEST PUSH0 PUSH2 0xBC6 DUP3 PUSH2 0xB16 JUMP JUMPDEST PUSH2 0xBD0 DUP2 DUP6 PUSH2 0xBB2 JUMP JUMPDEST SWAP4 POP PUSH2 0xBE0 DUP2 DUP6 PUSH1 0x20 DUP7 ADD PUSH2 0xB30 JUMP JUMPDEST DUP1 DUP5 ADD SWAP2 POP POP SWAP3 SWAP2 POP POP JUMP JUMPDEST PUSH0 PUSH2 0xBF7 DUP3 DUP5 PUSH2 0xBBC JUMP JUMPDEST SWAP2 POP DUP2 SWAP1 POP SWAP3 SWAP2 POP POP JUMP JUMPDEST PUSH0 DUP3 DUP3 MSTORE PUSH1 0x20 DUP3 ADD SWAP1 POP SWAP3 SWAP2 POP POP JUMP JUMPDEST PUSH32 0x43616C6C6261636B206661696C65640000000000000000000000000000000000 PUSH0 DUP3 ADD MSTORE POP JUMP JUMPDEST PUSH0 PUSH2 0xC46 PUSH1 0xF DUP4 PUSH2 0xC02 JUMP JUMPDEST SWAP2 POP PUSH2 0xC51 DUP3 PUSH2 0xC12 JUMP JUMPDEST PUSH1 0x20 DUP3 ADD SWAP1 POP SWAP2 SWAP1 POP JUMP JUMPDEST PUSH0 PUSH1 0x20 DUP3 ADD SWAP1 POP DUP2 DUP2 SUB PUSH0 DUP4 ADD MSTORE PUSH2 0xC73 DUP2 PUSH2 0xC3A JUMP JUMPDEST SWAP1 POP SWAP2 SWAP1 POP JUMP JUMPDEST PUSH0 PUSH1 0x40 DUP3 ADD SWAP1 POP PUSH2 0xC8D PUSH0 DUP4 ADD DUP6 PUSH2 0x779 JUMP JUMPDEST DUP2 DUP2 SUB PUSH1 0x20 DUP4 ADD MSTORE PUSH2 0xC9F DUP2 DUP5 PUSH2 0xB3E JUMP JUMPDEST SWAP1 POP SWAP4 SWAP3 POP POP POP JUMP INVALID LOG2 PUSH5 0x6970667358 0x22 SLT KECCAK256 DUP11 EXTCODEHASH 0xBA DUP3 PUSH2 0x4503 CALL PUSH24 0xFFE0A68AD041578EEAEB4E4378EDFCAC696B217D07AA9F64 PUSH20 0x6F6C634300081A00330000000000000000000000 "
				},
				"gasEstimates": {
					"creation": {
						"codeDepositCost": "658800",
						"executionCost": "22888",
						"totalCost": "681688"
					},
					"external": {
						"balanceOf(address)": "2779",
						"frozenAccount(address)": "2833",
						"transfer(address,uint256,bytes,string)": "infinite",
						"unlockUnixTime(address)": "2824"
					},
					"internal": {
						"isContract(address)": "2651",
						"transferToAddress(address,uint256,bytes memory)": "infinite"
					}
				},
				"methodIdentifiers": {
					"balanceOf(address)": "70a08231",
					"frozenAccount(address)": "b414d4b6",
					"transfer(address,uint256,bytes,string)": "f6368f8a",
					"unlockUnixTime(address)": "cbbe974b"
				}
			},
			"storageLayout": {
				"storage": [
					{
						"astId": 5,
						"contract": "contracts/VulnerableERC223.sol:VulnerableERC223",
						"label": "balanceOf",
						"offset": 0,
						"slot": "0",
						"type": "t_mapping(t_address,t_uint256)"
					},
					{
						"astId": 9,
						"contract": "contracts/VulnerableERC223.sol:VulnerableERC223",
						"label": "frozenAccount",
						"offset": 0,
						"slot": "1",
						"type": "t_mapping(t_address,t_bool)"
					},
					{
						"astId": 13,
						"contract": "contracts/VulnerableERC223.sol:VulnerableERC223",
						"label": "unlockUnixTime",
						"offset": 0,
						"slot": "2",
						"type": "t_mapping(t_address,t_uint256)"
					}
				],
				"types": {
					"t_address": {
						"encoding": "inplace",
						"label": "address",
						"numberOfBytes": "20"
					},
					"t_bool": {
						"encoding": "inplace",
						"label": "bool",
						"numberOfBytes": "1"
					},
					"t_mapping(t_address,t_bool)": {
						"encoding": "mapping",
						"key": "t_address",
						"label": "mapping(address => bool)",
						"numberOfBytes": "32",
						"value": "t_bool"
					},
					"t_mapping(t_address,t_uint256)": {
						"encoding": "mapping",
						"key": "t_address",
						"label": "mapping(address => uint256)",
						"numberOfBytes": "32",
						"value": "t_uint256"
					},
					"t_uint256": {
						"encoding": "inplace",
						"label": "uint256",
						"numberOfBytes": "32"
					}
				}
			},
			"userdoc": {
				"kind": "user",
				"methods": {},
				"version": 1
			}
		}
	}
}